{
  "contractName": "Candidate",
  "abi": [
    {
      "anonymous": false,
      "inputs": [
        {
          "indexed": false,
          "internalType": "bytes32",
          "name": "messageID",
          "type": "bytes32"
        },
        {
          "indexed": false,
          "internalType": "address",
          "name": "host",
          "type": "address"
        },
        {
          "indexed": false,
          "internalType": "bytes32",
          "name": "guest",
          "type": "bytes32"
        }
      ],
      "name": "AddCandidateValidator",
      "type": "event"
    },
    {
      "anonymous": false,
      "inputs": [
        {
          "indexed": true,
          "internalType": "address",
          "name": "previousOwner",
          "type": "address"
        },
        {
          "indexed": true,
          "internalType": "address",
          "name": "newOwner",
          "type": "address"
        }
      ],
      "name": "OwnershipTransferred",
      "type": "event"
    },
    {
      "anonymous": false,
      "inputs": [
        {
          "indexed": false,
          "internalType": "bytes32",
          "name": "messageID",
          "type": "bytes32"
        },
        {
          "indexed": false,
          "internalType": "address[]",
          "name": "hosts",
          "type": "address[]"
        }
      ],
      "name": "ProposalCandidatesValidatorsCreated",
      "type": "event"
    },
    {
      "anonymous": false,
      "inputs": [
        {
          "indexed": false,
          "internalType": "bytes32",
          "name": "messageID",
          "type": "bytes32"
        },
        {
          "indexed": false,
          "internalType": "address",
          "name": "host",
          "type": "address"
        },
        {
          "indexed": false,
          "internalType": "bytes32",
          "name": "guest",
          "type": "bytes32"
        }
      ],
      "name": "RemoveCandidateValidator",
      "type": "event"
    },
    {
      "constant": true,
      "inputs": [],
      "name": "isOwner",
      "outputs": [
        {
          "internalType": "bool",
          "name": "",
          "type": "bool"
        }
      ],
      "payable": false,
      "stateMutability": "view",
      "type": "function"
    },
    {
      "constant": true,
      "inputs": [],
      "name": "owner",
      "outputs": [
        {
          "internalType": "address",
          "name": "",
          "type": "address"
        }
      ],
      "payable": false,
      "stateMutability": "view",
      "type": "function"
    },
    {
      "constant": false,
      "inputs": [],
      "name": "renounceOwnership",
      "outputs": [],
      "payable": false,
      "stateMutability": "nonpayable",
      "type": "function"
    },
    {
      "constant": false,
      "inputs": [
        {
          "internalType": "address",
          "name": "newOwner",
          "type": "address"
        }
      ],
      "name": "transferOwnership",
      "outputs": [],
      "payable": false,
      "stateMutability": "nonpayable",
      "type": "function"
    },
    {
      "constant": false,
      "inputs": [
        {
          "internalType": "address",
          "name": "host",
          "type": "address"
        },
        {
          "internalType": "bytes32",
          "name": "guest",
          "type": "bytes32"
        }
      ],
      "name": "addCandidate",
      "outputs": [],
      "payable": false,
      "stateMutability": "nonpayable",
      "type": "function"
    },
    {
      "constant": false,
      "inputs": [
        {
          "internalType": "address",
          "name": "host",
          "type": "address"
        }
      ],
      "name": "removeCandidate",
      "outputs": [],
      "payable": false,
      "stateMutability": "nonpayable",
      "type": "function"
    },
    {
      "constant": false,
      "inputs": [
        {
          "internalType": "address[]",
          "name": "hosts",
          "type": "address[]"
        }
      ],
      "name": "createCandidatesValidatorsProposal",
      "outputs": [],
      "payable": false,
      "stateMutability": "nonpayable",
      "type": "function"
    },
    {
      "constant": true,
      "inputs": [
        {
          "internalType": "bytes32",
          "name": "proposalID",
          "type": "bytes32"
        }
      ],
      "name": "getValidatorsListByProposalID",
      "outputs": [
        {
          "internalType": "address[]",
          "name": "",
          "type": "address[]"
        }
      ],
      "payable": false,
      "stateMutability": "view",
      "type": "function"
    },
    {
      "constant": false,
      "inputs": [],
      "name": "initialize",
      "outputs": [],
      "payable": false,
      "stateMutability": "nonpayable",
      "type": "function"
    },
    {
      "constant": false,
      "inputs": [
        {
          "internalType": "address",
          "name": "sender",
          "type": "address"
        }
      ],
      "name": "initialize",
      "outputs": [],
      "payable": false,
      "stateMutability": "nonpayable",
      "type": "function"
    },
    {
      "constant": true,
      "inputs": [
        {
          "internalType": "address",
          "name": "host",
          "type": "address"
        }
      ],
      "name": "isCandidateExists",
      "outputs": [
        {
          "internalType": "bool",
          "name": "",
          "type": "bool"
        }
      ],
      "payable": false,
      "stateMutability": "view",
      "type": "function"
    },
    {
      "constant": true,
      "inputs": [
        {
          "internalType": "address",
          "name": "host",
          "type": "address"
        }
      ],
      "name": "getGuestAddress",
      "outputs": [
        {
          "internalType": "bytes32",
          "name": "",
          "type": "bytes32"
        }
      ],
      "payable": false,
      "stateMutability": "view",
      "type": "function"
    }
  ],
  "bytecode": "0x6080604052610e55806100136000396000f3fe608060405234801561001057600080fd5b50600436106100b45760003560e01c80637496da56116100715780637496da561461022a5780638129fc1c146102645780638da5cb5b1461026c5780638f32d59b14610290578063c4d66de814610298578063f2fde38b146102be576100b4565b806320ac1b30146100b95780632706c5cd1461012b578063571ebd3c146101635780636dd091f91461018f5780636f6094a4146101b5578063715018a614610222575b600080fd5b610129600480360360208110156100cf57600080fd5b8101906020810181356401000000008111156100ea57600080fd5b8201836020820111156100fc57600080fd5b8035906020019184602083028401116401000000008311171561011e57600080fd5b5090925090506102e4565b005b6101516004803603602081101561014157600080fd5b50356001600160a01b03166104f1565b60408051918252519081900360200190f35b6101296004803603604081101561017957600080fd5b506001600160a01b038135169060200135610574565b610129600480360360208110156101a557600080fd5b50356001600160a01b031661075f565b6101d2600480360360208110156101cb57600080fd5b50356108ba565b60408051602080825283518183015283519192839290830191858101910280838360005b8381101561020e5781810151838201526020016101f6565b505050509050019250505060405180910390f35b61012961095d565b6102506004803603602081101561024057600080fd5b50356001600160a01b03166109ee565b604080519115158252519081900360200190f35b610129610a0f565b610274610aba565b604080516001600160a01b039092168252519081900360200190f35b610250610aca565b610129600480360360208110156102ae57600080fd5b50356001600160a01b0316610af0565b610129600480360360208110156102d457600080fd5b50356001600160a01b0316610be2565b6102ec610aca565b61032b576040805162461bcd60e51b81526020600482018190526024820152600080516020610dd3833981519152604482015290519081900360640190fd5b600a811115610376576040805162461bcd60e51b8152602060048201526012602482015271486f7374206c656e7468206973206c6f6e6760701b604482015290519081900360640190fd5b6000805b828110156103b7576103a684848381811061039157fe5b905060200201356001600160a01b03166109ee565b6103af57600191505b60010161037a565b50806104ec57604080514260208083019190915282518083038201815291830190925280519101206103e7610cdd565b60405180606001604052808381526020018686808060200260200160405190810160405280939291908181526020018383602002808284376000920182905250938552505060016020938401819052868352606884526040909220845181558484015180519596508695919461046294860193500190610d03565b50604091820151600291909101805460ff1916911515919091179055805183815260208082018381529282018790527ff7a3f83850fe40a71872e1a0c223792f692736b24c2bcc86f67d045898bcb368928592899289929060608301908590850280828437600083820152604051601f909101601f1916909201829003965090945050505050a150505b505050565b6001600160a01b03811660009081526066602052604081206002015460ff16610555576040805162461bcd60e51b81526020600482015260116024820152704b6579206973206e6f742065786973747360781b604482015290519081900360640190fd5b506001600160a01b031660009081526066602052604090206001015490565b6001600160a01b038216600090815260666020526040902060020154829060ff16156105d8576040805162461bcd60e51b815260206004820152600e60248201526d486f73742069732065786973747360901b604482015290519081900360640190fd5b600082815260676020526040902054829060ff1615610630576040805162461bcd60e51b815260206004820152600f60248201526e47756573742069732045786973747360881b604482015290519081900360640190fd5b610638610aca565b610677576040805162461bcd60e51b81526020600482018190526024820152600080516020610dd3833981519152604482015290519081900360640190fd5b61067f610d68565b5060408051606080820183526001600160a01b03808816808452602080850189815260018688018181526000858152606685528981208951815498166001600160a01b0319909816979097178755925186830155516002909501805495151560ff199687161790558a8252606783529087902080549094161790925584514281840152855180820384018152818701808852815191909401209092529181019190915260808101869052915190917f77f8ad4448916a1d61794142a3e4abb1b29b7ad39b7757395a3fae558f71be7e919081900360a00190a15050505050565b6001600160a01b038116600090815260666020526040902060020154819060ff166107c6576040805162461bcd60e51b8152602060048201526012602482015271486f7374206973206e6f742065786973747360701b604482015290519081900360640190fd5b6107ce610aca565b61080d576040805162461bcd60e51b81526020600482018190526024820152600080516020610dd3833981519152604482015290519081900360640190fd5b6001600160a01b038216600081815260666020818152604080842060028101805460ff19908116909155600190910180548652606784528286208054909216909155815142818501528251808203850181528184018085528151918601919091209688905294909352549390925260608101939093526080830191909152517fa952dd054ea30a311cb0c067f6377fe8a2ea02b02df24eab047628060b4b8f9c9181900360a00190a15050565b60606108c4610cdd565b6000838152606860209081526040918290208251606081018452815481526001820180548551818602810186019096528086529194929385810193929083018282801561093a57602002820191906000526020600020905b81546001600160a01b0316815260019091019060200180831161091c575b50505091835250506002919091015460ff16151560209182015201519392505050565b610965610aca565b6109a4576040805162461bcd60e51b81526020600482018190526024820152600080516020610dd3833981519152604482015290519081900360640190fd5b6033546040516000916001600160a01b0316907f8be0079c531659141344cd1fd0a4f28419497f9722a3daafe3b4186f6b6457e0908390a3603380546001600160a01b0319169055565b6001600160a01b031660009081526066602052604090206002015460ff1690565b600054610100900460ff1680610a285750610a28610c32565b80610a36575060005460ff16155b610a715760405162461bcd60e51b815260040180806020018281038252602e815260200180610df3602e913960400191505060405180910390fd5b600054610100900460ff16158015610a9c576000805460ff1961ff0019909116610100171660011790555b610aa533610af0565b8015610ab7576000805461ff00191690555b50565b6033546001600160a01b03165b90565b6033546000906001600160a01b0316610ae1610c38565b6001600160a01b031614905090565b600054610100900460ff1680610b095750610b09610c32565b80610b17575060005460ff16155b610b525760405162461bcd60e51b815260040180806020018281038252602e815260200180610df3602e913960400191505060405180910390fd5b600054610100900460ff16158015610b7d576000805460ff1961ff0019909116610100171660011790555b603380546001600160a01b0319166001600160a01b0384811691909117918290556040519116906000907f8be0079c531659141344cd1fd0a4f28419497f9722a3daafe3b4186f6b6457e0908290a38015610bde576000805461ff00191690555b5050565b610bea610aca565b610c29576040805162461bcd60e51b81526020600482018190526024820152600080516020610dd3833981519152604482015290519081900360640190fd5b610ab781610c3c565b303b1590565b3390565b6001600160a01b038116610c815760405162461bcd60e51b8152600401808060200182810382526026815260200180610dad6026913960400191505060405180910390fd5b6033546040516001600160a01b038084169216907f8be0079c531659141344cd1fd0a4f28419497f9722a3daafe3b4186f6b6457e090600090a3603380546001600160a01b0319166001600160a01b0392909216919091179055565b604051806060016040528060008019168152602001606081526020016000151581525090565b828054828255906000526020600020908101928215610d58579160200282015b82811115610d5857825182546001600160a01b0319166001600160a01b03909116178255602090920191600190910190610d23565b50610d64929150610d88565b5090565b604080516060810182526000808252602082018190529181019190915290565b610ac791905b80821115610d645780546001600160a01b0319168155600101610d8e56fe4f776e61626c653a206e6577206f776e657220697320746865207a65726f20616464726573734f776e61626c653a2063616c6c6572206973206e6f7420746865206f776e6572436f6e747261637420696e7374616e63652068617320616c7265616479206265656e20696e697469616c697a6564a265627a7a7231582047cd1e7e4f56fb744d3c829af30ad568b9f6d8d325dd942a414563a17cee8d6d64736f6c634300050c0032",
  "source": "pragma solidity ^0.5.12;\n\nimport \"../interfaces/ICandidate.sol\";\nimport \"@openzeppelin/upgrades/contracts/Initializable.sol\";\n\nimport \"@openzeppelin/contracts-ethereum-package/contracts/ownership/Ownable.sol\";\n\n/*\n add contructor for initialize\n*/\n\ncontract Candidate is ICandidate, Ownable {\n\n    struct ValidatorsListProposal {\n        bytes32 proposalID;\n        address[] hosts;\n        bool isExists;\n    }\n\n    struct CandidateValidator {\n        address host;\n        bytes32 guest;\n        bool isExists;\n\n    }\n\n    mapping (address => CandidateValidator) candidates;\n    mapping (bytes32 => bool) guestCandidates;\n    mapping(bytes32 => ValidatorsListProposal) validatorsCandidatesPropoposals;\n\n    event AddCandidateValidator(bytes32 messageID, address host, bytes32 guest);\n    event RemoveCandidateValidator(bytes32 messageID, address host, bytes32 guest);\n    event ProposalCandidatesValidatorsCreated(bytes32 messageID, address[] hosts);\n\n    function addCandidate(address host, bytes32 guest) external notHostCandidateExists(host) notGuestCandidateExists(guest) onlyOwner {\n        CandidateValidator memory c = CandidateValidator(host, guest, true);\n        candidates[host] = c;\n        guestCandidates[guest] = true;\n        emit AddCandidateValidator(keccak256(abi.encodePacked(now)), host, guest);\n    }\n\n    function removeCandidate(address host) external hostCandidateExists(host) onlyOwner {\n        candidates[host].isExists = false;\n        guestCandidates[candidates[host].guest] = false;\n        emit RemoveCandidateValidator(keccak256(abi.encodePacked(now)), host, candidates[host].guest);\n    }\n    \n    function createCandidatesValidatorsProposal(address[] calldata hosts) external onlyOwner {\n        require(hosts.length <= 10, \"Host lenth is long\");\n\n        bool notHostExists = false;\n\n        for (uint i = 0; i < hosts.length; i++) {\n            if (!isCandidateExists(hosts[i])) {\n                notHostExists = true;\n            }\n        }\n\n        if (!notHostExists) {\n            bytes32 proposalID = keccak256(abi.encodePacked(now));\n            ValidatorsListProposal memory v = ValidatorsListProposal(proposalID, hosts, true);\n            validatorsCandidatesPropoposals[proposalID] = v;\n            emit ProposalCandidatesValidatorsCreated(proposalID, hosts);\n        }\n    }\n\n    function getValidatorsListByProposalID(bytes32 proposalID)  external view returns (address[] memory) {\n        ValidatorsListProposal memory v = validatorsCandidatesPropoposals[proposalID];\n        return v.hosts;\n    }\n\n    modifier hostCandidateExists(address host) {\n        require(candidates[host].isExists, \"Host is not exists\");\n        _;\n    }\n\n    modifier notHostCandidateExists(address host) {\n        require(!candidates[host].isExists, \"Host is exists\");\n        _;\n    }\n\n    modifier notGuestCandidateExists(bytes32 guest) {\n        require(!guestCandidates[guest], \"Guest is Exists\");\n        _;\n    }\n\n    function initialize() initializer public {\n        Ownable.initialize(msg.sender);\n    }\n\n    function isCandidateExists(address host) public view returns(bool) {\n        return candidates[host].isExists;\n    }\n\n    function getGuestAddress(address host) public view returns(bytes32) {\n        require(candidates[host].isExists, \"Key is not exists\");\n\n        return candidates[host].guest;\n    }\n}",
  "sourcePath": "/home/pickle/Documents/bch/eth-bridge-module/contracts/bridge/Candidate.sol",
  "compiler": {
    "name": "solc",
    "version": "0.5.12+commit.7709ece9.Emscripten.clang"
  },
  "schemaVersion": "3.0.16",
  "updatedAt": "2020-03-06T12:15:43.872Z",
  "devdoc": {
    "methods": {
      "initialize(address)": {
        "details": "Initializes the contract setting the deployer as the initial owner."
      },
      "isOwner()": {
        "details": "Returns true if the caller is the current owner."
      },
      "owner()": {
        "details": "Returns the address of the current owner."
      },
      "renounceOwnership()": {
        "details": "Leaves the contract without owner. It will not be possible to call `onlyOwner` functions anymore. Can only be called by the current owner.     * > Note: Renouncing ownership will leave the contract without an owner, thereby removing any functionality that is only available to the owner."
      },
      "transferOwnership(address)": {
        "details": "Transfers ownership of the contract to a new account (`newOwner`). Can only be called by the current owner."
      }
    }
  },
  "userdoc": {
    "methods": {}
  }
}