{
  "contractName": "Bridge",
  "abi": [
    {
      "anonymous": false,
      "inputs": [
        {
          "indexed": false,
          "internalType": "bytes32",
          "name": "messageID",
          "type": "bytes32"
        },
        {
          "indexed": false,
          "internalType": "address",
          "name": "sender",
          "type": "address"
        },
        {
          "indexed": false,
          "internalType": "bytes32",
          "name": "recipient",
          "type": "bytes32"
        },
        {
          "indexed": false,
          "internalType": "uint256",
          "name": "amount",
          "type": "uint256"
        }
      ],
      "name": "ApprovedRelayMessage",
      "type": "event"
    },
    {
      "anonymous": false,
      "inputs": [
        {
          "indexed": false,
          "internalType": "bytes32",
          "name": "messageID",
          "type": "bytes32"
        }
      ],
      "name": "BridgePaused",
      "type": "event"
    },
    {
      "anonymous": false,
      "inputs": [
        {
          "indexed": false,
          "internalType": "bytes32",
          "name": "messageID",
          "type": "bytes32"
        }
      ],
      "name": "BridgePausedByVolume",
      "type": "event"
    },
    {
      "anonymous": false,
      "inputs": [
        {
          "indexed": false,
          "internalType": "bytes32",
          "name": "messageID",
          "type": "bytes32"
        }
      ],
      "name": "BridgeResumed",
      "type": "event"
    },
    {
      "anonymous": false,
      "inputs": [
        {
          "indexed": false,
          "internalType": "bytes32",
          "name": "messageID",
          "type": "bytes32"
        }
      ],
      "name": "BridgeStarted",
      "type": "event"
    },
    {
      "anonymous": false,
      "inputs": [
        {
          "indexed": false,
          "internalType": "bytes32",
          "name": "messageID",
          "type": "bytes32"
        }
      ],
      "name": "BridgeStartedByVolume",
      "type": "event"
    },
    {
      "anonymous": false,
      "inputs": [
        {
          "indexed": false,
          "internalType": "bytes32",
          "name": "messageID",
          "type": "bytes32"
        }
      ],
      "name": "BridgeStopped",
      "type": "event"
    },
    {
      "anonymous": false,
      "inputs": [
        {
          "indexed": false,
          "internalType": "bytes32",
          "name": "messageID",
          "type": "bytes32"
        },
        {
          "indexed": false,
          "internalType": "address",
          "name": "sender",
          "type": "address"
        },
        {
          "indexed": false,
          "internalType": "bytes32",
          "name": "recipient",
          "type": "bytes32"
        },
        {
          "indexed": false,
          "internalType": "uint256",
          "name": "amount",
          "type": "uint256"
        }
      ],
      "name": "ConfirmCancelMessage",
      "type": "event"
    },
    {
      "anonymous": false,
      "inputs": [
        {
          "indexed": false,
          "internalType": "bytes32",
          "name": "messageID",
          "type": "bytes32"
        },
        {
          "indexed": false,
          "internalType": "address",
          "name": "sender",
          "type": "address"
        },
        {
          "indexed": false,
          "internalType": "bytes32",
          "name": "recipient",
          "type": "bytes32"
        },
        {
          "indexed": false,
          "internalType": "uint256",
          "name": "amount",
          "type": "uint256"
        }
      ],
      "name": "ConfirmMessage",
      "type": "event"
    },
    {
      "anonymous": false,
      "inputs": [
        {
          "indexed": false,
          "internalType": "bytes32",
          "name": "messageID",
          "type": "bytes32"
        },
        {
          "indexed": false,
          "internalType": "address",
          "name": "sender",
          "type": "address"
        },
        {
          "indexed": false,
          "internalType": "bytes32",
          "name": "recipient",
          "type": "bytes32"
        },
        {
          "indexed": false,
          "internalType": "uint256",
          "name": "amount",
          "type": "uint256"
        }
      ],
      "name": "ConfirmWithdrawMessage",
      "type": "event"
    },
    {
      "anonymous": false,
      "inputs": [
        {
          "indexed": false,
          "internalType": "bytes32",
          "name": "messageID",
          "type": "bytes32"
        },
        {
          "indexed": false,
          "internalType": "bytes32",
          "name": "recipient",
          "type": "bytes32"
        },
        {
          "indexed": false,
          "internalType": "uint256",
          "name": "timestamp",
          "type": "uint256"
        }
      ],
      "name": "GuestAccountPausedMessage",
      "type": "event"
    },
    {
      "anonymous": false,
      "inputs": [
        {
          "indexed": false,
          "internalType": "bytes32",
          "name": "messageID",
          "type": "bytes32"
        },
        {
          "indexed": false,
          "internalType": "bytes32",
          "name": "recipient",
          "type": "bytes32"
        },
        {
          "indexed": false,
          "internalType": "uint256",
          "name": "timestamp",
          "type": "uint256"
        }
      ],
      "name": "GuestAccountResumedMessage",
      "type": "event"
    },
    {
      "anonymous": false,
      "inputs": [
        {
          "indexed": false,
          "internalType": "bytes32",
          "name": "messageID",
          "type": "bytes32"
        },
        {
          "indexed": false,
          "internalType": "address",
          "name": "sender",
          "type": "address"
        },
        {
          "indexed": false,
          "internalType": "uint256",
          "name": "timestamp",
          "type": "uint256"
        }
      ],
      "name": "HostAccountPausedMessage",
      "type": "event"
    },
    {
      "anonymous": false,
      "inputs": [
        {
          "indexed": false,
          "internalType": "bytes32",
          "name": "messageID",
          "type": "bytes32"
        },
        {
          "indexed": false,
          "internalType": "address",
          "name": "sender",
          "type": "address"
        },
        {
          "indexed": false,
          "internalType": "uint256",
          "name": "timestamp",
          "type": "uint256"
        }
      ],
      "name": "HostAccountResumedMessage",
      "type": "event"
    },
    {
      "anonymous": false,
      "inputs": [
        {
          "indexed": false,
          "internalType": "bytes32",
          "name": "operation",
          "type": "bytes32"
        },
        {
          "indexed": false,
          "internalType": "address",
          "name": "lastCanceller",
          "type": "address"
        }
      ],
      "name": "OperationCancelled",
      "type": "event"
    },
    {
      "anonymous": false,
      "inputs": [
        {
          "indexed": false,
          "internalType": "bytes32",
          "name": "operation",
          "type": "bytes32"
        },
        {
          "indexed": false,
          "internalType": "uint256",
          "name": "howMany",
          "type": "uint256"
        },
        {
          "indexed": false,
          "internalType": "uint256",
          "name": "validatorsCount",
          "type": "uint256"
        },
        {
          "indexed": false,
          "internalType": "address",
          "name": "proposer",
          "type": "address"
        }
      ],
      "name": "OperationCreated",
      "type": "event"
    },
    {
      "anonymous": false,
      "inputs": [
        {
          "indexed": false,
          "internalType": "bytes32",
          "name": "operation",
          "type": "bytes32"
        },
        {
          "indexed": false,
          "internalType": "uint256",
          "name": "votes",
          "type": "uint256"
        },
        {
          "indexed": false,
          "internalType": "uint256",
          "name": "validatorsCount",
          "type": "uint256"
        },
        {
          "indexed": false,
          "internalType": "address",
          "name": "downvoter",
          "type": "address"
        }
      ],
      "name": "OperationDownvoted",
      "type": "event"
    },
    {
      "anonymous": false,
      "inputs": [
        {
          "indexed": false,
          "internalType": "bytes32",
          "name": "operation",
          "type": "bytes32"
        },
        {
          "indexed": false,
          "internalType": "uint256",
          "name": "howMany",
          "type": "uint256"
        },
        {
          "indexed": false,
          "internalType": "uint256",
          "name": "validatorsCount",
          "type": "uint256"
        },
        {
          "indexed": false,
          "internalType": "address",
          "name": "performer",
          "type": "address"
        }
      ],
      "name": "OperationPerformed",
      "type": "event"
    },
    {
      "anonymous": false,
      "inputs": [
        {
          "indexed": false,
          "internalType": "bytes32",
          "name": "operation",
          "type": "bytes32"
        },
        {
          "indexed": false,
          "internalType": "uint256",
          "name": "votes",
          "type": "uint256"
        },
        {
          "indexed": false,
          "internalType": "uint256",
          "name": "howMany",
          "type": "uint256"
        },
        {
          "indexed": false,
          "internalType": "uint256",
          "name": "validatorsCount",
          "type": "uint256"
        },
        {
          "indexed": false,
          "internalType": "address",
          "name": "upvoter",
          "type": "address"
        }
      ],
      "name": "OperationUpvoted",
      "type": "event"
    },
    {
      "anonymous": false,
      "inputs": [
        {
          "indexed": false,
          "internalType": "bytes32",
          "name": "proposalID",
          "type": "bytes32"
        }
      ],
      "name": "ProposalApproved",
      "type": "event"
    },
    {
      "anonymous": false,
      "inputs": [
        {
          "indexed": false,
          "internalType": "bytes32",
          "name": "proposalID",
          "type": "bytes32"
        },
        {
          "indexed": false,
          "internalType": "address",
          "name": "sender",
          "type": "address"
        },
        {
          "indexed": false,
          "internalType": "uint256",
          "name": "minHostTransactionValue",
          "type": "uint256"
        },
        {
          "indexed": false,
          "internalType": "uint256",
          "name": "maxHostTransactionValue",
          "type": "uint256"
        },
        {
          "indexed": false,
          "internalType": "uint256",
          "name": "dayHostMaxLimit",
          "type": "uint256"
        },
        {
          "indexed": false,
          "internalType": "uint256",
          "name": "dayHostMaxLimitForOneAddress",
          "type": "uint256"
        },
        {
          "indexed": false,
          "internalType": "uint256",
          "name": "maxHostPendingTransactionLimit",
          "type": "uint256"
        },
        {
          "indexed": false,
          "internalType": "uint256",
          "name": "minGuestTransactionValue",
          "type": "uint256"
        },
        {
          "indexed": false,
          "internalType": "uint256",
          "name": "maxGuestTransactionValue",
          "type": "uint256"
        },
        {
          "indexed": false,
          "internalType": "uint256",
          "name": "dayGuestMaxLimit",
          "type": "uint256"
        },
        {
          "indexed": false,
          "internalType": "uint256",
          "name": "dayGuestMaxLimitForOneAddress",
          "type": "uint256"
        },
        {
          "indexed": false,
          "internalType": "uint256",
          "name": "maxGuestPendingTransactionLimit",
          "type": "uint256"
        }
      ],
      "name": "ProposalCreated",
      "type": "event"
    },
    {
      "anonymous": false,
      "inputs": [
        {
          "indexed": false,
          "internalType": "bytes32",
          "name": "messageID",
          "type": "bytes32"
        },
        {
          "indexed": false,
          "internalType": "address",
          "name": "sender",
          "type": "address"
        },
        {
          "indexed": false,
          "internalType": "bytes32",
          "name": "recipient",
          "type": "bytes32"
        },
        {
          "indexed": false,
          "internalType": "uint256",
          "name": "amount",
          "type": "uint256"
        }
      ],
      "name": "RelayMessage",
      "type": "event"
    },
    {
      "anonymous": false,
      "inputs": [
        {
          "indexed": false,
          "internalType": "bytes32",
          "name": "messageID",
          "type": "bytes32"
        },
        {
          "indexed": false,
          "internalType": "address",
          "name": "sender",
          "type": "address"
        },
        {
          "indexed": false,
          "internalType": "uint256",
          "name": "amount",
          "type": "uint256"
        }
      ],
      "name": "RevertMessage",
      "type": "event"
    },
    {
      "anonymous": false,
      "inputs": [
        {
          "indexed": false,
          "internalType": "uint256",
          "name": "minHostTransactionValue",
          "type": "uint256"
        },
        {
          "indexed": false,
          "internalType": "uint256",
          "name": "maxHostTransactionValue",
          "type": "uint256"
        },
        {
          "indexed": false,
          "internalType": "uint256",
          "name": "dayHostMaxLimit",
          "type": "uint256"
        },
        {
          "indexed": false,
          "internalType": "uint256",
          "name": "dayHostMaxLimitForOneAddress",
          "type": "uint256"
        },
        {
          "indexed": false,
          "internalType": "uint256",
          "name": "maxHostPendingTransactionLimit",
          "type": "uint256"
        },
        {
          "indexed": false,
          "internalType": "uint256",
          "name": "minGuestTransactionValue",
          "type": "uint256"
        },
        {
          "indexed": false,
          "internalType": "uint256",
          "name": "maxGuestTransactionValue",
          "type": "uint256"
        },
        {
          "indexed": false,
          "internalType": "uint256",
          "name": "dayGuestMaxLimit",
          "type": "uint256"
        },
        {
          "indexed": false,
          "internalType": "uint256",
          "name": "dayGuestMaxLimitForOneAddress",
          "type": "uint256"
        },
        {
          "indexed": false,
          "internalType": "uint256",
          "name": "maxGuestPendingTransactionLimit",
          "type": "uint256"
        }
      ],
      "name": "SetNewLimits",
      "type": "event"
    },
    {
      "anonymous": false,
      "inputs": [
        {
          "indexed": false,
          "internalType": "bytes32",
          "name": "messageID",
          "type": "bytes32"
        },
        {
          "indexed": false,
          "internalType": "address",
          "name": "recepient",
          "type": "address"
        },
        {
          "indexed": false,
          "internalType": "bytes32",
          "name": "sender",
          "type": "bytes32"
        },
        {
          "indexed": false,
          "internalType": "uint256",
          "name": "amount",
          "type": "uint256"
        }
      ],
      "name": "WithdrawMessage",
      "type": "event"
    },
    {
      "anonymous": false,
      "inputs": [
        {
          "indexed": false,
          "internalType": "address[]",
          "name": "previousValidators",
          "type": "address[]"
        },
        {
          "indexed": false,
          "internalType": "uint256",
          "name": "howManyValidatorsDecide",
          "type": "uint256"
        },
        {
          "indexed": false,
          "internalType": "address[]",
          "name": "newvalidators",
          "type": "address[]"
        },
        {
          "indexed": false,
          "internalType": "uint256",
          "name": "newHowManyValidatorsDecide",
          "type": "uint256"
        }
      ],
      "name": "changeValidatorsList",
      "type": "event"
    },
    {
      "constant": true,
      "inputs": [
        {
          "internalType": "uint256",
          "name": "",
          "type": "uint256"
        }
      ],
      "name": "allOperations",
      "outputs": [
        {
          "internalType": "bytes32",
          "name": "",
          "type": "bytes32"
        }
      ],
      "payable": false,
      "stateMutability": "view",
      "type": "function"
    },
    {
      "constant": true,
      "inputs": [],
      "name": "allOperationsCount",
      "outputs": [
        {
          "internalType": "uint256",
          "name": "",
          "type": "uint256"
        }
      ],
      "payable": false,
      "stateMutability": "view",
      "type": "function"
    },
    {
      "constant": true,
      "inputs": [
        {
          "internalType": "bytes32",
          "name": "",
          "type": "bytes32"
        }
      ],
      "name": "allOperationsIndicies",
      "outputs": [
        {
          "internalType": "uint256",
          "name": "",
          "type": "uint256"
        }
      ],
      "payable": false,
      "stateMutability": "view",
      "type": "function"
    },
    {
      "constant": false,
      "inputs": [],
      "name": "cancelAllPending",
      "outputs": [],
      "payable": false,
      "stateMutability": "nonpayable",
      "type": "function"
    },
    {
      "constant": false,
      "inputs": [
        {
          "internalType": "bytes32",
          "name": "operation",
          "type": "bytes32"
        }
      ],
      "name": "cancelPending",
      "outputs": [],
      "payable": false,
      "stateMutability": "nonpayable",
      "type": "function"
    },
    {
      "constant": false,
      "inputs": [
        {
          "internalType": "address[]",
          "name": "newValidators",
          "type": "address[]"
        }
      ],
      "name": "changeValidators",
      "outputs": [],
      "payable": false,
      "stateMutability": "nonpayable",
      "type": "function"
    },
    {
      "constant": false,
      "inputs": [
        {
          "internalType": "address[]",
          "name": "newValidators",
          "type": "address[]"
        },
        {
          "internalType": "uint256",
          "name": "newHowManyValidatorsDecide",
          "type": "uint256"
        }
      ],
      "name": "changeValidatorsWithHowMany",
      "outputs": [],
      "payable": false,
      "stateMutability": "nonpayable",
      "type": "function"
    },
    {
      "constant": true,
      "inputs": [],
      "name": "getLimits",
      "outputs": [
        {
          "internalType": "uint256",
          "name": "",
          "type": "uint256"
        },
        {
          "internalType": "uint256",
          "name": "",
          "type": "uint256"
        },
        {
          "internalType": "uint256",
          "name": "",
          "type": "uint256"
        },
        {
          "internalType": "uint256",
          "name": "",
          "type": "uint256"
        },
        {
          "internalType": "uint256",
          "name": "",
          "type": "uint256"
        },
        {
          "internalType": "uint256",
          "name": "",
          "type": "uint256"
        },
        {
          "internalType": "uint256",
          "name": "",
          "type": "uint256"
        },
        {
          "internalType": "uint256",
          "name": "",
          "type": "uint256"
        },
        {
          "internalType": "uint256",
          "name": "",
          "type": "uint256"
        },
        {
          "internalType": "uint256",
          "name": "",
          "type": "uint256"
        }
      ],
      "payable": false,
      "stateMutability": "view",
      "type": "function"
    },
    {
      "constant": true,
      "inputs": [],
      "name": "howManyValidatorsDecide",
      "outputs": [
        {
          "internalType": "uint256",
          "name": "",
          "type": "uint256"
        }
      ],
      "payable": false,
      "stateMutability": "view",
      "type": "function"
    },
    {
      "constant": true,
      "inputs": [
        {
          "internalType": "address",
          "name": "wallet",
          "type": "address"
        }
      ],
      "name": "isExistValidator",
      "outputs": [
        {
          "internalType": "bool",
          "name": "",
          "type": "bool"
        }
      ],
      "payable": false,
      "stateMutability": "view",
      "type": "function"
    },
    {
      "constant": true,
      "inputs": [
        {
          "internalType": "uint256",
          "name": "",
          "type": "uint256"
        }
      ],
      "name": "validators",
      "outputs": [
        {
          "internalType": "address",
          "name": "",
          "type": "address"
        }
      ],
      "payable": false,
      "stateMutability": "view",
      "type": "function"
    },
    {
      "constant": true,
      "inputs": [],
      "name": "validatorsCount",
      "outputs": [
        {
          "internalType": "uint256",
          "name": "",
          "type": "uint256"
        }
      ],
      "payable": false,
      "stateMutability": "view",
      "type": "function"
    },
    {
      "constant": true,
      "inputs": [],
      "name": "validatorsGeneration",
      "outputs": [
        {
          "internalType": "uint256",
          "name": "",
          "type": "uint256"
        }
      ],
      "payable": false,
      "stateMutability": "view",
      "type": "function"
    },
    {
      "constant": true,
      "inputs": [
        {
          "internalType": "address",
          "name": "",
          "type": "address"
        }
      ],
      "name": "validatorsIndices",
      "outputs": [
        {
          "internalType": "uint8",
          "name": "",
          "type": "uint8"
        }
      ],
      "payable": false,
      "stateMutability": "view",
      "type": "function"
    },
    {
      "constant": true,
      "inputs": [
        {
          "internalType": "bytes32",
          "name": "",
          "type": "bytes32"
        }
      ],
      "name": "votesCountByOperation",
      "outputs": [
        {
          "internalType": "uint256",
          "name": "",
          "type": "uint256"
        }
      ],
      "payable": false,
      "stateMutability": "view",
      "type": "function"
    },
    {
      "constant": true,
      "inputs": [
        {
          "internalType": "bytes32",
          "name": "",
          "type": "bytes32"
        }
      ],
      "name": "votesMaskByOperation",
      "outputs": [
        {
          "internalType": "uint256",
          "name": "",
          "type": "uint256"
        }
      ],
      "payable": false,
      "stateMutability": "view",
      "type": "function"
    },
    {
      "constant": false,
      "inputs": [],
      "name": "initialize",
      "outputs": [],
      "payable": false,
      "stateMutability": "nonpayable",
      "type": "function"
    },
    {
      "constant": false,
      "inputs": [
        {
          "internalType": "contract IERC20",
          "name": "_token",
          "type": "address"
        }
      ],
      "name": "initialize",
      "outputs": [],
      "payable": false,
      "stateMutability": "nonpayable",
      "type": "function"
    },
    {
      "constant": false,
      "inputs": [
        {
          "internalType": "uint256",
          "name": "amount",
          "type": "uint256"
        },
        {
          "internalType": "bytes32",
          "name": "guestAddress",
          "type": "bytes32"
        }
      ],
      "name": "setTransfer",
      "outputs": [],
      "payable": false,
      "stateMutability": "nonpayable",
      "type": "function"
    },
    {
      "constant": false,
      "inputs": [
        {
          "internalType": "bytes32",
          "name": "messageID",
          "type": "bytes32"
        }
      ],
      "name": "revertTransfer",
      "outputs": [],
      "payable": false,
      "stateMutability": "nonpayable",
      "type": "function"
    },
    {
      "constant": false,
      "inputs": [
        {
          "internalType": "bytes32",
          "name": "messageID",
          "type": "bytes32"
        },
        {
          "internalType": "address",
          "name": "spender",
          "type": "address"
        },
        {
          "internalType": "bytes32",
          "name": "guestAddress",
          "type": "bytes32"
        },
        {
          "internalType": "uint256",
          "name": "availableAmount",
          "type": "uint256"
        }
      ],
      "name": "approveTransfer",
      "outputs": [],
      "payable": false,
      "stateMutability": "nonpayable",
      "type": "function"
    },
    {
      "constant": false,
      "inputs": [
        {
          "internalType": "bytes32",
          "name": "messageID",
          "type": "bytes32"
        }
      ],
      "name": "confirmTransfer",
      "outputs": [],
      "payable": false,
      "stateMutability": "nonpayable",
      "type": "function"
    },
    {
      "constant": false,
      "inputs": [
        {
          "internalType": "bytes32",
          "name": "messageID",
          "type": "bytes32"
        },
        {
          "internalType": "bytes32",
          "name": "sender",
          "type": "bytes32"
        },
        {
          "internalType": "address",
          "name": "recipient",
          "type": "address"
        },
        {
          "internalType": "uint256",
          "name": "availableAmount",
          "type": "uint256"
        }
      ],
      "name": "withdrawTransfer",
      "outputs": [],
      "payable": false,
      "stateMutability": "nonpayable",
      "type": "function"
    },
    {
      "constant": false,
      "inputs": [
        {
          "internalType": "bytes32",
          "name": "messageID",
          "type": "bytes32"
        }
      ],
      "name": "confirmWithdrawTransfer",
      "outputs": [],
      "payable": false,
      "stateMutability": "nonpayable",
      "type": "function"
    },
    {
      "constant": false,
      "inputs": [
        {
          "internalType": "bytes32",
          "name": "messageID",
          "type": "bytes32"
        }
      ],
      "name": "confirmCancelTransfer",
      "outputs": [],
      "payable": false,
      "stateMutability": "nonpayable",
      "type": "function"
    },
    {
      "constant": false,
      "inputs": [],
      "name": "startBridge",
      "outputs": [],
      "payable": false,
      "stateMutability": "nonpayable",
      "type": "function"
    },
    {
      "constant": false,
      "inputs": [],
      "name": "resumeBridge",
      "outputs": [],
      "payable": false,
      "stateMutability": "nonpayable",
      "type": "function"
    },
    {
      "constant": false,
      "inputs": [],
      "name": "stopBridge",
      "outputs": [],
      "payable": false,
      "stateMutability": "nonpayable",
      "type": "function"
    },
    {
      "constant": false,
      "inputs": [],
      "name": "pauseBridge",
      "outputs": [],
      "payable": false,
      "stateMutability": "nonpayable",
      "type": "function"
    },
    {
      "constant": false,
      "inputs": [
        {
          "internalType": "bytes32",
          "name": "sender",
          "type": "bytes32"
        }
      ],
      "name": "setPausedStatusForGuestAddress",
      "outputs": [],
      "payable": false,
      "stateMutability": "nonpayable",
      "type": "function"
    },
    {
      "constant": false,
      "inputs": [
        {
          "internalType": "bytes32",
          "name": "sender",
          "type": "bytes32"
        }
      ],
      "name": "setResumedStatusForGuestAddress",
      "outputs": [],
      "payable": false,
      "stateMutability": "nonpayable",
      "type": "function"
    },
    {
      "constant": false,
      "inputs": [
        {
          "internalType": "uint256[10]",
          "name": "parameters",
          "type": "uint256[10]"
        }
      ],
      "name": "createProposal",
      "outputs": [],
      "payable": false,
      "stateMutability": "nonpayable",
      "type": "function"
    },
    {
      "constant": false,
      "inputs": [
        {
          "internalType": "bytes32",
          "name": "proposalID",
          "type": "bytes32"
        }
      ],
      "name": "_approvedNewProposal",
      "outputs": [],
      "payable": false,
      "stateMutability": "nonpayable",
      "type": "function"
    }
  ],
  "bytecode": "0x608060405234801561001057600080fd5b5061788280620000216000396000f3fe608060405234801561001057600080fd5b50600436106101fb5760003560e01c80637d21bc521161011a578063c0314226116100ad578063ea1a26441161007c578063ea1a2644146108d8578063ed612f8c1461091a578063f279db4a14610938578063f4bd482914610966578063fff41e3614610970576101fb565b8063c0314226146107f0578063c4d66de814610828578063c714aaa21461086c578063e04ceea4146108ce576101fb565b80638edf03d6116100e95780638edf03d6146106bb57806390a53085146106e957806390f682881461072b578063ae6f0d3514610789576101fb565b80637d21bc52146105c15780637dd0480f146106795780638129fc1c14610683578063893372ca1461068d576101fb565b80633e8b4887116101925780635e5bc783116101615780635e5bc7831461045657806362f5f244146104845780636f89e409146104a257806373f3d5eb146104ff576101fb565b80633e8b488714610386578063412a862a146103a4578063431ab233146103d2578063568b591514610414576101fb565b806322f2f89a116101ce57806322f2f89a146102c257806329866a67146102e057806335aa2e44146102ea57806336a55b3814610358576101fb565b80630149509e146102005780630269a5731461022e5780630e68bc2e1461028a578063133a01c4146102b8575b600080fd5b61022c6004803603602081101561021657600080fd5b81019080803590602001909291905050506109d2565b005b6102706004803603602081101561024457600080fd5b81019080803573ffffffffffffffffffffffffffffffffffffffff169060200190929190505050610ae7565b604051808215151515815260200191505060405180910390f35b6102b6600480360360208110156102a057600080fd5b8101908080359060200190929190505050610b42565b005b6102c0610c57565b005b6102ca610e35565b6040518082815260200191505060405180910390f35b6102e8610e42565b005b6103166004803603602081101561030057600080fd5b8101908080359060200190929190505050610f55565b604051808273ffffffffffffffffffffffffffffffffffffffff1673ffffffffffffffffffffffffffffffffffffffff16815260200191505060405180910390f35b6103846004803603602081101561036e57600080fd5b8101908080359060200190929190505050610f91565b005b61038e61183e565b6040518082815260200191505060405180910390f35b6103d0600480360360208110156103ba57600080fd5b8101908080359060200190929190505050611844565b005b6103fe600480360360208110156103e857600080fd5b8101908080359060200190929190505050611ad1565b6040518082815260200191505060405180910390f35b6104406004803603602081101561042a57600080fd5b8101908080359060200190929190505050611af2565b6040518082815260200191505060405180910390f35b6104826004803603602081101561046c57600080fd5b8101908080359060200190929190505050611b0a565b005b61048c611c21565b6040518082815260200191505060405180910390f35b6104aa611c27565b604051808b81526020018a81526020018981526020018881526020018781526020018681526020018581526020018481526020018381526020018281526020019a505050505050505050505060405180910390f35b6105bf6004803603604081101561051557600080fd5b810190808035906020019064010000000081111561053257600080fd5b82018360208201111561054457600080fd5b8035906020019184602083028401116401000000008311171561056657600080fd5b919080806020026020016040519081016040528093929190818152602001838360200280828437600081840152601f19601f82011690508083019250505050505050919291929080359060200190929190505050611c92565b005b610677600480360360208110156105d757600080fd5b81019080803590602001906401000000008111156105f457600080fd5b82018360208201111561060657600080fd5b8035906020019184602083028401116401000000008311171561062857600080fd5b919080806020026020016040519081016040528093929190818152602001838360200280828437600081840152601f19601f8201169050808301925050505050505091929192905050506122dc565b005b6106816122ea565b005b61068b6123fd565b005b6106b9600480360360208110156106a357600080fd5b81019080803590602001909291905050506125c3565b005b6106e7600480360360208110156106d157600080fd5b81019080803590602001909291905050506129cc565b005b610715600480360360208110156106ff57600080fd5b8101908080359060200190929190505050613255565b6040518082815260200191505060405180910390f35b61076d6004803603602081101561074157600080fd5b81019080803573ffffffffffffffffffffffffffffffffffffffff16906020019092919050505061326d565b604051808260ff1660ff16815260200191505060405180910390f35b6107ee60048036036101408110156107a057600080fd5b81019080806101400190600a806020026040519081016040528092919082600a60200280828437600081840152601f19601f820116905080830192505050505050919291929050505061328d565b005b6108266004803603604081101561080657600080fd5b8101908080359060200190929190803590602001909291905050506132f9565b005b61086a6004803603602081101561083e57600080fd5b81019080803573ffffffffffffffffffffffffffffffffffffffff169060200190929190505050613ac5565b005b6108cc6004803603608081101561088257600080fd5b810190808035906020019092919080359060200190929190803573ffffffffffffffffffffffffffffffffffffffff16906020019092919080359060200190929190505050613c16565b005b6108d6613f1d565b005b610904600480360360208110156108ee57600080fd5b81019080803590602001909291905050506140fb565b6040518082815260200191505060405180910390f35b610922614113565b6040518082815260200191505060405180910390f35b6109646004803603602081101561094e57600080fd5b8101908080359060200190929190505050614120565b005b61096e6143ad565b005b6109d06004803603608081101561098657600080fd5b8101908080359060200190929190803573ffffffffffffffffffffffffffffffffffffffff16906020019092919080359060200190929190803590602001909291905050506144c0565b005b6109dd6034546148a0565b15610ae45760008073ffffffffffffffffffffffffffffffffffffffff16603760009054906101000a900473ffffffffffffffffffffffffffffffffffffffff1673ffffffffffffffffffffffffffffffffffffffff161490508015610a885733603760006101000a81548173ffffffffffffffffffffffffffffffffffffffff021916908373ffffffffffffffffffffffffffffffffffffffff1602179055506034546038819055505b610a9182614ea7565b8015610ae2576000603760006101000a81548173ffffffffffffffffffffffffffffffffffffffff021916908373ffffffffffffffffffffffffffffffffffffffff16021790555060006038819055505b505b50565b600080603960008473ffffffffffffffffffffffffffffffffffffffff1673ffffffffffffffffffffffffffffffffffffffff16815260200190815260200160002060009054906101000a900460ff1660ff16119050919050565b610b4d6034546148a0565b15610c545760008073ffffffffffffffffffffffffffffffffffffffff16603760009054906101000a900473ffffffffffffffffffffffffffffffffffffffff1673ffffffffffffffffffffffffffffffffffffffff161490508015610bf85733603760006101000a81548173ffffffffffffffffffffffffffffffffffffffff021916908373ffffffffffffffffffffffffffffffffffffffff1602179055506034546038819055505b610c0182614f17565b8015610c52576000603760006101000a81548173ffffffffffffffffffffffffffffffffffffffff021916908373ffffffffffffffffffffffffffffffffffffffff16021790555060006038819055505b505b50565b60016004811115610c6457fe5b604e60009054906101000a900460ff166004811115610c7f57fe5b1480610cb0575060026004811115610c9357fe5b604e60009054906101000a900460ff166004811115610cae57fe5b145b610d22576040517f08c379a00000000000000000000000000000000000000000000000000000000081526004018080602001828103825260118152602001807f427269646765206973206163746976656400000000000000000000000000000081525060200191505060405180910390fd5b610d2d6034546148a0565b15610e335760008073ffffffffffffffffffffffffffffffffffffffff16603760009054906101000a900473ffffffffffffffffffffffffffffffffffffffff1673ffffffffffffffffffffffffffffffffffffffff161490508015610dd85733603760006101000a81548173ffffffffffffffffffffffffffffffffffffffff021916908373ffffffffffffffffffffffffffffffffffffffff1602179055506034546038819055505b610de0614f87565b8015610e31576000603760006101000a81548173ffffffffffffffffffffffffffffffffffffffff021916908373ffffffffffffffffffffffffffffffffffffffff16021790555060006038819055505b505b565b6000603680549050905090565b610e4d6034546148a0565b15610f535760008073ffffffffffffffffffffffffffffffffffffffff16603760009054906101000a900473ffffffffffffffffffffffffffffffffffffffff1673ffffffffffffffffffffffffffffffffffffffff161490508015610ef85733603760006101000a81548173ffffffffffffffffffffffffffffffffffffffff021916908373ffffffffffffffffffffffffffffffffffffffff1602179055506034546038819055505b610f0061500a565b8015610f51576000603760006101000a81548173ffffffffffffffffffffffffffffffffffffffff021916908373ffffffffffffffffffffffffffffffffffffffff16021790555060006038819055505b505b565b60358181548110610f6257fe5b906000526020600020016000915054906101000a900473ffffffffffffffffffffffffffffffffffffffff1681565b60006004811115610f9e57fe5b604e60009054906101000a900460ff166004811115610fb957fe5b1461102c576040517f08c379a000000000000000000000000000000000000000000000000000000000815260040180806020018281038252601b8152602001807f4272696467652069732073746f70706564206f7220706175736564000000000081525060200191505060405180910390fd5b806040600082815260200190815260200160002060040160009054906101000a900460ff16801561109657506002600681111561106557fe5b6040600083815260200190815260200160002060040160019054906101000a900460ff16600681111561109457fe5b145b611108576040517f08c379a00000000000000000000000000000000000000000000000000000000081526004018080602001828103825260178152602001807f4d657373616765206973206e6f7420617070726f76656400000000000000000081525060200191505060405180910390fd5b6042600201546050600061111b42615158565b61112442615185565b61112d426151b2565b6040516020018084815260200183815260200182815260200193505050506040516020818303038152906040528051906020012081526020019081526020016000205411156114cf576042600301546052600061118942615158565b61119242615185565b61119b426151b2565b60405160200180848152602001838152602001828152602001935050505060405160208183030381529060405280519060200120815260200190815260200160002060003373ffffffffffffffffffffffffffffffffffffffff1673ffffffffffffffffffffffffffffffffffffffff16815260200190815260200160002054111561134a5761122c6034546148a0565b1561133c5760008073ffffffffffffffffffffffffffffffffffffffff16603760009054906101000a900473ffffffffffffffffffffffffffffffffffffffff1673ffffffffffffffffffffffffffffffffffffffff1614905080156112d75733603760006101000a81548173ffffffffffffffffffffffffffffffffffffffff021916908373ffffffffffffffffffffffffffffffffffffffff1602179055506034546038819055505b6112e0836151df565b6112e9836152c7565b801561133a576000603760006101000a81548173ffffffffffffffffffffffffffffffffffffffff021916908373ffffffffffffffffffffffffffffffffffffffff16021790555060006038819055505b505b6113453361547a565b6114c2565b604f60003373ffffffffffffffffffffffffffffffffffffffff1673ffffffffffffffffffffffffffffffffffffffff16815260200190815260200160002060009054906101000a900460ff16156113a6576113a53361556e565b5b6113b16034546148a0565b156114c15760008073ffffffffffffffffffffffffffffffffffffffff16603760009054906101000a900473ffffffffffffffffffffffffffffffffffffffff1673ffffffffffffffffffffffffffffffffffffffff16149050801561145c5733603760006101000a81548173ffffffffffffffffffffffffffffffffffffffff021916908373ffffffffffffffffffffffffffffffffffffffff1602179055506034546038819055505b611465836151df565b61146e836152c7565b80156114bf576000603760006101000a81548173ffffffffffffffffffffffffffffffffffffffff021916908373ffffffffffffffffffffffffffffffffffffffff16021790555060006038819055505b505b5b6114ca615662565b61183a565b604e60019054906101000a900460ff16156114ed576114ec615700565b5b6042600301546052600061150042615158565b61150942615185565b611512426151b2565b60405160200180848152602001838152602001828152602001935050505060405160208183030381529060405280519060200120815260200190815260200160002060003373ffffffffffffffffffffffffffffffffffffffff1673ffffffffffffffffffffffffffffffffffffffff1681526020019081526020016000205411156116c1576115a36034546148a0565b156116b35760008073ffffffffffffffffffffffffffffffffffffffff16603760009054906101000a900473ffffffffffffffffffffffffffffffffffffffff1673ffffffffffffffffffffffffffffffffffffffff16149050801561164e5733603760006101000a81548173ffffffffffffffffffffffffffffffffffffffff021916908373ffffffffffffffffffffffffffffffffffffffff1602179055506034546038819055505b611657836151df565b611660836152c7565b80156116b1576000603760006101000a81548173ffffffffffffffffffffffffffffffffffffffff021916908373ffffffffffffffffffffffffffffffffffffffff16021790555060006038819055505b505b6116bc3361547a565b611839565b604f60003373ffffffffffffffffffffffffffffffffffffffff1673ffffffffffffffffffffffffffffffffffffffff16815260200190815260200160002060009054906101000a900460ff161561171d5761171c3361556e565b5b6117286034546148a0565b156118385760008073ffffffffffffffffffffffffffffffffffffffff16603760009054906101000a900473ffffffffffffffffffffffffffffffffffffffff1673ffffffffffffffffffffffffffffffffffffffff1614905080156117d35733603760006101000a81548173ffffffffffffffffffffffffffffffffffffffff021916908373ffffffffffffffffffffffffffffffffffffffff1602179055506034546038819055505b6117dc836151df565b6117e5836152c7565b8015611836576000603760006101000a81548173ffffffffffffffffffffffffffffffffffffffff021916908373ffffffffffffffffffffffffffffffffffffffff16021790555060006038819055505b505b5b5b5050565b60345481565b6000600481111561185157fe5b604e60009054906101000a900460ff16600481111561186c57fe5b146118df576040517f08c379a000000000000000000000000000000000000000000000000000000000815260040180806020018281038252601b8152602001807f4272696467652069732073746f70706564206f7220706175736564000000000081525060200191505060405180910390fd5b806040600082815260200190815260200160002060040160009054906101000a900460ff16801561194957506003600681111561191857fe5b6040600083815260200190815260200160002060040160019054906101000a900460ff16600681111561194757fe5b145b6119bb576040517f08c379a00000000000000000000000000000000000000000000000000000000081526004018080602001828103825260178152602001807f4d657373616765206973206e6f742063616e63656c656400000000000000000081525060200191505060405180910390fd5b6119c66034546148a0565b15611acd5760008073ffffffffffffffffffffffffffffffffffffffff16603760009054906101000a900473ffffffffffffffffffffffffffffffffffffffff1673ffffffffffffffffffffffffffffffffffffffff161490508015611a715733603760006101000a81548173ffffffffffffffffffffffffffffffffffffffff021916908373ffffffffffffffffffffffffffffffffffffffff1602179055506034546038819055505b611a7a8361579e565b8015611acb576000603760006101000a81548173ffffffffffffffffffffffffffffffffffffffff021916908373ffffffffffffffffffffffffffffffffffffffff16021790555060006038819055505b505b5050565b60368181548110611ade57fe5b906000526020600020016000915090505481565b603b6020528060005260406000206000915090505481565b611b156034546148a0565b15611c1e5760008073ffffffffffffffffffffffffffffffffffffffff16603760009054906101000a900473ffffffffffffffffffffffffffffffffffffffff1673ffffffffffffffffffffffffffffffffffffffff161490508015611bc05733603760006101000a81548173ffffffffffffffffffffffffffffffffffffffff021916908373ffffffffffffffffffffffffffffffffffffffff1602179055506034546038819055505b611bcb604283615886565b8015611c1c576000603760006101000a81548173ffffffffffffffffffffffffffffffffffffffff021916908373ffffffffffffffffffffffffffffffffffffffff16021790555060006038819055505b505b50565b60335481565b600080600080600080600080600080604260000154604260010154604260020154604260030154604260040154604260050154604260060154604260070154604260080154604260090154995099509950995099509950995099509950995090919293949596979899565b611c9d6034546148a0565b156122d85760008073ffffffffffffffffffffffffffffffffffffffff16603760009054906101000a900473ffffffffffffffffffffffffffffffffffffffff1673ffffffffffffffffffffffffffffffffffffffff161490508015611d485733603760006101000a81548173ffffffffffffffffffffffffffffffffffffffff021916908373ffffffffffffffffffffffffffffffffffffffff1602179055506034546038819055505b6000835111611da2576040517f08c379a000000000000000000000000000000000000000000000000000000000815260040180806020018281038252603681526020018061763d6036913960400191505060405180910390fd5b610100835110611dfd576040517f08c379a00000000000000000000000000000000000000000000000000000000081526004018080602001828103825260418152602001806175a66041913960600191505060405180910390fd5b60008211611e56576040517f08c379a00000000000000000000000000000000000000000000000000000000081526004018080602001828103825260428152602001806175646042913960600191505060405180910390fd5b8251821115611eb0576040517f08c379a00000000000000000000000000000000000000000000000000000000081526004018080602001828103825260588152602001806177b16058913960600191505060405180910390fd5b60008090505b603580549050811015611f56576039600060358381548110611ed457fe5b9060005260206000200160009054906101000a900473ffffffffffffffffffffffffffffffffffffffff1673ffffffffffffffffffffffffffffffffffffffff1673ffffffffffffffffffffffffffffffffffffffff16815260200190815260200160002060006101000a81549060ff02191690558080600101915050611eb6565b5060008090505b835181101561214557600073ffffffffffffffffffffffffffffffffffffffff16848281518110611f8a57fe5b602002602001015173ffffffffffffffffffffffffffffffffffffffff161415611fff576040517f08c379a000000000000000000000000000000000000000000000000000000000815260040180806020018281038252603b815260200180617529603b913960400191505060405180910390fd5b60006039600086848151811061201157fe5b602002602001015173ffffffffffffffffffffffffffffffffffffffff1673ffffffffffffffffffffffffffffffffffffffff16815260200190815260200160002060009054906101000a900460ff1660ff16146120ba576040517f08c379a000000000000000000000000000000000000000000000000000000000815260040180806020018281038252604181526020018061773a6041913960600191505060405180910390fd5b6120ce600182615b8b90919063ffffffff16565b603960008684815181106120de57fe5b602002602001015173ffffffffffffffffffffffffffffffffffffffff1673ffffffffffffffffffffffffffffffffffffffff16815260200190815260200160002060006101000a81548160ff021916908360ff1602179055508080600101915050611f5d565b507ffee90ddad0ded14a09192e8d2bb451f3276f6ec49082c076b8f0cbbc61fc482e6035603454858560405180806020018581526020018060200184815260200183810383528781815481526020019150805480156121f957602002820191906000526020600020905b8160009054906101000a900473ffffffffffffffffffffffffffffffffffffffff1673ffffffffffffffffffffffffffffffffffffffff16815260200190600101908083116121af575b5050838103825285818151815260200191508051906020019060200280838360005b8381101561223657808201518184015260208101905061221b565b50505050905001965050505050505060405180910390a18260359080519060200190612263929190617262565b508160348190555061227361500a565b60336000815480929190600101919050555080156122d6576000603760006101000a81548173ffffffffffffffffffffffffffffffffffffffff021916908373ffffffffffffffffffffffffffffffffffffffff16021790555060006038819055505b505b5050565b6122e7818251611c92565b50565b6122f56034546148a0565b156123fb5760008073ffffffffffffffffffffffffffffffffffffffff16603760009054906101000a900473ffffffffffffffffffffffffffffffffffffffff1673ffffffffffffffffffffffffffffffffffffffff1614905080156123a05733603760006101000a81548173ffffffffffffffffffffffffffffffffffffffff021916908373ffffffffffffffffffffffffffffffffffffffff1602179055506034546038819055505b6123a8615c13565b80156123f9576000603760006101000a81548173ffffffffffffffffffffffffffffffffffffffff021916908373ffffffffffffffffffffffffffffffffffffffff16021790555060006038819055505b505b565b600060019054906101000a900460ff168061241c575061241b615c96565b5b8061243357506000809054906101000a900460ff16155b612488576040517f08c379a000000000000000000000000000000000000000000000000000000000815260040180806020018281038252602e815260200180617673602e913960400191505060405180910390fd5b60008060019054906101000a900460ff1615905080156124d8576001600060016101000a81548160ff02191690831515021790555060016000806101000a81548160ff0219169083151502179055505b60353390806001815401808255809150509060018203906000526020600020016000909192909190916101000a81548173ffffffffffffffffffffffffffffffffffffffff021916908373ffffffffffffffffffffffffffffffffffffffff160217905550506001603960003373ffffffffffffffffffffffffffffffffffffffff1673ffffffffffffffffffffffffffffffffffffffff16815260200190815260200160002060006101000a81548160ff021916908360ff160217905550600160348190555080156125c05760008060016101000a81548160ff0219169083151502179055505b50565b6125cd60016148a0565b156129c95760008073ffffffffffffffffffffffffffffffffffffffff16603760009054906101000a900473ffffffffffffffffffffffffffffffffffffffff1673ffffffffffffffffffffffffffffffffffffffff1614905080156126775733603760006101000a81548173ffffffffffffffffffffffffffffffffffffffff021916908373ffffffffffffffffffffffffffffffffffffffff16021790555060016038819055505b61268033610ae7565b80156126e05750603580549050603960003373ffffffffffffffffffffffffffffffffffffffff1673ffffffffffffffffffffffffffffffffffffffff16815260200190815260200160002060009054906101000a900460ff1660ff1611155b612735576040517f08c379a000000000000000000000000000000000000000000000000000000000815260040180806020018281038252603681526020018061777b6036913960400191505060405180910390fd5b600061279a6001603960003373ffffffffffffffffffffffffffffffffffffffff1673ffffffffffffffffffffffffffffffffffffffff16815260200190815260200160002060009054906101000a900460ff1660ff16615ca790919063ffffffff16565b905060008160020a603b60008681526020019081526020016000205416141561280e576040517f08c379a000000000000000000000000000000000000000000000000000000000815260040180806020018281038252603081526020018061760d6030913960400191505060405180910390fd5b8060020a19603b600085815260200190815260200160002060008282541692505081905550600061285c6001603c600087815260200190815260200160002054615ca790919063ffffffff16565b905080603c6000868152602001908152602001600020819055507f3e0a7036018b5a2a3c5d0afa14e51998ef3cf98c38e4289a8897222b3acf75a7848260358054905033604051808581526020018481526020018381526020018273ffffffffffffffffffffffffffffffffffffffff1673ffffffffffffffffffffffffffffffffffffffff16815260200194505050505060405180910390a160008114156129745761290884615d30565b7f55e0dd61c29aac6fc36807628300ad3e3ec68655ae76ae4002f7fb101496fa9f8433604051808381526020018273ffffffffffffffffffffffffffffffffffffffff1673ffffffffffffffffffffffffffffffffffffffff1681526020019250505060405180910390a15b505080156129c7576000603760006101000a81548173ffffffffffffffffffffffffffffffffffffffff021916908373ffffffffffffffffffffffffffffffffffffffff16021790555060006038819055505b505b50565b806040600082815260200190815260200160002060040160009054906101000a900460ff168015612a36575060016006811115612a0557fe5b6040600083815260200190815260200160002060040160019054906101000a900460ff166006811115612a3457fe5b145b612aa8576040517f08c379a00000000000000000000000000000000000000000000000000000000081526004018080602001828103825260178152602001807f4d657373616765206973206e6f7420617070726f76656400000000000000000081525060200191505060405180910390fd5b60006004811115612ab557fe5b604e60009054906101000a900460ff166004811115612ad057fe5b14612b43576040517f08c379a000000000000000000000000000000000000000000000000000000000815260040180806020018281038252601b8152602001807f4272696467652069732073746f70706564206f7220706175736564000000000081525060200191505060405180910390fd5b60426002015460506000612b5642615158565b612b5f42615185565b612b68426151b2565b604051602001808481526020018381526020018281526020019350505050604051602081830303815290604052805190602001208152602001908152602001600020541115612ef85760426003015460526000612bc442615158565b612bcd42615185565b612bd6426151b2565b60405160200180848152602001838152602001828152602001935050505060405160208183030381529060405280519060200120815260200190815260200160002060003373ffffffffffffffffffffffffffffffffffffffff1673ffffffffffffffffffffffffffffffffffffffff168152602001908152602001600020541115612d7c57612c676034546148a0565b15612d6e5760008073ffffffffffffffffffffffffffffffffffffffff16603760009054906101000a900473ffffffffffffffffffffffffffffffffffffffff1673ffffffffffffffffffffffffffffffffffffffff161490508015612d125733603760006101000a81548173ffffffffffffffffffffffffffffffffffffffff021916908373ffffffffffffffffffffffffffffffffffffffff1602179055506034546038819055505b612d1b8361579e565b8015612d6c576000603760006101000a81548173ffffffffffffffffffffffffffffffffffffffff021916908373ffffffffffffffffffffffffffffffffffffffff16021790555060006038819055505b505b612d773361547a565b612eeb565b604f60003373ffffffffffffffffffffffffffffffffffffffff1673ffffffffffffffffffffffffffffffffffffffff16815260200190815260200160002060009054906101000a900460ff1615612dd857612dd73361556e565b5b612de36034546148a0565b15612eea5760008073ffffffffffffffffffffffffffffffffffffffff16603760009054906101000a900473ffffffffffffffffffffffffffffffffffffffff1673ffffffffffffffffffffffffffffffffffffffff161490508015612e8e5733603760006101000a81548173ffffffffffffffffffffffffffffffffffffffff021916908373ffffffffffffffffffffffffffffffffffffffff1602179055506034546038819055505b612e978361579e565b8015612ee8576000603760006101000a81548173ffffffffffffffffffffffffffffffffffffffff021916908373ffffffffffffffffffffffffffffffffffffffff16021790555060006038819055505b505b5b612ef3615662565b613251565b604e60019054906101000a900460ff1615612f1657612f15615700565b5b60426003015460526000612f2942615158565b612f3242615185565b612f3b426151b2565b60405160200180848152602001838152602001828152602001935050505060405160208183030381529060405280519060200120815260200190815260200160002060003373ffffffffffffffffffffffffffffffffffffffff1673ffffffffffffffffffffffffffffffffffffffff1681526020019081526020016000205411156130e157612fcc6034546148a0565b156130d35760008073ffffffffffffffffffffffffffffffffffffffff16603760009054906101000a900473ffffffffffffffffffffffffffffffffffffffff1673ffffffffffffffffffffffffffffffffffffffff1614905080156130775733603760006101000a81548173ffffffffffffffffffffffffffffffffffffffff021916908373ffffffffffffffffffffffffffffffffffffffff1602179055506034546038819055505b6130808361579e565b80156130d1576000603760006101000a81548173ffffffffffffffffffffffffffffffffffffffff021916908373ffffffffffffffffffffffffffffffffffffffff16021790555060006038819055505b505b6130dc3361547a565b613250565b604f60003373ffffffffffffffffffffffffffffffffffffffff1673ffffffffffffffffffffffffffffffffffffffff16815260200190815260200160002060009054906101000a900460ff161561313d5761313c3361556e565b5b6131486034546148a0565b1561324f5760008073ffffffffffffffffffffffffffffffffffffffff16603760009054906101000a900473ffffffffffffffffffffffffffffffffffffffff1673ffffffffffffffffffffffffffffffffffffffff1614905080156131f35733603760006101000a81548173ffffffffffffffffffffffffffffffffffffffff021916908373ffffffffffffffffffffffffffffffffffffffff1602179055506034546038819055505b6131fc8361579e565b801561324d576000603760006101000a81548173ffffffffffffffffffffffffffffffffffffffff021916908373ffffffffffffffffffffffffffffffffffffffff16021790555060006038819055505b505b5b5b5050565b603c6020528060005260406000206000915090505481565b60396020528060005260406000206000915054906101000a900460ff1681565b3361329781610ae7565b6132ec576040517f08c379a00000000000000000000000000000000000000000000000000000000081526004018080602001828103825260218152602001806177196021913960400191505060405180910390fd5b6132f582615efa565b5050565b6000600481111561330657fe5b604e60009054906101000a900460ff16600481111561332157fe5b14613394576040517f08c379a000000000000000000000000000000000000000000000000000000000815260040180806020018281038252601b8152602001807f4272696467652069732073746f70706564206f7220706175736564000000000081525060200191505060405180910390fd5b81604260010154811080156133ad575060426000015481105b613402576040517f08c379a00000000000000000000000000000000000000000000000000000000081526004018080602001828103825260288152602001806176a16028913960400191505060405180910390fd5b6042600901546051600061341542615158565b61341e42615185565b613427426151b2565b60405160200180848152602001838152602001828152602001935050505060405160208183030381529060405280519060200120815260200190815260200160002054111561378f576042600201546050600061348342615158565b61348c42615185565b613495426151b2565b60405160200180848152602001838152602001828152602001935050505060405160208183030381529060405280519060200120815260200190815260200160002054111561362757604260030154605260006134f142615158565b6134fa42615185565b613503426151b2565b60405160200180848152602001838152602001828152602001935050505060405160208183030381529060405280519060200120815260200190815260200160002060003373ffffffffffffffffffffffffffffffffffffffff1673ffffffffffffffffffffffffffffffffffffffff1681526020019081526020016000205411156135aa57613592836164d2565b61359c8383616566565b6135a53361547a565b61361a565b604f60003373ffffffffffffffffffffffffffffffffffffffff1673ffffffffffffffffffffffffffffffffffffffff16815260200190815260200160002060009054906101000a900460ff1615613606576136053361556e565b5b61360f836164d2565b6136198383616566565b5b613622615662565b613782565b604e60019054906101000a900460ff161561364557613644615700565b5b6042600301546052600061365842615158565b61366142615185565b61366a426151b2565b60405160200180848152602001838152602001828152602001935050505060405160208183030381529060405280519060200120815260200190815260200160002060003373ffffffffffffffffffffffffffffffffffffffff1673ffffffffffffffffffffffffffffffffffffffff168152602001908152602001600020541115613711576136f9836164d2565b6137038383616566565b61370c3361547a565b613781565b604f60003373ffffffffffffffffffffffffffffffffffffffff1673ffffffffffffffffffffffffffffffffffffffff16815260200190815260200160002060009054906101000a900460ff161561376d5761376c3361556e565b5b613776836164d2565b6137808383616566565b5b5b61378a615662565b613ac0565b604e60019054906101000a900460ff16156137ad576137ac615700565b5b604260020154605060006137c042615158565b6137c942615185565b6137d2426151b2565b604051602001808481526020018381526020018281526020019350505050604051602081830303815290604052805190602001208152602001908152602001600020541115613964576042600301546052600061382e42615158565b61383742615185565b613840426151b2565b60405160200180848152602001838152602001828152602001935050505060405160208183030381529060405280519060200120815260200190815260200160002060003373ffffffffffffffffffffffffffffffffffffffff1673ffffffffffffffffffffffffffffffffffffffff1681526020019081526020016000205411156138e7576138cf836164d2565b6138d98383616566565b6138e23361547a565b613957565b604f60003373ffffffffffffffffffffffffffffffffffffffff1673ffffffffffffffffffffffffffffffffffffffff16815260200190815260200160002060009054906101000a900460ff1615613943576139423361556e565b5b61394c836164d2565b6139568383616566565b5b61395f615662565b613abf565b604e60019054906101000a900460ff161561398257613981615700565b5b6042600301546052600061399542615158565b61399e42615185565b6139a7426151b2565b60405160200180848152602001838152602001828152602001935050505060405160208183030381529060405280519060200120815260200190815260200160002060003373ffffffffffffffffffffffffffffffffffffffff1673ffffffffffffffffffffffffffffffffffffffff168152602001908152602001600020541115613a4e57613a36836164d2565b613a408383616566565b613a493361547a565b613abe565b604f60003373ffffffffffffffffffffffffffffffffffffffff1673ffffffffffffffffffffffffffffffffffffffff16815260200190815260200160002060009054906101000a900460ff1615613aaa57613aa93361556e565b5b613ab3836164d2565b613abd8383616566565b5b5b5b505050565b600060019054906101000a900460ff1680613ae45750613ae3615c96565b5b80613afb57506000809054906101000a900460ff16155b613b50576040517f08c379a000000000000000000000000000000000000000000000000000000000815260040180806020018281038252602e815260200180617673602e913960400191505060405180910390fd5b60008060019054906101000a900460ff161590508015613ba0576001600060016101000a81548160ff02191690831515021790555060016000806101000a81548160ff0219169083151502179055505b613ba86123fd565b81603f60006101000a81548173ffffffffffffffffffffffffffffffffffffffff021916908373ffffffffffffffffffffffffffffffffffffffff160217905550613bf16169fa565b8015613c125760008060016101000a81548160ff0219169083151502179055505b5050565b60006004811115613c2357fe5b604e60009054906101000a900460ff166004811115613c3e57fe5b14613cb1576040517f08c379a000000000000000000000000000000000000000000000000000000000815260040180806020018281038252601b8152602001807f4272696467652069732073746f70706564206f7220706175736564000000000081525060200191505060405180910390fd5b8080603f60009054906101000a900473ffffffffffffffffffffffffffffffffffffffff1673ffffffffffffffffffffffffffffffffffffffff166370a08231306040518263ffffffff1660e01b8152600401808273ffffffffffffffffffffffffffffffffffffffff1673ffffffffffffffffffffffffffffffffffffffff16815260200191505060206040518083038186803b158015613d5257600080fd5b505afa158015613d66573d6000803e3d6000fd5b505050506040513d6020811015613d7c57600080fd5b81019080805190602001909291905050501015613e01576040517f08c379a00000000000000000000000000000000000000000000000000000000081526004018080602001828103825260158152602001807f42616c616e6365206973206e6f7420656e6f756768000000000000000000000081525060200191505060405180910390fd5b613e0c6034546148a0565b15613f165760008073ffffffffffffffffffffffffffffffffffffffff16603760009054906101000a900473ffffffffffffffffffffffffffffffffffffffff1673ffffffffffffffffffffffffffffffffffffffff161490508015613eb75733603760006101000a81548173ffffffffffffffffffffffffffffffffffffffff021916908373ffffffffffffffffffffffffffffffffffffffff1602179055506034546038819055505b613ec386868686616b69565b8015613f14576000603760006101000a81548173ffffffffffffffffffffffffffffffffffffffff021916908373ffffffffffffffffffffffffffffffffffffffff16021790555060006038819055505b505b5050505050565b60016004811115613f2a57fe5b604e60009054906101000a900460ff166004811115613f4557fe5b1480613f76575060026004811115613f5957fe5b604e60009054906101000a900460ff166004811115613f7457fe5b145b613fe8576040517f08c379a00000000000000000000000000000000000000000000000000000000081526004018080602001828103825260118152602001807f427269646765206973206163746976656400000000000000000000000000000081525060200191505060405180910390fd5b613ff36034546148a0565b156140f95760008073ffffffffffffffffffffffffffffffffffffffff16603760009054906101000a900473ffffffffffffffffffffffffffffffffffffffff1673ffffffffffffffffffffffffffffffffffffffff16149050801561409e5733603760006101000a81548173ffffffffffffffffffffffffffffffffffffffff021916908373ffffffffffffffffffffffffffffffffffffffff1602179055506034546038819055505b6140a6616df1565b80156140f7576000603760006101000a81548173ffffffffffffffffffffffffffffffffffffffff021916908373ffffffffffffffffffffffffffffffffffffffff16021790555060006038819055505b505b565b603a6020528060005260406000206000915090505481565b6000603580549050905090565b6000600481111561412d57fe5b604e60009054906101000a900460ff16600481111561414857fe5b146141bb576040517f08c379a000000000000000000000000000000000000000000000000000000000815260040180806020018281038252601b8152602001807f4272696467652069732073746f70706564206f7220706175736564000000000081525060200191505060405180910390fd5b806040600082815260200190815260200160002060040160009054906101000a900460ff1680156142255750600060068111156141f457fe5b6040600083815260200190815260200160002060040160019054906101000a900460ff16600681111561422357fe5b145b614297576040517f08c379a00000000000000000000000000000000000000000000000000000000081526004018080602001828103825260168152602001807f4d657373616765206973206e6f742070656e64696e670000000000000000000081525060200191505060405180910390fd5b6142a26034546148a0565b156143a95760008073ffffffffffffffffffffffffffffffffffffffff16603760009054906101000a900473ffffffffffffffffffffffffffffffffffffffff1673ffffffffffffffffffffffffffffffffffffffff16149050801561434d5733603760006101000a81548173ffffffffffffffffffffffffffffffffffffffff021916908373ffffffffffffffffffffffffffffffffffffffff1602179055506034546038819055505b61435683616e74565b80156143a7576000603760006101000a81548173ffffffffffffffffffffffffffffffffffffffff021916908373ffffffffffffffffffffffffffffffffffffffff16021790555060006038819055505b505b5050565b6143b86034546148a0565b156144be5760008073ffffffffffffffffffffffffffffffffffffffff16603760009054906101000a900473ffffffffffffffffffffffffffffffffffffffff1673ffffffffffffffffffffffffffffffffffffffff1614905080156144635733603760006101000a81548173ffffffffffffffffffffffffffffffffffffffff021916908373ffffffffffffffffffffffffffffffffffffffff1602179055506034546038819055505b61446b617015565b80156144bc576000603760006101000a81548173ffffffffffffffffffffffffffffffffffffffff021916908373ffffffffffffffffffffffffffffffffffffffff16021790555060006038819055505b505b565b600060048111156144cd57fe5b604e60009054906101000a900460ff1660048111156144e857fe5b1461455b576040517f08c379a000000000000000000000000000000000000000000000000000000000815260040180806020018281038252601b8152602001807f4272696467652069732073746f70706564206f7220706175736564000000000081525060200191505060405180910390fd5b838383836040600085815260200190815260200160002060040160009054906101000a900460ff1680156145f057508273ffffffffffffffffffffffffffffffffffffffff166040600086815260200190815260200160002060010160009054906101000a900473ffffffffffffffffffffffffffffffffffffffff1673ffffffffffffffffffffffffffffffffffffffff16145b80156146115750816040600086815260200190815260200160002060020154145b80156146325750806040600086815260200190815260200160002060030154145b6146a4576040517f08c379a00000000000000000000000000000000000000000000000000000000081526004018080602001828103825260118152602001807f44617461206973206e6f742076616c696400000000000000000000000000000081525060200191505060405180910390fd5b876040600082815260200190815260200160002060040160009054906101000a900460ff16801561470e5750600060068111156146dd57fe5b6040600083815260200190815260200160002060040160019054906101000a900460ff16600681111561470c57fe5b145b614780576040517f08c379a00000000000000000000000000000000000000000000000000000000081526004018080602001828103825260168152602001807f4d657373616765206973206e6f742070656e64696e670000000000000000000081525060200191505060405180910390fd5b61478b6034546148a0565b156148955760008073ffffffffffffffffffffffffffffffffffffffff16603760009054906101000a900473ffffffffffffffffffffffffffffffffffffffff1673ffffffffffffffffffffffffffffffffffffffff1614905080156148365733603760006101000a81548173ffffffffffffffffffffffffffffffffffffffff021916908373ffffffffffffffffffffffffffffffffffffffff1602179055506034546038819055505b6148428a8a8a8a617098565b8015614893576000603760006101000a81548173ffffffffffffffffffffffffffffffffffffffff021916908373ffffffffffffffffffffffffffffffffffffffff16021790555060006038819055505b505b505050505050505050565b60003373ffffffffffffffffffffffffffffffffffffffff16603760009054906101000a900473ffffffffffffffffffffffffffffffffffffffff1673ffffffffffffffffffffffffffffffffffffffff16141561495c57603854821115614953576040517f08c379a00000000000000000000000000000000000000000000000000000000081526004018080602001828103825260508152602001806176c96050913960600191505060405180910390fd5b60019050614ea2565b61496533610ae7565b80156149c55750603580549050603960003373ffffffffffffffffffffffffffffffffffffffff1673ffffffffffffffffffffffffffffffffffffffff16815260200190815260200160002060009054906101000a900460ff1660ff1611155b614a1a576040517f08c379a000000000000000000000000000000000000000000000000000000000815260040180806020018281038252603681526020018061777b6036913960400191505060405180910390fd5b6000614a7f6001603960003373ffffffffffffffffffffffffffffffffffffffff1673ffffffffffffffffffffffffffffffffffffffff16815260200190815260200160002060009054906101000a900460ff1660ff16615ca790919063ffffffff16565b9050600080366033546040516020018084848082843780830192505050828152602001935050505060405160208183030381529060405280519060200120905060008260020a603b6000848152602001908152602001600020541614614b30576040517f08c379a00000000000000000000000000000000000000000000000000000000081526004018080602001828103825260418152602001806174e86041913960600191505060405180910390fd5b614b3982617157565b614b8e576040517f08c379a00000000000000000000000000000000000000000000000000000000081526004018080602001828103825260458152602001806178096045913960600191505060405180910390fd5b8160020a603b6000838152602001908152602001600020600082825417925050819055506000614bdb6001603c600085815260200190815260200160002054615b8b90919063ffffffff16565b905080603c6000848152602001908152602001600020819055506001811415614d6257603680549050603a60008481526020019081526020016000208190555082603d600084815260200190815260200160002060006101000a81548160ff021916908360ff160217905550614c846001603e60008660ff1660ff16815260200190815260200160002060009054906101000a900460ff1660ff16615b8b90919063ffffffff16565b603e60008560ff1660ff16815260200190815260200160002060006101000a81548160ff021916908360ff16021790555060368290806001815401808255809150509060018203906000526020600020016000909192909190915055507f6bab0114f9524353d2d33e64edd3ebbd16e21edd57de2226ba76c310a7ce2265828660358054905033604051808581526020018481526020018381526020018273ffffffffffffffffffffffffffffffffffffffff1673ffffffffffffffffffffffffffffffffffffffff16815260200194505050505060405180910390a15b7f8dd9582c6577aea81973b5adeb6c135f6e18565d99578b7ba0c9377437ec022182828760358054905033604051808681526020018581526020018481526020018381526020018273ffffffffffffffffffffffffffffffffffffffff1673ffffffffffffffffffffffffffffffffffffffff1681526020019550505050505060405180910390a184603c6000848152602001908152602001600020541415614e9a57614e0e82615d30565b7f8a11c8ca99994c292318ce367f65bf6ff61d390bc814b3588496f6fbcc32807a828660358054905033604051808581526020018481526020018381526020018273ffffffffffffffffffffffffffffffffffffffff1673ffffffffffffffffffffffffffffffffffffffff16815260200194505050505060405180910390a160019350505050614ea2565b600093505050505b919050565b7f99cba779623d2d6034ccbc568d48c0ad0e6220290fdff1b116907d195be3acc4426040516020018082815260200191505060405160208183030381529060405280519060200120824260405180848152602001838152602001828152602001935050505060405180910390a150565b7ff994f1715e63484544feeb32a14d274d979ec6e707f21c22d022b481d16dbca9426040516020018082815260200191505060405160208183030381529060405280519060200120824260405180848152602001838152602001828152602001935050505060405180910390a150565b6000604e60006101000a81548160ff02191690836004811115614fa657fe5b02179055507f33be6618fd27c05c281e1a4a253663f70a6bcc66bc3fa58e8942c221d30d1ee44260405160200180828152602001915050604051602081830303815290604052805190602001206040518082815260200191505060405180910390a1565b60008090505b6036805490508110156150ee57603a60006036838154811061502e57fe5b9060005260206000200154815260200190815260200160002060009055603b60006036838154811061505c57fe5b9060005260206000200154815260200190815260200160002060009055603c60006036838154811061508a57fe5b9060005260206000200154815260200190815260200160002060009055603d6000603683815481106150b857fe5b9060005260206000200154815260200190815260200160002060006101000a81549060ff02191690558080600101915050615010565b5060006036816150fe91906172ec565b5060008090505b6035805490508160ff161015615155576000603e60008360ff1660ff16815260200190815260200160002060006101000a81548160ff021916908360ff1602179055508080600101915050615105565b50565b600080600061517262015180858161516c57fe5b0461718e565b8093508194508295505050505050919050565b600080600061519f62015180858161519957fe5b0461718e565b8093508195508294505050505050919050565b60008060006151cc6201518085816151c657fe5b0461718e565b8095508193508294505050505050919050565b600060406000838152602001908152602001600020905060048160040160016101000a81548160ff0219169083600681111561521757fe5b02179055507f34c72dd4d7994c6ab91b944b24792b166f61b1c919242445575e7ee1e398b8c3828260010160009054906101000a900473ffffffffffffffffffffffffffffffffffffffff1683600201548460030154604051808581526020018473ffffffffffffffffffffffffffffffffffffffff1673ffffffffffffffffffffffffffffffffffffffff16815260200183815260200182815260200194505050505060405180910390a15050565b600060406000838152602001908152602001600020905060006152e942615158565b6152f242615185565b6152fb426151b2565b60405160200180848152602001838152602001828152602001935050505060405160208183030381529060405280519060200120905061535b82600301546050600084815260200190815260200160002054615b8b90919063ffffffff16565b60506000838152602001908152602001600020819055506153fd82600301546052600084815260200190815260200160002060008560010160009054906101000a900473ffffffffffffffffffffffffffffffffffffffff1673ffffffffffffffffffffffffffffffffffffffff1673ffffffffffffffffffffffffffffffffffffffff16815260200190815260200160002054615b8b90919063ffffffff16565b6052600083815260200190815260200160002060008460010160009054906101000a900473ffffffffffffffffffffffffffffffffffffffff1673ffffffffffffffffffffffffffffffffffffffff1673ffffffffffffffffffffffffffffffffffffffff16815260200190815260200160002081905550505050565b7fd675c958749f3a7dab3db83963045f2e10c150fabd66358171e757b07afe28f04260405160200180828152602001915050604051602081830303815290604052805190602001203342604051808481526020018373ffffffffffffffffffffffffffffffffffffffff1673ffffffffffffffffffffffffffffffffffffffff168152602001828152602001935050505060405180910390a16001604f60008373ffffffffffffffffffffffffffffffffffffffff1673ffffffffffffffffffffffffffffffffffffffff16815260200190815260200160002060006101000a81548160ff02191690831515021790555050565b6000604f60008373ffffffffffffffffffffffffffffffffffffffff1673ffffffffffffffffffffffffffffffffffffffff16815260200190815260200160002060006101000a81548160ff0219169083151502179055507f7d7133a1df2edb24c642671dcdf0328bde56ef57f557e16e1dc33186812cc2df4260405160200180828152602001915050604051602081830303815290604052805190602001203342604051808481526020018373ffffffffffffffffffffffffffffffffffffffff1673ffffffffffffffffffffffffffffffffffffffff168152602001828152602001935050505060405180910390a150565b6001604e60016101000a81548160ff0219169083151502179055506003604e60006101000a81548160ff0219169083600481111561569c57fe5b02179055507f262821c04ba724a026fbfac44ae92777735ff4f06697cc494ab8a5fc1370d0a74260405160200180828152602001915050604051602081830303815290604052805190602001206040518082815260200191505060405180910390a1565b6000604e60016101000a81548160ff0219169083151502179055506000604e60006101000a81548160ff0219169083600481111561573a57fe5b02179055507fb4ae907723b568ff969be24af344383ba1ac1b910c727922bb3410fce2461c3e4260405160200180828152602001915050604051602081830303815290604052805190602001206040518082815260200191505060405180910390a1565b600060406000838152602001908152602001600020905060058160040160016101000a81548160ff021916908360068111156157d657fe5b02179055507f6a03da4b6d378939c25d75d2d3399321e5d12e10cc0d682c14946b2667dde1ad828260010160009054906101000a900473ffffffffffffffffffffffffffffffffffffffff1683600201548460030154604051808581526020018473ffffffffffffffffffffffffffffffffffffffff1673ffffffffffffffffffffffffffffffffffffffff16815260200183815260200182815260200194505050505060405180910390a15050565b61588e617318565b604c60008381526020019081526020016000206040518060c0016040529081600082015481526020016001820160009054906101000a900460ff1660028111156158d457fe5b60028111156158df57fe5b81526020016001820160019054906101000a900473ffffffffffffffffffffffffffffffffffffffff1673ffffffffffffffffffffffffffffffffffffffff1673ffffffffffffffffffffffffffffffffffffffff1681526020016002820154815260200160038201604051806101400160405290816000820154815260200160018201548152602001600282015481526020016003820154815260200160048201548152602001600582015481526020016006820154815260200160078201548152602001600882015481526020016009820154815250508152602001600d820160009054906101000a900460ff16151515158152505090506001816020019060028111156159eb57fe5b908160028111156159f857fe5b8152505080608001516000015183600001819055508060800151602001518360010181905550806080015160400151836002018190555080608001516060015183600301819055508060800151608001518360040181905550806080015160a001518360050181905550806080015160c001518360060181905550806080015160e0015183600701819055508060800151610100015183600801819055508060800151610120015183600901819055507f5c819725ea53655a3b898f3df59b66489761935454e9212ca1e5ebd759953d0b826040518082815260200191505060405180910390a17fb7d1498f0a9290728c3c64f6d2d896900c547557e12dc77889c09f11829623c483600001548460010154856002015486600301548760040154886005015489600601548a600701548b600801548c60090154604051808b81526020018a81526020018981526020018881526020018781526020018681526020018581526020018481526020018381526020018281526020019a505050505050505050505060405180910390a1505050565b600080828401905083811015615c09576040517f08c379a000000000000000000000000000000000000000000000000000000000815260040180806020018281038252601b8152602001807f536166654d6174683a206164646974696f6e206f766572666c6f77000000000081525060200191505060405180910390fd5b8091505092915050565b6001604e60006101000a81548160ff02191690836004811115615c3257fe5b02179055507fb044e022de848f1c18131c6e56750c57befe237ccb04ab93e82e3c7e5daef5994260405160200180828152602001915050604051602081830303815290604052805190602001206040518082815260200191505060405180910390a1565b600080303b90506000811491505090565b600082821115615d1f576040517f08c379a000000000000000000000000000000000000000000000000000000000815260040180806020018281038252601e8152602001807f536166654d6174683a207375627472616374696f6e206f766572666c6f77000081525060200191505060405180910390fd5b600082840390508091505092915050565b6000603a6000838152602001908152602001600020549050600160368054905003811015615dd3576036615d736001603680549050615ca790919063ffffffff16565b81548110615d7d57fe5b906000526020600020015460368281548110615d9557fe5b906000526020600020018190555080603a600060368481548110615db557fe5b90600052602060002001548152602001908152602001600020819055505b615dec6001603680549050615ca790919063ffffffff16565b603681615df991906172ec565b506000603d600084815260200190815260200160002060009054906101000a900460ff169050615e5c6001603e60008460ff1660ff16815260200190815260200160002060009054906101000a900460ff1660ff16615ca790919063ffffffff16565b603e60008360ff1660ff16815260200190815260200160002060006101000a81548160ff021916908360ff160217905550603b600084815260200190815260200160002060009055603c600084815260200190815260200160002060009055603a600084815260200190815260200160002060009055603d600084815260200190815260200160002060006101000a81549060ff0219169055505050565b6003604d6000615f0942615158565b615f1242615185565b615f1b426151b2565b604051602001808481526020018381526020018281526020019350505050604051602081830303815290604052805190602001208152602001908152602001600020541115615fd2576040517f08c379a00000000000000000000000000000000000000000000000000000000081526004018080602001828103825260178152602001807f70726f706f73616c206c696d697420657863656564656400000000000000000081525060200191505060405180910390fd5b615fda61737a565b816000600a8110615fe757fe5b6020020151816000018181525050816001600a811061600257fe5b6020020151816020018181525050816002600a811061601d57fe5b6020020151816040018181525050816003600a811061603857fe5b6020020151816060018181525050816004600a811061605357fe5b6020020151816080018181525050816005600a811061606e57fe5b60200201518160a0018181525050816006600a811061608957fe5b60200201518160c0018181525050816007600a81106160a457fe5b60200201518160e0018181525050816008600a81106160bf57fe5b602002015181610100018181525050816009600a81106160db57fe5b6020020151816101200181815250506000426040516020018082815260200191505060405160208183030381529060405280519060200120905061611d617318565b6040518060c001604052808381526020016000600281111561613b57fe5b81526020013373ffffffffffffffffffffffffffffffffffffffff16815260200142815260200184815260200160011515815250905080604c60008481526020019081526020016000206000820151816000015560208201518160010160006101000a81548160ff021916908360028111156161b357fe5b021790555060408201518160010160016101000a81548173ffffffffffffffffffffffffffffffffffffffff021916908373ffffffffffffffffffffffffffffffffffffffff16021790555060608201518160020155608082015181600301600082015181600001556020820151816001015560408201518160020155606082015181600301556080820151816004015560a0820151816005015560c0820151816006015560e0820151816007015561010082015181600801556101208201518160090155505060a082015181600d0160006101000a81548160ff0219169083151502179055509050506001604d60006162ac42615158565b6162b542615185565b6162be426151b2565b6040516020018084815260200183815260200182815260200193505050506040516020818303038152906040528051906020012081526020019081526020016000205401604d600061630f42615158565b61631842615185565b616321426151b2565b604051602001808481526020018381526020018281526020019350505050604051602081830303815290604052805190602001208152602001908152602001600020819055507f80852792f6a624eeab374731e35fdf30df940e343698db9d05ab33a9445274f58233866000600a811061639757fe5b6020020151876001600a81106163a957fe5b6020020151886002600a81106163bb57fe5b6020020151896003600a81106163cd57fe5b60200201518a6004600a81106163df57fe5b60200201518b6005600a81106163f157fe5b60200201518c6006600a811061640357fe5b60200201518d6007600a811061641557fe5b60200201518e6008600a811061642757fe5b60200201518f6009600a811061643957fe5b6020020151604051808d81526020018c73ffffffffffffffffffffffffffffffffffffffff1673ffffffffffffffffffffffffffffffffffffffff1681526020018b81526020018a81526020018981526020018881526020018781526020018681526020018581526020018481526020018381526020018281526020019c5050505050505050505050505060405180910390a150505050565b60006164dd42615158565b6164e642615185565b6164ef426151b2565b60405160200180848152602001838152602001828152602001935050505060405160208183030381529060405280519060200120905061654b826050600084815260200190815260200160002054615b8b90919063ffffffff16565b60506000838152602001908152602001600020819055505050565b8180603f60009054906101000a900473ffffffffffffffffffffffffffffffffffffffff1673ffffffffffffffffffffffffffffffffffffffff1663dd62ed3e33306040518363ffffffff1660e01b8152600401808373ffffffffffffffffffffffffffffffffffffffff1673ffffffffffffffffffffffffffffffffffffffff1681526020018273ffffffffffffffffffffffffffffffffffffffff1673ffffffffffffffffffffffffffffffffffffffff1681526020019250505060206040518083038186803b15801561663b57600080fd5b505afa15801561664f573d6000803e3d6000fd5b505050506040513d602081101561666557600080fd5b810190808051906020019092919050505010156166cd576040517f08c379a00000000000000000000000000000000000000000000000000000000081526004018080602001828103825260268152602001806175e76026913960400191505060405180910390fd5b603f60009054906101000a900473ffffffffffffffffffffffffffffffffffffffff1673ffffffffffffffffffffffffffffffffffffffff166323b872dd3330866040518463ffffffff1660e01b8152600401808473ffffffffffffffffffffffffffffffffffffffff1673ffffffffffffffffffffffffffffffffffffffff1681526020018373ffffffffffffffffffffffffffffffffffffffff1673ffffffffffffffffffffffffffffffffffffffff1681526020018281526020019350505050602060405180830381600087803b1580156167aa57600080fd5b505af11580156167be573d6000803e3d6000fd5b505050506040513d60208110156167d457600080fd5b8101908080519060200190929190505050506167ee6173cd565b6040518060c0016040528042604051602001808281526020019150506040516020818303038152906040528051906020012081526020013373ffffffffffffffffffffffffffffffffffffffff1681526020018481526020018581526020016001151581526020016000600681111561686357fe5b8152509050806040600042604051602001808281526020019150506040516020818303038152906040528051906020012081526020019081526020016000206000820151816000015560208201518160010160006101000a81548173ffffffffffffffffffffffffffffffffffffffff021916908373ffffffffffffffffffffffffffffffffffffffff160217905550604082015181600201556060820151816003015560808201518160040160006101000a81548160ff02191690831515021790555060a08201518160040160016101000a81548160ff0219169083600681111561694b57fe5b02179055509050507ffb65d1544ea97e32c62baf55f738f7bb44671998c927415ef03e52d2477e292f426040516020018082815260200191505060405160208183030381529060405280519060200120338587604051808581526020018473ffffffffffffffffffffffffffffffffffffffff1673ffffffffffffffffffffffffffffffffffffffff16815260200183815260200182815260200194505050505060405180910390a150505050565b678ac7230489e8000060426000018190555068056bc75e2d63100000604260010181905550680ad78ebc5ac62000006042600201819055506802b5e3af16b18800006042600301819055506815af1d78b58c400000604260040181905550678ac7230489e8000060426005018190555068056bc75e2d63100000604260060181905550680ad78ebc5ac62000006042600701819055506802b5e3af16b18800006042600801819055506815af1d78b58c4000006042600901819055507fb7d1498f0a9290728c3c64f6d2d896900c547557e12dc77889c09f11829623c4604260000154604260010154604260020154604260030154604260040154604260050154604260060154604260070154604260080154604260090154604051808b81526020018a81526020018981526020018881526020018781526020018681526020018581526020018481526020018381526020018281526020019a505050505050505050505060405180910390a1565b603f60009054906101000a900473ffffffffffffffffffffffffffffffffffffffff1673ffffffffffffffffffffffffffffffffffffffff1663a9059cbb83836040518363ffffffff1660e01b8152600401808373ffffffffffffffffffffffffffffffffffffffff1673ffffffffffffffffffffffffffffffffffffffff16815260200182815260200192505050602060405180830381600087803b158015616c1257600080fd5b505af1158015616c26573d6000803e3d6000fd5b505050506040513d6020811015616c3c57600080fd5b810190808051906020019092919050505050616c566173cd565b6040518060c001604052808681526020013373ffffffffffffffffffffffffffffffffffffffff16815260200185815260200183815260200160011515815260200160016006811115616ca557fe5b815250905080604060008781526020019081526020016000206000820151816000015560208201518160010160006101000a81548173ffffffffffffffffffffffffffffffffffffffff021916908373ffffffffffffffffffffffffffffffffffffffff160217905550604082015181600201556060820151816003015560808201518160040160006101000a81548160ff02191690831515021790555060a08201518160040160016101000a81548160ff02191690836006811115616d6757fe5b02179055509050507f723e8dbbbfe39c15503352c2c281cd830fe1b408cc8c9ed0de9e7a2ff4500c4385848685604051808581526020018473ffffffffffffffffffffffffffffffffffffffff1673ffffffffffffffffffffffffffffffffffffffff16815260200183815260200182815260200194505050505060405180910390a15050505050565b6000604e60006101000a81548160ff02191690836004811115616e1057fe5b02179055507ff7c186ab8568815e49328072fc72caaf8679022ef8448454664698f24f0da9934260405160200180828152602001915050604051602081830303815290604052805190602001206040518082815260200191505060405180910390a1565b600060406000838152602001908152602001600020905060038160040160016101000a81548160ff02191690836006811115616eac57fe5b0217905550603f60009054906101000a900473ffffffffffffffffffffffffffffffffffffffff1673ffffffffffffffffffffffffffffffffffffffff1663a9059cbb3383600301546040518363ffffffff1660e01b8152600401808373ffffffffffffffffffffffffffffffffffffffff1673ffffffffffffffffffffffffffffffffffffffff16815260200182815260200192505050602060405180830381600087803b158015616f5e57600080fd5b505af1158015616f72573d6000803e3d6000fd5b505050506040513d6020811015616f8857600080fd5b8101908080519060200190929190505050507f2d83618e570f4b4e76854856b7bb06ee455ae36f3c6cc65984ab095389aad5d282338360030154604051808481526020018373ffffffffffffffffffffffffffffffffffffffff1673ffffffffffffffffffffffffffffffffffffffff168152602001828152602001935050505060405180910390a15050565b6002604e60006101000a81548160ff0219169083600481111561703457fe5b02179055507f9f4c1a26f1b12e1d6784e02920ad4bf9bafe439704578ce21e919e45c99eaef34260405160200180828152602001915050604051602081830303815290604052805190602001206040518082815260200191505060405180910390a1565b600060406000868152602001908152602001600020905060028160040160016101000a81548160ff021916908360068111156170d057fe5b02179055507f09e319e20ad99cf447dda7fc4281e91e521dbc630571067ecc0cf4c5eaa3d2f485858585604051808581526020018473ffffffffffffffffffffffffffffffffffffffff1673ffffffffffffffffffffffffffffffffffffffff16815260200183815260200182815260200194505050505060405180910390a15050505050565b60006003603e60008460ff1660ff16815260200190815260200160002060009054906101000a900460ff1660ff1611159050919050565b600080600080849050600062253d8c62010bd98301019050600062023ab182600402816171b757fe5b059050600460038262023ab10201816171cc57fe5b0582039150600062164b0960018401610fa002816171e657fe5b059050601f6004826105b502816171f957fe5b058403019250600061098f846050028161720f57fe5b059050600060508261098f028161722257fe5b0585039050600b828161723157fe5b05945084600c0260028301039150848360318603606402010192508298508197508096505050505050509193909250565b8280548282559060005260206000209081019282156172db579160200282015b828111156172da5782518260006101000a81548173ffffffffffffffffffffffffffffffffffffffff021916908373ffffffffffffffffffffffffffffffffffffffff16021790555091602001919060010190617282565b5b5090506172e8919061742c565b5090565b81548183558181111561731357818360005260206000209182019101617312919061746f565b5b505050565b6040518060c00160405280600080191681526020016000600281111561733a57fe5b8152602001600073ffffffffffffffffffffffffffffffffffffffff1681526020016000815260200161736b617494565b81526020016000151581525090565b604051806101400160405280600081526020016000815260200160008152602001600081526020016000815260200160008152602001600081526020016000815260200160008152602001600081525090565b6040518060c0016040528060008019168152602001600073ffffffffffffffffffffffffffffffffffffffff16815260200160008019168152602001600081526020016000151581526020016000600681111561742657fe5b81525090565b61746c91905b8082111561746857600081816101000a81549073ffffffffffffffffffffffffffffffffffffffff021916905550600101617432565b5090565b90565b61749191905b8082111561748d576000816000905550600101617475565b5090565b90565b60405180610140016040528060008152602001600081526020016000815260200160008152602001600081526020016000815260200160008152602001600081526020016000815260200160008152509056fe636865636b486f774d616e7976616c696461746f72733a2056616c696461746f7220616c726561647920766f74656420666f7220746865206f7065726174696f6e6368616e676556616c696461746f727357697468486f774d616e793a2076616c696461746f727320617272617920636f6e7461696e73207a65726f6368616e676556616c696461746f727357697468486f774d616e793a206e6577486f774d616e7956616c696461746f727344656369646520657175616c20746f20306368616e676556616c696461746f727357697468486f774d616e793a2076616c696461746f727320636f756e742069732067726561746572207468656e20323535636f6e7472616374206973206e6f7420616c6c6f77656420746f207468697320616d6f756e7463616e63656c50656e64696e673a206f7065726174696f6e206e6f7420666f756e6420666f72207468697320757365726368616e676556616c696461746f727357697468486f774d616e793a2076616c696461746f727320617272617920697320656d707479436f6e747261637420696e7374616e63652068617320616c7265616479206265656e20696e697469616c697a65645472616e73616374696f6e2076616c756520697320746f6f2020736d616c6c206f72206c61726765636865636b486f774d616e7976616c696461746f72733a206e65737465642076616c696461746f7273206d6f64696669657220636865636b2072657175697265206d6f72652056616c696461746f727361646472657373206973206e6f7420696e2056616c696461746f722061727261796368616e676556616c696461746f727357697468486f774d616e793a2076616c696461746f727320617272617920636f6e7461696e73206475706c696361746573636865636b486f774d616e7976616c696461746f72733a206d73672e73656e646572206973206e6f7420616e2056616c696461746f726368616e676556616c696461746f727357697468486f774d616e793a206e6577486f774d616e7956616c696461746f7273446563696465206578636565647320746865206e756d626572206f662056616c696461746f7273636865636b486f774d616e7976616c696461746f72733a206f7065726174696f6e206c696d6974206973207265616368656420666f7220746869732056616c696461746f72a265627a7a723158207b370ea62986946c64801544f38e6990f246639c4856c7dd66309794e420b0e964736f6c634300050c0032",
  "source": "pragma solidity ^0.5.12;\n\nimport \"@openzeppelin/contracts-ethereum-package/contracts/token/ERC20/SafeERC20.sol\";\nimport \"@openzeppelin/upgrades/contracts/Initializable.sol\";\n\n//Beneficieries (validators) template\nimport \"../helpers/ValidatorsOperations.sol\";\nimport \"../third-party/BokkyPooBahsDateTimeLibrary.sol\";\nimport \"../bridge/Status.sol\";\nimport \"../bridge/Transfers.sol\";\nimport \"../bridge/Dao.sol\";\n\ncontract Bridge is Initializable, ValidatorsOperations, Transfers, Dao, Status {\n\n    using BokkyPooBahsDateTimeLibrary for uint;\n\n\n    /* volume transactions */\n\n    mapping(bytes32 => uint) currentVolumeByDate;\n\n    /* pending volume */\n    mapping(bytes32 => uint) currentVPendingVolumeByDate;\n\n    mapping(bytes32 => mapping (address => uint)) currentDayVolumeForAddress;\n    \n    /**\n    * @notice Constructor.\n    * @param _token  Address of DAI token\n    */\n    function initialize(IERC20 _token) public \n    initializer {\n        ValidatorsOperations.initialize();\n        token = _token;\n        init();\n    } \n\n    // MODIFIERS\n    /**\n     * @dev Allows to perform method by existing Validator\n    */\n    modifier onlyExistingValidator(address _Validator) {\n        require(isExistValidator(_Validator), \"address is not in Validator array\");\n         _;\n    }\n    \n    modifier checkMinMaxTransactionValue(uint value) {\n        require(value < limits.maxHostTransactionValue && value < limits.minHostTransactionValue, \"Transaction value is too  small or large\");\n        _;\n    }\n\n    modifier checkDayVolumeTransaction() {\n        if (currentVolumeByDate[keccak256(abi.encodePacked(now.getYear(), now.getMonth(), now.getDay()))] > limits.dayHostMaxLimit) {\n            _;\n            _pauseBridgeByVolume();\n        } else {\n            if (pauseBridgeByVolume) {\n                _resumeBridgeByVolume();\n            }\n            _;\n        }\n    }\n\n    modifier checkPendingDayVolumeTransaction() {\n        if (currentVPendingVolumeByDate[keccak256(abi.encodePacked(now.getYear(), now.getMonth(), now.getDay()))] > limits.maxGuestPendingTransactionLimit) {\n            _;\n            _pauseBridgeByVolume();\n        } else {\n            if (pauseBridgeByVolume) {\n                _resumeBridgeByVolume();\n            }\n            _;\n        }\n    }\n\n    modifier checkDayVolumeTransactionForAddress() {\n        if (currentDayVolumeForAddress[keccak256(abi.encodePacked(now.getYear(), now.getMonth(), now.getDay()))][msg.sender] > limits.dayHostMaxLimitForOneAddress) {\n             _;\n             _pausedByBridgeVolumeForAddress(msg.sender);\n        } else {\n            if (pauseAccountByVolume[msg.sender]) {\n                _resumedByBridgeVolumeForAddress(msg.sender);\n            }\n            _;\n        }\n    }\n\n    /*\n        public functions\n    */\n    function setTransfer(uint amount, bytes32 guestAddress) public \n    activeBridgeStatus\n    checkMinMaxTransactionValue(amount)\n    checkPendingDayVolumeTransaction()\n    checkDayVolumeTransaction()\n    checkDayVolumeTransactionForAddress() {\n       _addPendingVolumeByDate(amount);\n       _setTransfer(amount, guestAddress);\n    }\n\n    /*\n        revert function\n    */\n    function revertTransfer(bytes32 messageID) public \n    activeBridgeStatus\n    pendingMessage(messageID)  \n    onlyManyValidators {\n        _revertTransfer(messageID);\n    }\n\n    /*\n    * Approve finance by message ID when transfer pending\n    */\n    function approveTransfer(bytes32 messageID, address spender, bytes32 guestAddress, uint availableAmount) public \n    activeBridgeStatus \n    validMessage(messageID, spender, guestAddress, availableAmount) \n    pendingMessage(messageID) \n    onlyManyValidators {\n       _approveTransfer(messageID, spender, guestAddress, availableAmount);\n    }\n\n    /*\n    * Confirm tranfer by message ID when transfer pending\n    */\n    function confirmTransfer(bytes32 messageID) public \n    activeBridgeStatus\n    approvedMessage(messageID)  \n    checkDayVolumeTransaction()\n    checkDayVolumeTransactionForAddress()\n    onlyManyValidators {\n        _confirmTransfer(messageID);\n        _addVolumeByMessageID(messageID);\n    }\n\n    /*\n    * Withdraw tranfer by message ID after approve from guest\n    */\n    function withdrawTransfer(bytes32 messageID, bytes32  sender, address recipient, uint availableAmount)  public \n    activeBridgeStatus\n    checkBalance(availableAmount)\n    onlyManyValidators {\n        _withdrawTransfer(messageID, sender, recipient, availableAmount);\n    }\n\n    /*\n    * Confirm Withdraw tranfer by message ID after approve from guest\n    */\n    function confirmWithdrawTransfer(bytes32 messageID)  public withdrawMessage(messageID) \n    activeBridgeStatus \n    checkDayVolumeTransaction()\n    checkDayVolumeTransactionForAddress()\n    onlyManyValidators {\n        _confirmWithdrawTransfer(messageID);\n    }\n\n    /*\n    * Confirm Withdraw cancel by message ID after approve from guest\n    */\n    function confirmCancelTransfer(bytes32 messageID)  public \n    activeBridgeStatus \n    cancelMessage(messageID)  \n    onlyManyValidators {\n       _confirmWithdrawTransfer(messageID);\n    }\n\n    /* Bridge Status Function */\n    function startBridge() public \n    stoppedOrPausedBridgeStatus \n    onlyManyValidators {\n        _startBridge();\n    }\n\n    function resumeBridge() public \n    stoppedOrPausedBridgeStatus \n    onlyManyValidators {\n        _resumeBridge();\n    }\n\n    function stopBridge() public \n    onlyManyValidators {\n        _stopBridge();\n    }\n\n    function pauseBridge() public \n    onlyManyValidators {\n        _pauseBridge();\n    }\n\n    function setPausedStatusForGuestAddress(bytes32 sender) \n    onlyManyValidators\n    public {\n       _setPausedStatusForGuestAddress(sender);\n    }\n\n    function setResumedStatusForGuestAddress(bytes32 sender) \n    onlyManyValidators\n    public {\n       _setResumedStatusForGuestAddress(sender);\n    }\n\n    /*\n     DAO Parameters\n    */\n    function createProposal(uint[10] memory parameters) \n    onlyExistingValidator(msg.sender)\n    public  {\n        _createProposal(parameters);    \n    }\n\n    function _approvedNewProposal(bytes32 proposalID)\n    onlyManyValidators\n    public\n    {\n        _approvedNewProposal(limits, proposalID);\n    }\n\n    /*\n     * Internal functions\n    */\n    function _addVolumeByMessageID(bytes32 messageID) internal {\n        Message storage message = messages[messageID];\n        bytes32 dateID = keccak256(abi.encodePacked(now.getYear(), now.getMonth(), now.getDay()));\n        currentVolumeByDate[dateID] = currentVolumeByDate[dateID].add(message.availableAmount);\n        currentDayVolumeForAddress[dateID][message.spender] = currentDayVolumeForAddress[dateID][message.spender].add(message.availableAmount);\n    }  \n\n    function _addPendingVolumeByDate(uint256 availableAmount) internal {\n        bytes32 dateID = keccak256(abi.encodePacked(now.getYear(), now.getMonth(), now.getDay()));\n        currentVolumeByDate[dateID] = currentVolumeByDate[dateID].add(availableAmount);\n    }\n\n}",
  "sourcePath": "/app/contracts/main/Bridge.sol",
  "compiler": {
    "name": "solc",
    "version": "0.5.12+commit.7709ece9.Emscripten.clang"
  },
  "schemaVersion": "3.0.16",
  "updatedAt": "2019-11-19T12:57:28.304Z",
  "devdoc": {
    "methods": {
      "cancelAllPending()": {
        "details": "Allows validators to change their mind by cancelling all operations"
      },
      "cancelPending(bytes32)": {
        "details": "Allows validators to change their mind by cancelling votesMaskByOperation operations",
        "params": {
          "operation": "defines which operation to delete"
        }
      },
      "changeValidators(address[])": {
        "details": "Allows validators to change validatorsship",
        "params": {
          "newValidators": "defines array of addresses of new validators"
        }
      },
      "changeValidatorsWithHowMany(address[],uint256)": {
        "details": "Allows validators to change ValidatorShip",
        "params": {
          "newHowManyValidatorsDecide": "defines how many validators can decide",
          "newValidators": "defines array of addresses of new validators"
        }
      },
      "initialize(address)": {
        "params": {
          "_token": "Address of DAI token"
        }
      }
    }
  },
  "userdoc": {
    "methods": {
      "initialize(address)": {
        "notice": "Constructor."
      }
    }
  }
}