{
  "contractName": "Dao",
  "abi": [
    {
      "anonymous": false,
      "inputs": [
        {
          "indexed": true,
          "internalType": "address",
          "name": "previousOwner",
          "type": "address"
        },
        {
          "indexed": true,
          "internalType": "address",
          "name": "newOwner",
          "type": "address"
        }
      ],
      "name": "OwnershipTransferred",
      "type": "event"
    },
    {
      "anonymous": false,
      "inputs": [
        {
          "indexed": false,
          "internalType": "bytes32",
          "name": "proposalID",
          "type": "bytes32"
        }
      ],
      "name": "ProposalApproved",
      "type": "event"
    },
    {
      "anonymous": false,
      "inputs": [
        {
          "indexed": false,
          "internalType": "bytes32",
          "name": "proposalID",
          "type": "bytes32"
        },
        {
          "indexed": false,
          "internalType": "address",
          "name": "sender",
          "type": "address"
        },
        {
          "indexed": false,
          "internalType": "uint256",
          "name": "minHostTransactionValue",
          "type": "uint256"
        },
        {
          "indexed": false,
          "internalType": "uint256",
          "name": "maxHostTransactionValue",
          "type": "uint256"
        },
        {
          "indexed": false,
          "internalType": "uint256",
          "name": "dayHostMaxLimit",
          "type": "uint256"
        },
        {
          "indexed": false,
          "internalType": "uint256",
          "name": "dayHostMaxLimitForOneAddress",
          "type": "uint256"
        },
        {
          "indexed": false,
          "internalType": "uint256",
          "name": "maxHostPendingTransactionLimit",
          "type": "uint256"
        },
        {
          "indexed": false,
          "internalType": "uint256",
          "name": "minGuestTransactionValue",
          "type": "uint256"
        },
        {
          "indexed": false,
          "internalType": "uint256",
          "name": "maxGuestTransactionValue",
          "type": "uint256"
        },
        {
          "indexed": false,
          "internalType": "uint256",
          "name": "dayGuestMaxLimit",
          "type": "uint256"
        },
        {
          "indexed": false,
          "internalType": "uint256",
          "name": "dayGuestMaxLimitForOneAddress",
          "type": "uint256"
        },
        {
          "indexed": false,
          "internalType": "uint256",
          "name": "maxGuestPendingTransactionLimit",
          "type": "uint256"
        }
      ],
      "name": "ProposalCreated",
      "type": "event"
    },
    {
      "constant": false,
      "inputs": [
        {
          "internalType": "address",
          "name": "sender",
          "type": "address"
        }
      ],
      "name": "initialize",
      "outputs": [],
      "payable": false,
      "stateMutability": "nonpayable",
      "type": "function"
    },
    {
      "constant": true,
      "inputs": [],
      "name": "isOwner",
      "outputs": [
        {
          "internalType": "bool",
          "name": "",
          "type": "bool"
        }
      ],
      "payable": false,
      "stateMutability": "view",
      "type": "function"
    },
    {
      "constant": true,
      "inputs": [],
      "name": "owner",
      "outputs": [
        {
          "internalType": "address",
          "name": "",
          "type": "address"
        }
      ],
      "payable": false,
      "stateMutability": "view",
      "type": "function"
    },
    {
      "constant": false,
      "inputs": [],
      "name": "renounceOwnership",
      "outputs": [],
      "payable": false,
      "stateMutability": "nonpayable",
      "type": "function"
    },
    {
      "constant": false,
      "inputs": [
        {
          "internalType": "address",
          "name": "newOwner",
          "type": "address"
        }
      ],
      "name": "transferOwnership",
      "outputs": [],
      "payable": false,
      "stateMutability": "nonpayable",
      "type": "function"
    },
    {
      "constant": false,
      "inputs": [
        {
          "internalType": "uint256[10]",
          "name": "parameters",
          "type": "uint256[10]"
        }
      ],
      "name": "createProposal",
      "outputs": [],
      "payable": false,
      "stateMutability": "nonpayable",
      "type": "function"
    },
    {
      "constant": false,
      "inputs": [
        {
          "internalType": "bytes32",
          "name": "proposalID",
          "type": "bytes32"
        }
      ],
      "name": "approvedNewProposal",
      "outputs": [],
      "payable": false,
      "stateMutability": "nonpayable",
      "type": "function"
    },
    {
      "constant": false,
      "inputs": [
        {
          "internalType": "contract ILimits",
          "name": "_limits",
          "type": "address"
        }
      ],
      "name": "init",
      "outputs": [],
      "payable": false,
      "stateMutability": "nonpayable",
      "type": "function"
    },
    {
      "constant": true,
      "inputs": [],
      "name": "_getFirstMessageIDByAddress",
      "outputs": [
        {
          "internalType": "bytes32",
          "name": "",
          "type": "bytes32"
        }
      ],
      "payable": false,
      "stateMutability": "view",
      "type": "function"
    }
  ],
  "bytecode": "0x6080604052610d9f806100136000396000f3fe608060405234801561001057600080fd5b50600436106100935760003560e01c80638da5cb5b116100665780638da5cb5b146100ff5780638f32d59b14610123578063ae6f0d351461013f578063c4d66de81461015c578063f2fde38b1461018257610093565b806306c01222146100985780630b414935146100b257806319ab453c146100d1578063715018a6146100f7575b600080fd5b6100a06101a8565b60408051918252519081900360200190f35b6100cf600480360360208110156100c857600080fd5b50356101c9565b005b6100cf600480360360208110156100e757600080fd5b50356001600160a01b03166103ea565b6100cf6104b1565b610107610542565b604080516001600160a01b039092168252519081900360200190f35b61012b610551565b604080519115158252519081900360200190f35b6100cf600480360361014081101561015657600080fd5b50610577565b6100cf6004803603602081101561017257600080fd5b50356001600160a01b0316610969565b6100cf6004803603602081101561019857600080fd5b50356001600160a01b0316610a5a565b600060686000815481106101b857fe5b906000526020600020015490505b90565b6101d1610551565b610210576040805162461bcd60e51b81526020600482018190526024820152600080516020610d1d833981519152604482015290519081900360640190fd5b610218610c42565b600082815260676020908152604091829020825160c08101909352805483526001810154909183019060ff16600281111561024f57fe5b600281111561025a57fe5b8152600182015461010090046001600160a01b0316602082015260028201546040808301919091528051610140810191829052606090920191906003840190600a9082845b81548152602001906001019080831161029f575050509183525050600d919091015460ff16151560209182015260018282015260665460808084015180519381015160408083015160608401519484015160a085015160c086015160e08701516101008801516101209098015186516343524d3160e01b8152600481019c909c5260248c019790975260448b019490945260648a0197909752608489019190915260a488015260c487019490945260e4860193909352610104850191909152610124840152519293506001600160a01b0316916343524d31916101448082019260009290919082900301818387803b15801561039a57600080fd5b505af11580156103ae573d6000803e3d6000fd5b50506040805185815290517f5c819725ea53655a3b898f3df59b66489761935454e9212ca1e5ebd759953d0b9350908190036020019150a15050565b600054610100900460ff16806104035750610403610aad565b80610411575060005460ff16155b61044c5760405162461bcd60e51b815260040180806020018281038252602e815260200180610d3d602e913960400191505060405180910390fd5b600054610100900460ff16158015610477576000805460ff1961ff0019909116610100171660011790555b61048033610969565b606680546001600160a01b0319166001600160a01b03841617905580156104ad576000805461ff00191690555b5050565b6104b9610551565b6104f8576040805162461bcd60e51b81526020600482018190526024820152600080516020610d1d833981519152604482015290519081900360640190fd5b6033546040516000916001600160a01b0316907f8be0079c531659141344cd1fd0a4f28419497f9722a3daafe3b4186f6b6457e0908390a3603380546001600160a01b0319169055565b6033546001600160a01b031690565b6033546000906001600160a01b0316610568610ab3565b6001600160a01b031614905090565b60036069600061058642610ab7565b61058f42610ad5565b61059842610af0565b60405160200180848152602001838152602001828152602001935050505060405160208183030381529060405280519060200120815260200190815260200160002054111561062e576040805162461bcd60e51b815260206004820152601760248201527f70726f706f73616c206c696d6974206578636565646564000000000000000000604482015290519081900360640190fd5b610636610551565b610675576040805162461bcd60e51b81526020600482018190526024820152600080516020610d1d833981519152604482015290519081900360640190fd5b6040805142602080830191909152825180830382018152918301909252805191012061069f610c42565b6040805160c081018252838152600060208201523381830152426060820152815161014081810190935290916080830191908690600a90839083908082843760009201829052509284525050600160209283018190528582526067835260409091208351815591830151828201805494955085949192909160ff19169083600281111561072857fe5b021790555060408201516001820180546001600160a01b0390921661010002610100600160a81b0319909216919091179055606082015160028201556080820151610779906003830190600a610c7f565b5060a09190910151600d909101805460ff19169115159190911790556068805460018101825560009182527fa2153420d844928b4421650203c77babc8b33d7f2e7b450e2966db0c22097753018390556069906107d542610ab7565b6107de42610ad5565b6107e742610af0565b604051602001808481526020018381526020018281526020019350505050604051602081830303815290604052805190602001208152602001908152602001600020546001016069600061083a42610ab7565b61084342610ad5565b61084c42610af0565b604051602001808481526020018381526020018281526020019350505050604051602081830303815290604052805190602001208152602001908152602001600020819055507f80852792f6a624eeab374731e35fdf30df940e343698db9d05ab33a9445274f58233856000600a81106108c257fe5b604080519485526001600160a01b0393909316602080860191909152908102919091013583830152860135606080840191909152868201356080808501919091529087013560a0808501919091529087013560c0808501919091529087013560e080850191909152908701356101008085019190915290870135610120808501919091529087013561014084015286013561016083015251908190036101800190a1505050565b600054610100900460ff16806109825750610982610aad565b80610990575060005460ff16155b6109cb5760405162461bcd60e51b815260040180806020018281038252602e815260200180610d3d602e913960400191505060405180910390fd5b600054610100900460ff161580156109f6576000805460ff1961ff0019909116610100171660011790555b603380546001600160a01b0319166001600160a01b0384811691909117918290556040519116906000907f8be0079c531659141344cd1fd0a4f28419497f9722a3daafe3b4186f6b6457e0908290a380156104ad576000805461ff00191690555050565b610a62610551565b610aa1576040805162461bcd60e51b81526020600482018190526024820152600080516020610d1d833981519152604482015290519081900360640190fd5b610aaa81610b0b565b50565b303b1590565b3390565b60008080610aca62015180855b04610bac565b509095945050505050565b60008080610ae66201518085610ac4565b5095945050505050565b60008080610b016201518085610ac4565b9695505050505050565b6001600160a01b038116610b505760405162461bcd60e51b8152600401808060200182810382526026815260200180610cf76026913960400191505060405180910390fd5b6033546040516001600160a01b038084169216907f8be0079c531659141344cd1fd0a4f28419497f9722a3daafe3b4186f6b6457e090600090a3603380546001600160a01b0319166001600160a01b0392909216919091179055565b60008080836226496581018262023ab1600483020590506004600362023ab18302010590910390600062164b09610fa0600185010205905060046105b58202058303601f019250600061098f8460500281610c0357fe5b0590506000605061098f83020585039050600b820560301994909401606402929092018301996002600c90940290910392909201975095509350505050565b6040805160c081019091526000808252602082019081526000602082018190526040820152606001610c72610cbd565b8152600060209091015290565b82600a8101928215610cad579160200282015b82811115610cad578251825591602001919060010190610c92565b50610cb9929150610cdc565b5090565b604051806101400160405280600a906020820280388339509192915050565b6101c691905b80821115610cb95760008155600101610ce256fe4f776e61626c653a206e6577206f776e657220697320746865207a65726f20616464726573734f776e61626c653a2063616c6c6572206973206e6f7420746865206f776e6572436f6e747261637420696e7374616e63652068617320616c7265616479206265656e20696e697469616c697a6564a265627a7a723158201ac27f7bb4af856278581ac0d319b45f9b7d0e35e892faf2dce7d7958664f16064736f6c634300050c0032",
  "source": "pragma solidity ^0.5.12;\n\nimport \"../third-party/BokkyPooBahsDateTimeLibrary.sol\";\nimport \"../bridge/Limits.sol\";\n\nimport \"../interfaces/ILimits.sol\";\nimport \"@openzeppelin/upgrades/contracts/Initializable.sol\";\nimport \"@openzeppelin/contracts-ethereum-package/contracts/ownership/Ownable.sol\";\nimport \"../interfaces/IDao.sol\";\n\ncontract Dao is IDao, Ownable {\n\n    using BokkyPooBahsDateTimeLibrary for uint;\n    /*\n    * Statuses\n    */\n    enum ProposalStatus {PENDING, APPROVED, DECLINED}\n\n    event ProposalCreated(bytes32 proposalID, address sender, uint minHostTransactionValue, \n    uint maxHostTransactionValue,\n    uint dayHostMaxLimit,\n    uint dayHostMaxLimitForOneAddress,\n    uint maxHostPendingTransactionLimit,\n    uint minGuestTransactionValue,\n    uint maxGuestTransactionValue,\n    uint dayGuestMaxLimit,\n    uint dayGuestMaxLimitForOneAddress,\n    uint maxGuestPendingTransactionLimit);\n\n    event ProposalApproved(bytes32 proposalID);\n\n    struct Proposal {\n        bytes32 proposalID;\n        ProposalStatus status;\n        address sender;\n        uint timestamp;\n        uint[10] limits;\n        bool isExists;\n    }\n\n    ILimits limits;\n\n    /** Proposals **/\n    mapping(bytes32 => Proposal) internal proposals;\n    bytes32[] proposalsArray;\n\n    mapping(bytes32 => uint) internal proposalsCountByDate;\n\n    modifier checkProposalByDate() {\n        require(proposalsCountByDate[keccak256(abi.encodePacked(now.getYear(), now.getMonth(), now.getDay()))] <= 3, \"proposal limit exceeded\");\n        _;\n    }\n\n    function createProposal(uint[10] calldata parameters) checkProposalByDate external onlyOwner {   \n        bytes32 proposalID = keccak256(abi.encodePacked(now));\n        Proposal memory proposal = Proposal(proposalID, ProposalStatus.PENDING, msg.sender, now, parameters, true); \n        proposals[proposalID] = proposal;\n        proposalsArray.push(proposalID);\n\n        proposalsCountByDate[keccak256(abi.encodePacked(now.getYear(), now.getMonth(), now.getDay()))] = proposalsCountByDate[keccak256(abi.encodePacked(now.getYear(), now.getMonth(), now.getDay()))]+1;\n\n        emit ProposalCreated(proposalID, msg.sender, parameters[0], parameters[1], parameters[2], parameters[3], parameters[4], parameters[5], parameters[6], parameters[7], parameters[8], parameters[9]);\n    }\n\n    function approvedNewProposal(bytes32 proposalID) external onlyOwner {\n        Proposal memory proposal = proposals[proposalID];\n\n        proposal.status = ProposalStatus.APPROVED;\n\n        limits.setLimits(\n            proposal.limits[0],\n            proposal.limits[1],\n            proposal.limits[2],\n            proposal.limits[3],\n            proposal.limits[4],\n            proposal.limits[5],\n            proposal.limits[6],\n            proposal.limits[7],\n            proposal.limits[8],\n            proposal.limits[9]\n        );\n        \n        emit ProposalApproved(proposalID);\n    }\n\n    function init(ILimits _limits) initializer public {\n        Ownable.initialize(msg.sender);\n        limits = _limits;\n    }\n\n    function _getFirstMessageIDByAddress() public view returns (bytes32) {\n        return proposalsArray[0];\n    }\n}",
  "sourcePath": "/home/pickle/Documents/bch/eth-bridge-module/contracts/bridge/Dao.sol",
  "compiler": {
    "name": "solc",
    "version": "0.5.12+commit.7709ece9.Emscripten.clang"
  },
  "schemaVersion": "3.0.16",
  "updatedAt": "2020-04-20T15:06:11.699Z",
  "devdoc": {
    "methods": {
      "initialize(address)": {
        "details": "Initializes the contract setting the deployer as the initial owner."
      },
      "isOwner()": {
        "details": "Returns true if the caller is the current owner."
      },
      "owner()": {
        "details": "Returns the address of the current owner."
      },
      "renounceOwnership()": {
        "details": "Leaves the contract without owner. It will not be possible to call `onlyOwner` functions anymore. Can only be called by the current owner.     * > Note: Renouncing ownership will leave the contract without an owner, thereby removing any functionality that is only available to the owner."
      },
      "transferOwnership(address)": {
        "details": "Transfers ownership of the contract to a new account (`newOwner`). Can only be called by the current owner."
      }
    }
  },
  "userdoc": {
    "methods": {}
  }
}