{
  "contractName": "Limits",
  "abi": [
    {
      "anonymous": false,
      "inputs": [
        {
          "indexed": true,
          "internalType": "address",
          "name": "previousOwner",
          "type": "address"
        },
        {
          "indexed": true,
          "internalType": "address",
          "name": "newOwner",
          "type": "address"
        }
      ],
      "name": "OwnershipTransferred",
      "type": "event"
    },
    {
      "anonymous": false,
      "inputs": [
        {
          "indexed": false,
          "internalType": "uint256",
          "name": "minHostTransactionValue",
          "type": "uint256"
        },
        {
          "indexed": false,
          "internalType": "uint256",
          "name": "maxHostTransactionValue",
          "type": "uint256"
        },
        {
          "indexed": false,
          "internalType": "uint256",
          "name": "dayHostMaxLimit",
          "type": "uint256"
        },
        {
          "indexed": false,
          "internalType": "uint256",
          "name": "dayHostMaxLimitForOneAddress",
          "type": "uint256"
        },
        {
          "indexed": false,
          "internalType": "uint256",
          "name": "maxHostPendingTransactionLimit",
          "type": "uint256"
        },
        {
          "indexed": false,
          "internalType": "uint256",
          "name": "minGuestTransactionValue",
          "type": "uint256"
        },
        {
          "indexed": false,
          "internalType": "uint256",
          "name": "maxGuestTransactionValue",
          "type": "uint256"
        },
        {
          "indexed": false,
          "internalType": "uint256",
          "name": "dayGuestMaxLimit",
          "type": "uint256"
        },
        {
          "indexed": false,
          "internalType": "uint256",
          "name": "dayGuestMaxLimitForOneAddress",
          "type": "uint256"
        },
        {
          "indexed": false,
          "internalType": "uint256",
          "name": "maxGuestPendingTransactionLimit",
          "type": "uint256"
        }
      ],
      "name": "SetNewLimits",
      "type": "event"
    },
    {
      "constant": false,
      "inputs": [
        {
          "internalType": "address",
          "name": "sender",
          "type": "address"
        }
      ],
      "name": "initialize",
      "outputs": [],
      "payable": false,
      "stateMutability": "nonpayable",
      "type": "function"
    },
    {
      "constant": true,
      "inputs": [],
      "name": "isOwner",
      "outputs": [
        {
          "internalType": "bool",
          "name": "",
          "type": "bool"
        }
      ],
      "payable": false,
      "stateMutability": "view",
      "type": "function"
    },
    {
      "constant": true,
      "inputs": [],
      "name": "owner",
      "outputs": [
        {
          "internalType": "address",
          "name": "",
          "type": "address"
        }
      ],
      "payable": false,
      "stateMutability": "view",
      "type": "function"
    },
    {
      "constant": true,
      "inputs": [],
      "name": "parameters",
      "outputs": [
        {
          "internalType": "uint256",
          "name": "minHostTransactionValue",
          "type": "uint256"
        },
        {
          "internalType": "uint256",
          "name": "maxHostTransactionValue",
          "type": "uint256"
        },
        {
          "internalType": "uint256",
          "name": "dayHostMaxLimit",
          "type": "uint256"
        },
        {
          "internalType": "uint256",
          "name": "dayHostMaxLimitForOneAddress",
          "type": "uint256"
        },
        {
          "internalType": "uint256",
          "name": "maxHostPendingTransactionLimit",
          "type": "uint256"
        },
        {
          "internalType": "uint256",
          "name": "minGuestTransactionValue",
          "type": "uint256"
        },
        {
          "internalType": "uint256",
          "name": "maxGuestTransactionValue",
          "type": "uint256"
        },
        {
          "internalType": "uint256",
          "name": "dayGuestMaxLimit",
          "type": "uint256"
        },
        {
          "internalType": "uint256",
          "name": "dayGuestMaxLimitForOneAddress",
          "type": "uint256"
        },
        {
          "internalType": "uint256",
          "name": "maxGuestPendingTransactionLimit",
          "type": "uint256"
        }
      ],
      "payable": false,
      "stateMutability": "view",
      "type": "function"
    },
    {
      "constant": false,
      "inputs": [],
      "name": "renounceOwnership",
      "outputs": [],
      "payable": false,
      "stateMutability": "nonpayable",
      "type": "function"
    },
    {
      "constant": false,
      "inputs": [
        {
          "internalType": "address",
          "name": "newOwner",
          "type": "address"
        }
      ],
      "name": "transferOwnership",
      "outputs": [],
      "payable": false,
      "stateMutability": "nonpayable",
      "type": "function"
    },
    {
      "constant": false,
      "inputs": [
        {
          "internalType": "uint256",
          "name": "minHostTransactionValue",
          "type": "uint256"
        },
        {
          "internalType": "uint256",
          "name": "maxHostTransactionValue",
          "type": "uint256"
        },
        {
          "internalType": "uint256",
          "name": "dayHostMaxLimit",
          "type": "uint256"
        },
        {
          "internalType": "uint256",
          "name": "dayHostMaxLimitForOneAddress",
          "type": "uint256"
        },
        {
          "internalType": "uint256",
          "name": "maxHostPendingTransactionLimit",
          "type": "uint256"
        },
        {
          "internalType": "uint256",
          "name": "minGuestTransactionValue",
          "type": "uint256"
        },
        {
          "internalType": "uint256",
          "name": "maxGuestTransactionValue",
          "type": "uint256"
        },
        {
          "internalType": "uint256",
          "name": "dayGuestMaxLimit",
          "type": "uint256"
        },
        {
          "internalType": "uint256",
          "name": "dayGuestMaxLimitForOneAddress",
          "type": "uint256"
        },
        {
          "internalType": "uint256",
          "name": "maxGuestPendingTransactionLimit",
          "type": "uint256"
        }
      ],
      "name": "setLimits",
      "outputs": [],
      "payable": false,
      "stateMutability": "nonpayable",
      "type": "function"
    },
    {
      "constant": true,
      "inputs": [],
      "name": "getMinHostTransactionValue",
      "outputs": [
        {
          "internalType": "uint256",
          "name": "",
          "type": "uint256"
        }
      ],
      "payable": false,
      "stateMutability": "view",
      "type": "function"
    },
    {
      "constant": true,
      "inputs": [],
      "name": "getMaxHostTransactionValue",
      "outputs": [
        {
          "internalType": "uint256",
          "name": "",
          "type": "uint256"
        }
      ],
      "payable": false,
      "stateMutability": "view",
      "type": "function"
    },
    {
      "constant": true,
      "inputs": [],
      "name": "getDayHostMaxLimit",
      "outputs": [
        {
          "internalType": "uint256",
          "name": "",
          "type": "uint256"
        }
      ],
      "payable": false,
      "stateMutability": "view",
      "type": "function"
    },
    {
      "constant": true,
      "inputs": [],
      "name": "getDayHostMaxLimitForOneAddress",
      "outputs": [
        {
          "internalType": "uint256",
          "name": "",
          "type": "uint256"
        }
      ],
      "payable": false,
      "stateMutability": "view",
      "type": "function"
    },
    {
      "constant": true,
      "inputs": [],
      "name": "getMaxHostPendingTransactionLimit",
      "outputs": [
        {
          "internalType": "uint256",
          "name": "",
          "type": "uint256"
        }
      ],
      "payable": false,
      "stateMutability": "view",
      "type": "function"
    },
    {
      "constant": true,
      "inputs": [],
      "name": "getMinGuestTransactionValue",
      "outputs": [
        {
          "internalType": "uint256",
          "name": "",
          "type": "uint256"
        }
      ],
      "payable": false,
      "stateMutability": "view",
      "type": "function"
    },
    {
      "constant": true,
      "inputs": [],
      "name": "getMaxGuestTransactionValue",
      "outputs": [
        {
          "internalType": "uint256",
          "name": "",
          "type": "uint256"
        }
      ],
      "payable": false,
      "stateMutability": "view",
      "type": "function"
    },
    {
      "constant": true,
      "inputs": [],
      "name": "getDayGuestMaxLimit",
      "outputs": [
        {
          "internalType": "uint256",
          "name": "",
          "type": "uint256"
        }
      ],
      "payable": false,
      "stateMutability": "view",
      "type": "function"
    },
    {
      "constant": true,
      "inputs": [],
      "name": "getDayGuestMaxLimitForOneAddress",
      "outputs": [
        {
          "internalType": "uint256",
          "name": "",
          "type": "uint256"
        }
      ],
      "payable": false,
      "stateMutability": "view",
      "type": "function"
    },
    {
      "constant": true,
      "inputs": [],
      "name": "getMaxGuestPendingTransactionLimit",
      "outputs": [
        {
          "internalType": "uint256",
          "name": "",
          "type": "uint256"
        }
      ],
      "payable": false,
      "stateMutability": "view",
      "type": "function"
    },
    {
      "constant": true,
      "inputs": [],
      "name": "getLimits",
      "outputs": [
        {
          "internalType": "uint256[10]",
          "name": "",
          "type": "uint256[10]"
        }
      ],
      "payable": false,
      "stateMutability": "view",
      "type": "function"
    },
    {
      "constant": false,
      "inputs": [],
      "name": "init",
      "outputs": [],
      "payable": false,
      "stateMutability": "nonpayable",
      "type": "function"
    }
  ],
  "bytecode": "0x6080604052610a3f806100136000396000f3fe608060405234801561001057600080fd5b50600436106101215760003560e01c80638da5cb5b116100ad578063c8a9dbd411610071578063c8a9dbd4146102cf578063dd90c690146102d7578063e1c7392a146102df578063f2fde38b146102e7578063f371da051461030d57610121565b80638da5cb5b146102595780638f32d59b1461027d578063af3f2ea914610299578063ba9af4fd146102a1578063c4d66de8146102a957610121565b806360436658116100f457806360436658146101a85780636f89e409146101b0578063715018a6146101f15780638021fa72146101f9578063890357301461020157610121565b806337f7bd16146101265780633e5fc18b1461014057806343524d31146101485780635a174250146101a0575b600080fd5b61012e610315565b60408051918252519081900360200190f35b61012e61031b565b61019e600480360361014081101561015f57600080fd5b5080359060208101359060408101359060608101359060808101359060a08101359060c08101359060e081013590610100810135906101200135610321565b005b61012e61042c565b61012e610432565b6101b8610438565b604051808261014080838360005b838110156101de5781810151838201526020016101c6565b5050505090500191505060405180910390f35b61019e6104a0565b61012e610543565b610209610549565b604080519a8b5260208b0199909952898901979097526060890195909552608088019390935260a087019190915260c086015260e085015261010084015261012083015251908190036101400190f35b61026161056a565b604080516001600160a01b039092168252519081900360200190f35b610285610579565b604080519115158252519081900360200190f35b61012e61059f565b61012e6105a5565b61019e600480360360208110156102bf57600080fd5b50356001600160a01b03166105aa565b61012e61069c565b61012e6106a2565b61019e6106a8565b61019e600480360360208110156102fd57600080fd5b50356001600160a01b031661075b565b61012e6107bd565b606c5490565b60665490565b610329610579565b61037a576040805162461bcd60e51b815260206004820181905260248201527f4f776e61626c653a2063616c6c6572206973206e6f7420746865206f776e6572604482015290519081900360640190fd5b60668a9055606789905560688890556069879055606a869055606b859055606c849055606d839055606e829055606f819055604080518b8152602081018b90528082018a9052606081018990526080810188905260a0810187905260c0810186905260e081018590526101008101849052610120810183905290517fb7d1498f0a9290728c3c64f6d2d896900c547557e12dc77889c09f11829623c4918190036101400190a150505050505050505050565b606e5490565b606d5490565b610440610997565b50604080516101408101825260665481526067546020820152606854918101919091526069546060820152606a546080820152606b5460a0820152606c5460c0820152606d5460e0820152606e54610100820152606f5461012082015290565b6104a8610579565b6104f9576040805162461bcd60e51b815260206004820181905260248201527f4f776e61626c653a2063616c6c6572206973206e6f7420746865206f776e6572604482015290519081900360640190fd5b6033546040516000916001600160a01b0316907f8be0079c531659141344cd1fd0a4f28419497f9722a3daafe3b4186f6b6457e0908390a3603380546001600160a01b0319169055565b60675490565b606654606754606854606954606a54606b54606c54606d54606e54606f548a565b6033546001600160a01b031690565b6033546000906001600160a01b03166105906107c3565b6001600160a01b031614905090565b60695490565b600090565b600054610100900460ff16806105c357506105c36107c7565b806105d1575060005460ff16155b61060c5760405162461bcd60e51b815260040180806020018281038252602e8152602001806109dd602e913960400191505060405180910390fd5b600054610100900460ff16158015610637576000805460ff1961ff0019909116610100171660011790555b603380546001600160a01b0319166001600160a01b0384811691909117918290556040519116906000907f8be0079c531659141344cd1fd0a4f28419497f9722a3daafe3b4186f6b6457e0908290a38015610698576000805461ff00191690555b5050565b606b5490565b60685490565b600054610100900460ff16806106c157506106c16107c7565b806106cf575060005460ff16155b61070a5760405162461bcd60e51b815260040180806020018281038252602e8152602001806109dd602e913960400191505060405180910390fd5b600054610100900460ff16158015610735576000805460ff1961ff0019909116610100171660011790555b61073e336105aa565b6107466107cd565b8015610758576000805461ff00191690555b50565b610763610579565b6107b4576040805162461bcd60e51b815260206004820181905260248201527f4f776e61626c653a2063616c6c6572206973206e6f7420746865206f776e6572604482015290519081900360640190fd5b610758816108f6565b606a5490565b3390565b303b1590565b604080516101408082018352678ac7230489e8000080835268056bc75e2d631000006020808501829052680ad78ebc5ac62000008587018190526802b5e3af16b188000060608088018290526815af1d78b58c4000006080808a0182905260a0808b0189905260c0808c0189905260e0808d01889052610100808e018890526101209d8e0186905260668c905560678b905560688990556069889055606a869055606b8c9055606c8b9055606d899055606e889055606f8690558e518c8152998a018b9052898f01899052958901879052928801849052908701989098529685019590955294830191909152928101929092529281019290925291517fb7d1498f0a9290728c3c64f6d2d896900c547557e12dc77889c09f11829623c4929181900390910190a1565b6001600160a01b03811661093b5760405162461bcd60e51b81526004018080602001828103825260268152602001806109b76026913960400191505060405180910390fd5b6033546040516001600160a01b038084169216907f8be0079c531659141344cd1fd0a4f28419497f9722a3daafe3b4186f6b6457e090600090a3603380546001600160a01b0319166001600160a01b0392909216919091179055565b604051806101400160405280600a90602082028038833950919291505056fe4f776e61626c653a206e6577206f776e657220697320746865207a65726f2061646472657373436f6e747261637420696e7374616e63652068617320616c7265616479206265656e20696e697469616c697a6564a265627a7a723158201302deadc3f4cdd76346596c068062d7f8c97c6abec2e0f409d7c14bfdc6ecb264736f6c634300050c0032",
  "source": "pragma solidity ^0.5.12;\n\nimport \"../third-party/BokkyPooBahsDateTimeLibrary.sol\";\nimport \"../interfaces/ILimits.sol\";\nimport \"@openzeppelin/upgrades/contracts/Initializable.sol\";\nimport \"@openzeppelin/contracts-ethereum-package/contracts/ownership/Ownable.sol\";\n\n/*\n add contructor for initialize\n*/\n\ncontract Limits is ILimits, Ownable {\n\n     struct BridgeLimits {\n        //ETH Limits\n        uint minHostTransactionValue;\n        uint maxHostTransactionValue;\n        uint dayHostMaxLimit;\n        uint dayHostMaxLimitForOneAddress;\n        uint maxHostPendingTransactionLimit;\n        //ETH Limits\n        uint minGuestTransactionValue;\n        uint maxGuestTransactionValue;\n        uint dayGuestMaxLimit;\n        uint dayGuestMaxLimitForOneAddress;\n        uint maxGuestPendingTransactionLimit;\n    }\n\n    event SetNewLimits(\n    uint minHostTransactionValue,\n    uint maxHostTransactionValue,\n    uint dayHostMaxLimit,\n    uint dayHostMaxLimitForOneAddress,\n    uint maxHostPendingTransactionLimit,\n    uint minGuestTransactionValue,\n    uint maxGuestTransactionValue,\n    uint dayGuestMaxLimit,\n    uint dayGuestMaxLimitForOneAddress,\n    uint maxGuestPendingTransactionLimit);\n\n    BridgeLimits public parameters;\n    \n    function setLimits(uint minHostTransactionValue,\n    uint maxHostTransactionValue,\n    uint dayHostMaxLimit,\n    uint dayHostMaxLimitForOneAddress,\n    uint maxHostPendingTransactionLimit,\n    uint minGuestTransactionValue,\n    uint maxGuestTransactionValue,\n    uint dayGuestMaxLimit,\n    uint dayGuestMaxLimitForOneAddress,\n    uint maxGuestPendingTransactionLimit) external \n    onlyOwner\n    {\n        parameters.minHostTransactionValue = minHostTransactionValue;\n        parameters.maxHostTransactionValue = maxHostTransactionValue;\n        parameters.dayHostMaxLimit = dayHostMaxLimit;\n        parameters.dayHostMaxLimitForOneAddress = dayHostMaxLimitForOneAddress;\n        parameters.maxHostPendingTransactionLimit = maxHostPendingTransactionLimit;\n\n        parameters.minGuestTransactionValue = minGuestTransactionValue;\n        parameters.maxGuestTransactionValue = maxGuestTransactionValue;\n        parameters.dayGuestMaxLimit = dayGuestMaxLimit;\n        parameters.dayGuestMaxLimitForOneAddress = dayGuestMaxLimitForOneAddress;\n        parameters.maxGuestPendingTransactionLimit = maxGuestPendingTransactionLimit;\n\n        emit SetNewLimits(\n          parameters.minHostTransactionValue, \n          parameters.maxHostTransactionValue, \n          parameters.dayHostMaxLimit,\n          parameters.dayHostMaxLimitForOneAddress,\n          parameters.maxHostPendingTransactionLimit,\n          parameters.minGuestTransactionValue,\n          parameters.maxGuestTransactionValue,\n          parameters.dayGuestMaxLimit,\n          parameters.dayGuestMaxLimitForOneAddress,\n          parameters.maxGuestPendingTransactionLimit \n        );\n    }\n\n    function getMinHostTransactionValue() external view returns (uint) {\n        return parameters.minHostTransactionValue;\n    }\n\n    function getMaxHostTransactionValue() external view returns (uint) {\n      return parameters.maxHostTransactionValue;\n    }\n\n    function getDayHostMaxLimit() external view returns (uint) {\n      return parameters.dayHostMaxLimit;\n    }\n         \n    function getDayHostMaxLimitForOneAddress() external view returns (uint) {\n      return parameters.dayHostMaxLimitForOneAddress;\n    }\n\n    function getMaxHostPendingTransactionLimit() external view returns (uint) {\n      return parameters.maxHostPendingTransactionLimit;\n    }\n\n    function getMinGuestTransactionValue() external view returns (uint) {\n      return parameters.minGuestTransactionValue;\n    }\n\n    function getMaxGuestTransactionValue() external view returns (uint) {\n      return parameters.maxGuestTransactionValue;\n    }\n\n    function getDayGuestMaxLimit() external view returns (uint) {\n      return parameters.dayGuestMaxLimit;\n    }\n\n    function getDayGuestMaxLimitForOneAddress() external view returns (uint) {\n      return parameters.dayGuestMaxLimitForOneAddress;\n    }\n\n    function getMaxGuestPendingTransactionLimit() external view returns (uint) {\n      parameters.maxGuestPendingTransactionLimit;\n    }        \n\n    /*limit getter */\n    function getLimits() external view returns \n    (uint[10] memory) {\n        return ([\n          parameters.minHostTransactionValue,\n          parameters.maxHostTransactionValue,\n          parameters.dayHostMaxLimit,\n          parameters.dayHostMaxLimitForOneAddress,\n          parameters.maxHostPendingTransactionLimit,\n        //ETH Limits\n          parameters.minGuestTransactionValue,\n          parameters.maxGuestTransactionValue,\n          parameters.dayGuestMaxLimit,\n          parameters.dayGuestMaxLimitForOneAddress,\n          parameters.maxGuestPendingTransactionLimit\n        ]);\n    }\n  \n    function init() initializer public {\n        Ownable.initialize(msg.sender);\n        _init();\n    }\n\n    function _init() internal {\n        parameters = BridgeLimits(10*10**18, \n                              100*10**18, \n                              200*10**18, \n                              50*10**18, \n                              400*10**18, \n                              10*10**18,\n                              100*10**18,\n                              200*10**18,\n                              50*10**18,\n                              400*10**18\n                              );\n      \n        emit SetNewLimits(\n          parameters.minHostTransactionValue, \n          parameters.maxHostTransactionValue, \n          parameters.dayHostMaxLimit,\n          parameters.dayHostMaxLimitForOneAddress,\n          parameters.maxHostPendingTransactionLimit,\n          parameters.minGuestTransactionValue,\n          parameters.maxGuestTransactionValue,\n          parameters.dayGuestMaxLimit,\n          parameters.dayGuestMaxLimitForOneAddress,\n          parameters.maxGuestPendingTransactionLimit  \n        );\n    }\n}",
  "sourcePath": "/home/pickle/Documents/bch/eth-bridge-module/contracts/bridge/Limits.sol",
  "compiler": {
    "name": "solc",
    "version": "0.5.12+commit.7709ece9.Emscripten.clang"
  },
  "schemaVersion": "3.0.16",
  "updatedAt": "2020-04-20T15:06:11.703Z",
  "devdoc": {
    "methods": {
      "initialize(address)": {
        "details": "Initializes the contract setting the deployer as the initial owner."
      },
      "isOwner()": {
        "details": "Returns true if the caller is the current owner."
      },
      "owner()": {
        "details": "Returns the address of the current owner."
      },
      "renounceOwnership()": {
        "details": "Leaves the contract without owner. It will not be possible to call `onlyOwner` functions anymore. Can only be called by the current owner.     * > Note: Renouncing ownership will leave the contract without an owner, thereby removing any functionality that is only available to the owner."
      },
      "transferOwnership(address)": {
        "details": "Transfers ownership of the contract to a new account (`newOwner`). Can only be called by the current owner."
      }
    }
  },
  "userdoc": {
    "methods": {}
  }
}