{
  "contractName": "Status",
  "abi": [
    {
      "anonymous": false,
      "inputs": [
        {
          "indexed": false,
          "internalType": "bytes32",
          "name": "messageID",
          "type": "bytes32"
        }
      ],
      "name": "BridgePaused",
      "type": "event"
    },
    {
      "anonymous": false,
      "inputs": [
        {
          "indexed": false,
          "internalType": "bytes32",
          "name": "messageID",
          "type": "bytes32"
        }
      ],
      "name": "BridgePausedByVolume",
      "type": "event"
    },
    {
      "anonymous": false,
      "inputs": [
        {
          "indexed": false,
          "internalType": "bytes32",
          "name": "messageID",
          "type": "bytes32"
        }
      ],
      "name": "BridgeResumed",
      "type": "event"
    },
    {
      "anonymous": false,
      "inputs": [
        {
          "indexed": false,
          "internalType": "bytes32",
          "name": "messageID",
          "type": "bytes32"
        }
      ],
      "name": "BridgeStarted",
      "type": "event"
    },
    {
      "anonymous": false,
      "inputs": [
        {
          "indexed": false,
          "internalType": "bytes32",
          "name": "messageID",
          "type": "bytes32"
        }
      ],
      "name": "BridgeStartedByVolume",
      "type": "event"
    },
    {
      "anonymous": false,
      "inputs": [
        {
          "indexed": false,
          "internalType": "bytes32",
          "name": "messageID",
          "type": "bytes32"
        }
      ],
      "name": "BridgeStopped",
      "type": "event"
    },
    {
      "anonymous": false,
      "inputs": [
        {
          "indexed": false,
          "internalType": "bytes32",
          "name": "messageID",
          "type": "bytes32"
        },
        {
          "indexed": false,
          "internalType": "bytes32",
          "name": "recipient",
          "type": "bytes32"
        },
        {
          "indexed": false,
          "internalType": "uint256",
          "name": "timestamp",
          "type": "uint256"
        }
      ],
      "name": "GuestAccountPausedMessage",
      "type": "event"
    },
    {
      "anonymous": false,
      "inputs": [
        {
          "indexed": false,
          "internalType": "bytes32",
          "name": "messageID",
          "type": "bytes32"
        },
        {
          "indexed": false,
          "internalType": "bytes32",
          "name": "recipient",
          "type": "bytes32"
        },
        {
          "indexed": false,
          "internalType": "uint256",
          "name": "timestamp",
          "type": "uint256"
        }
      ],
      "name": "GuestAccountResumedMessage",
      "type": "event"
    },
    {
      "anonymous": false,
      "inputs": [
        {
          "indexed": false,
          "internalType": "bytes32",
          "name": "messageID",
          "type": "bytes32"
        },
        {
          "indexed": false,
          "internalType": "address",
          "name": "sender",
          "type": "address"
        },
        {
          "indexed": false,
          "internalType": "uint256",
          "name": "timestamp",
          "type": "uint256"
        }
      ],
      "name": "HostAccountPausedMessage",
      "type": "event"
    },
    {
      "anonymous": false,
      "inputs": [
        {
          "indexed": false,
          "internalType": "bytes32",
          "name": "messageID",
          "type": "bytes32"
        },
        {
          "indexed": false,
          "internalType": "address",
          "name": "sender",
          "type": "address"
        },
        {
          "indexed": false,
          "internalType": "uint256",
          "name": "timestamp",
          "type": "uint256"
        }
      ],
      "name": "HostAccountResumedMessage",
      "type": "event"
    },
    {
      "anonymous": false,
      "inputs": [
        {
          "indexed": true,
          "internalType": "address",
          "name": "previousOwner",
          "type": "address"
        },
        {
          "indexed": true,
          "internalType": "address",
          "name": "newOwner",
          "type": "address"
        }
      ],
      "name": "OwnershipTransferred",
      "type": "event"
    },
    {
      "constant": false,
      "inputs": [
        {
          "internalType": "address",
          "name": "sender",
          "type": "address"
        }
      ],
      "name": "initialize",
      "outputs": [],
      "payable": false,
      "stateMutability": "nonpayable",
      "type": "function"
    },
    {
      "constant": true,
      "inputs": [],
      "name": "isOwner",
      "outputs": [
        {
          "internalType": "bool",
          "name": "",
          "type": "bool"
        }
      ],
      "payable": false,
      "stateMutability": "view",
      "type": "function"
    },
    {
      "constant": true,
      "inputs": [],
      "name": "owner",
      "outputs": [
        {
          "internalType": "address",
          "name": "",
          "type": "address"
        }
      ],
      "payable": false,
      "stateMutability": "view",
      "type": "function"
    },
    {
      "constant": true,
      "inputs": [],
      "name": "pauseBridgeByVolumeBool",
      "outputs": [
        {
          "internalType": "bool",
          "name": "",
          "type": "bool"
        }
      ],
      "payable": false,
      "stateMutability": "view",
      "type": "function"
    },
    {
      "constant": false,
      "inputs": [],
      "name": "renounceOwnership",
      "outputs": [],
      "payable": false,
      "stateMutability": "nonpayable",
      "type": "function"
    },
    {
      "constant": false,
      "inputs": [
        {
          "internalType": "address",
          "name": "newOwner",
          "type": "address"
        }
      ],
      "name": "transferOwnership",
      "outputs": [],
      "payable": false,
      "stateMutability": "nonpayable",
      "type": "function"
    },
    {
      "constant": false,
      "inputs": [],
      "name": "pauseBridgeByVolume",
      "outputs": [],
      "payable": false,
      "stateMutability": "nonpayable",
      "type": "function"
    },
    {
      "constant": false,
      "inputs": [],
      "name": "resumeBridgeByVolume",
      "outputs": [],
      "payable": false,
      "stateMutability": "nonpayable",
      "type": "function"
    },
    {
      "constant": false,
      "inputs": [
        {
          "internalType": "address",
          "name": "sender",
          "type": "address"
        }
      ],
      "name": "pausedByBridgeVolumeForAddress",
      "outputs": [],
      "payable": false,
      "stateMutability": "nonpayable",
      "type": "function"
    },
    {
      "constant": false,
      "inputs": [
        {
          "internalType": "address",
          "name": "sender",
          "type": "address"
        }
      ],
      "name": "resumedByBridgeVolumeForAddress",
      "outputs": [],
      "payable": false,
      "stateMutability": "nonpayable",
      "type": "function"
    },
    {
      "constant": false,
      "inputs": [
        {
          "internalType": "bytes32",
          "name": "sender",
          "type": "bytes32"
        }
      ],
      "name": "setPausedStatusForGuestAddress",
      "outputs": [],
      "payable": false,
      "stateMutability": "nonpayable",
      "type": "function"
    },
    {
      "constant": false,
      "inputs": [
        {
          "internalType": "bytes32",
          "name": "sender",
          "type": "bytes32"
        }
      ],
      "name": "setResumedStatusForGuestAddress",
      "outputs": [],
      "payable": false,
      "stateMutability": "nonpayable",
      "type": "function"
    },
    {
      "constant": false,
      "inputs": [],
      "name": "startBridge",
      "outputs": [],
      "payable": false,
      "stateMutability": "nonpayable",
      "type": "function"
    },
    {
      "constant": false,
      "inputs": [],
      "name": "resumeBridge",
      "outputs": [],
      "payable": false,
      "stateMutability": "nonpayable",
      "type": "function"
    },
    {
      "constant": false,
      "inputs": [],
      "name": "stopBridge",
      "outputs": [],
      "payable": false,
      "stateMutability": "nonpayable",
      "type": "function"
    },
    {
      "constant": false,
      "inputs": [],
      "name": "pauseBridge",
      "outputs": [],
      "payable": false,
      "stateMutability": "nonpayable",
      "type": "function"
    },
    {
      "constant": true,
      "inputs": [],
      "name": "getStatusBridge",
      "outputs": [
        {
          "internalType": "uint256",
          "name": "",
          "type": "uint256"
        }
      ],
      "payable": false,
      "stateMutability": "view",
      "type": "function"
    },
    {
      "constant": true,
      "inputs": [
        {
          "internalType": "address",
          "name": "account",
          "type": "address"
        }
      ],
      "name": "getStatusForAccount",
      "outputs": [
        {
          "internalType": "bool",
          "name": "",
          "type": "bool"
        }
      ],
      "payable": false,
      "stateMutability": "view",
      "type": "function"
    },
    {
      "constant": false,
      "inputs": [],
      "name": "init",
      "outputs": [],
      "payable": false,
      "stateMutability": "nonpayable",
      "type": "function"
    },
    {
      "constant": true,
      "inputs": [],
      "name": "isPausedByBridgVolume",
      "outputs": [
        {
          "internalType": "bool",
          "name": "",
          "type": "bool"
        }
      ],
      "payable": false,
      "stateMutability": "view",
      "type": "function"
    }
  ],
  "bytecode": "0x6080604052610fc7806100136000396000f3fe608060405234801561001057600080fd5b506004361061012c5760003560e01c80637dd0480f116100ad578063dee8e92c11610071578063dee8e92c14610271578063e04ceea414610297578063e1c7392a1461029f578063f2fde38b146102a7578063f4bd4829146102cd5761012c565b80637dd0480f146101f15780638da5cb5b146101f95780638f32d59b1461021d578063a44faec514610225578063c4d66de81461024b5761012c565b80631ec85d5f116100f45780631ec85d5f146101b75780631fe6cb20146101bf5780632f314abd146101c75780634e10a86b146101cf578063715018a6146101e95761012c565b80630149509e146101315780630e68bc2e14610150578063133a01c41461016d578063180de443146101755780631acb9f21146101af575b600080fd5b61014e6004803603602081101561014757600080fd5b50356102d5565b005b61014e6004803603602081101561016657600080fd5b503561037c565b61014e610423565b61019b6004803603602081101561018b57600080fd5b50356001600160a01b031661053c565b604080519115158252519081900360200190f35b61014e61056c565b61019b610612565b61014e610620565b61019b6106d3565b6101d76106e1565b60408051918252519081900360200190f35b61014e6106fa565b61014e61078b565b610201610899565b604080516001600160a01b039092168252519081900360200190f35b61019b6108a8565b61014e6004803603602081101561023b57600080fd5b50356001600160a01b03166108ce565b61014e6004803603602081101561026157600080fd5b50356001600160a01b0316610995565b61014e6004803603602081101561028757600080fd5b50356001600160a01b0316610a87565b61014e610b51565b61014e610c6a565b61014e600480360360208110156102bd57600080fd5b50356001600160a01b0316610d15565b61014e610d65565b6102dd6108a8565b61031c576040805162461bcd60e51b81526020600482018190526024820152600080516020610f45833981519152604482015290519081900360640190fd5b6040805142602080830182905283518084038201815283850180865281519190920120905260608201849052608082015290517f99cba779623d2d6034ccbc568d48c0ad0e6220290fdff1b116907d195be3acc49181900360a00190a150565b6103846108a8565b6103c3576040805162461bcd60e51b81526020600482018190526024820152600080516020610f45833981519152604482015290519081900360640190fd5b6040805142602080830182905283518084038201815283850180865281519190920120905260608201849052608082015290517ff994f1715e63484544feeb32a14d274d979ec6e707f21c22d022b481d16dbca99181900360a00190a150565b61042b6108a8565b61046a576040805162461bcd60e51b81526020600482018190526024820152600080516020610f45833981519152604482015290519081900360640190fd5b600160665460ff16600481111561047d57fe5b14806104995750600260665460ff16600481111561049757fe5b145b6104de576040805162461bcd60e51b8152602060048201526011602482015270109c9a5919d9481a5cc81858dd1a5d9959607a1b604482015290519081900360640190fd5b6066805460ff19169055604080514260208083019190915282518083038201815282840180855281519190920120905290517f33be6618fd27c05c281e1a4a253663f70a6bcc66bc3fa58e8942c221d30d1ee49181900360600190a1565b6001600160a01b03811660009081526067602052604081205460ff16610563576000610566565b60015b92915050565b6105746108a8565b6105b3576040805162461bcd60e51b81526020600482018190526024820152600080516020610f45833981519152604482015290519081900360640190fd5b6066805461ffff19169055604080514260208083019190915282518083038201815282840180855281519190920120905290517fb4ae907723b568ff969be24af344383ba1ac1b910c727922bb3410fce2461c3e9181900360600190a1565b606654610100900460ff1681565b6106286108a8565b610667576040805162461bcd60e51b81526020600482018190526024820152600080516020610f45833981519152604482015290519081900360640190fd5b60668054600361ff00199091166101001760ff1916179055604080514260208083019190915282518083038201815282840180855281519190920120905290517f262821c04ba724a026fbfac44ae92777735ff4f06697cc494ab8a5fc1370d0a79181900360600190a1565b606654610100900460ff1690565b60665460009060ff1660048111156106f557fe5b905090565b6107026108a8565b610741576040805162461bcd60e51b81526020600482018190526024820152600080516020610f45833981519152604482015290519081900360640190fd5b6033546040516000916001600160a01b0316907f8be0079c531659141344cd1fd0a4f28419497f9722a3daafe3b4186f6b6457e0908390a3603380546001600160a01b0319169055565b6107936108a8565b6107d2576040805162461bcd60e51b81526020600482018190526024820152600080516020610f45833981519152604482015290519081900360640190fd5b600060665460ff1660048111156107e557fe5b14610837576040805162461bcd60e51b815260206004820152601b60248201527f4272696467652069732073746f70706564206f72207061757365640000000000604482015290519081900360640190fd5b6066805460ff19166001179055604080514260208083019190915282518083038201815282840180855281519190920120905290517fb044e022de848f1c18131c6e56750c57befe237ccb04ab93e82e3c7e5daef599916060908290030190a1565b6033546001600160a01b031690565b6033546000906001600160a01b03166108bf610e73565b6001600160a01b031614905090565b6108d66108a8565b610915576040805162461bcd60e51b81526020600482018190526024820152600080516020610f45833981519152604482015290519081900360640190fd5b60408051426020808301829052835180840382018152838501808652815191909201209052336060830152608082015290517fd675c958749f3a7dab3db83963045f2e10c150fabd66358171e757b07afe28f09181900360a00190a16001600160a01b03166000908152606760205260409020805460ff19166001179055565b600054610100900460ff16806109ae57506109ae610e77565b806109bc575060005460ff16155b6109f75760405162461bcd60e51b815260040180806020018281038252602e815260200180610f65602e913960400191505060405180910390fd5b600054610100900460ff16158015610a22576000805460ff1961ff0019909116610100171660011790555b603380546001600160a01b0319166001600160a01b0384811691909117918290556040519116906000907f8be0079c531659141344cd1fd0a4f28419497f9722a3daafe3b4186f6b6457e0908290a38015610a83576000805461ff00191690555b5050565b610a8f6108a8565b610ace576040805162461bcd60e51b81526020600482018190526024820152600080516020610f45833981519152604482015290519081900360640190fd5b6001600160a01b038116600090815260676020908152604091829020805460ff1916905581514281830181905283518083038401815282850180865281519190940120909252336060820152608081019190915290517f7d7133a1df2edb24c642671dcdf0328bde56ef57f557e16e1dc33186812cc2df9181900360a00190a150565b610b596108a8565b610b98576040805162461bcd60e51b81526020600482018190526024820152600080516020610f45833981519152604482015290519081900360640190fd5b600160665460ff166004811115610bab57fe5b1480610bc75750600260665460ff166004811115610bc557fe5b145b610c0c576040805162461bcd60e51b8152602060048201526011602482015270109c9a5919d9481a5cc81858dd1a5d9959607a1b604482015290519081900360640190fd5b6066805460ff19169055604080514260208083019190915282518083038201815282840180855281519190920120905290517ff7c186ab8568815e49328072fc72caaf8679022ef8448454664698f24f0da9939181900360600190a1565b600054610100900460ff1680610c835750610c83610e77565b80610c91575060005460ff16155b610ccc5760405162461bcd60e51b815260040180806020018281038252602e815260200180610f65602e913960400191505060405180910390fd5b600054610100900460ff16158015610cf7576000805460ff1961ff0019909116610100171660011790555b610d0033610995565b8015610d12576000805461ff00191690555b50565b610d1d6108a8565b610d5c576040805162461bcd60e51b81526020600482018190526024820152600080516020610f45833981519152604482015290519081900360640190fd5b610d1281610e7d565b610d6d6108a8565b610dac576040805162461bcd60e51b81526020600482018190526024820152600080516020610f45833981519152604482015290519081900360640190fd5b600060665460ff166004811115610dbf57fe5b14610e11576040805162461bcd60e51b815260206004820152601b60248201527f4272696467652069732073746f70706564206f72207061757365640000000000604482015290519081900360640190fd5b6066805460ff19166002179055604080514260208083019190915282518083038201815282840180855281519190920120905290517f9f4c1a26f1b12e1d6784e02920ad4bf9bafe439704578ce21e919e45c99eaef3916060908290030190a1565b3390565b303b1590565b6001600160a01b038116610ec25760405162461bcd60e51b8152600401808060200182810382526026815260200180610f1f6026913960400191505060405180910390fd5b6033546040516001600160a01b038084169216907f8be0079c531659141344cd1fd0a4f28419497f9722a3daafe3b4186f6b6457e090600090a3603380546001600160a01b0319166001600160a01b039290921691909117905556fe4f776e61626c653a206e6577206f776e657220697320746865207a65726f20616464726573734f776e61626c653a2063616c6c6572206973206e6f7420746865206f776e6572436f6e747261637420696e7374616e63652068617320616c7265616479206265656e20696e697469616c697a6564a265627a7a723158201e6b6f2fca3b45bd3d0d3c329f403ef7a38e1d6dbfadffd0adf4ac1ce303ccd964736f6c634300050c0032",
  "source": "pragma solidity ^0.5.12;\n\nimport \"../third-party/BokkyPooBahsDateTimeLibrary.sol\";\nimport \"@openzeppelin/upgrades/contracts/Initializable.sol\";\nimport \"../interfaces/IStatus.sol\";\nimport \"@openzeppelin/contracts-ethereum-package/contracts/ownership/Ownable.sol\";\n\ncontract Status is IStatus, Ownable {\n\n    using BokkyPooBahsDateTimeLibrary for uint;\n\n    /*\n       Bridge pause/stop\n    */\n    event BridgeStarted(bytes32 messageID);\n    event BridgeStopped(bytes32 messageID);\n    event BridgeResumed(bytes32 messageID);\n    event BridgePaused(bytes32 messageID);\n\n    //ETH Account\n    event HostAccountPausedMessage(bytes32 messageID, address sender, uint timestamp);\n    event HostAccountResumedMessage(bytes32 messageID, address sender, uint timestamp);\n\n    //guest\n    event GuestAccountPausedMessage(bytes32 messageID, bytes32 recipient, uint timestamp);\n    event GuestAccountResumedMessage(bytes32 messageID, bytes32 recipient, uint timestamp);\n\n    event BridgePausedByVolume(bytes32 messageID);\n    event BridgeStartedByVolume(bytes32 messageID);\n\n    enum BridgeStatus {ACTIVE, PAUSED, STOPPED, PAUSED_BY_VOLUME, STOPPED_BY_VOLUME}\n\n    BridgeStatus internal bridgeStatus;\n\n    bool public pauseBridgeByVolumeBool;\n\n    mapping(address => bool) internal pauseAccountByVolume;\n\n    modifier activeBridgeStatus() {\n        require(bridgeStatus == BridgeStatus.ACTIVE, \"Bridge is stopped or paused\");\n        _;\n    }\n\n    modifier stoppedOrPausedBridgeStatus() {\n        require((bridgeStatus == BridgeStatus.PAUSED || bridgeStatus == BridgeStatus.STOPPED), \"Bridge is actived\");\n        _;\n    }\n\n    function pauseBridgeByVolume() external onlyOwner {\n        pauseBridgeByVolumeBool = true;\n        bridgeStatus = BridgeStatus.PAUSED_BY_VOLUME;\n        emit BridgePausedByVolume(keccak256(abi.encodePacked(now)));\n    }\n\n    function resumeBridgeByVolume() external onlyOwner {\n        pauseBridgeByVolumeBool = false;\n        bridgeStatus = BridgeStatus.ACTIVE;\n        emit BridgeStartedByVolume(keccak256(abi.encodePacked(now)));\n    }\n\n    function pausedByBridgeVolumeForAddress(address sender) external onlyOwner {\n        emit HostAccountPausedMessage(keccak256(abi.encodePacked(now)), msg.sender, now);\n        pauseAccountByVolume[sender] = true;\n    }\n\n    function resumedByBridgeVolumeForAddress(address sender) external onlyOwner {\n        pauseAccountByVolume[sender] = false;\n        emit HostAccountResumedMessage(keccak256(abi.encodePacked(now)), msg.sender, now);\n    }\n\n    function setPausedStatusForGuestAddress(bytes32 sender) external onlyOwner {\n       emit GuestAccountPausedMessage(keccak256(abi.encodePacked(now)), sender, now);\n    }\n\n    function setResumedStatusForGuestAddress(bytes32 sender) onlyOwner external\n    {\n       emit GuestAccountResumedMessage(keccak256(abi.encodePacked(now)), sender, now);\n    }\n\n    /* Bridge Status Function */\n    function startBridge() external \n    onlyOwner\n    stoppedOrPausedBridgeStatus \n    {\n        bridgeStatus = BridgeStatus.ACTIVE;\n        emit BridgeStarted(keccak256(abi.encodePacked(now)));\n    }\n\n    function resumeBridge() external\n    onlyOwner\n    stoppedOrPausedBridgeStatus \n    {\n        bridgeStatus = BridgeStatus.ACTIVE;\n        emit BridgeResumed(keccak256(abi.encodePacked(now)));\n    }\n\n    function stopBridge() external \n    onlyOwner\n    activeBridgeStatus\n    {\n    \n        bridgeStatus = BridgeStatus.STOPPED;\n        emit BridgeStopped(keccak256(abi.encodePacked(now)));\n    }\n\n    function pauseBridge() external \n    onlyOwner\n    activeBridgeStatus\n    {\n        bridgeStatus = BridgeStatus.PAUSED;\n        emit BridgePaused(keccak256(abi.encodePacked(now)));\n    }\n\n    function getStatusBridge() external  view returns(uint) {\n        return uint(bridgeStatus);\n    }\n\n    function getStatusForAccount(address account) external view returns(bool) {\n        return pauseAccountByVolume[account] ? true : false;\n    }\n\n    function init() initializer public {\n        Ownable.initialize(msg.sender);\n    }\n    \n    function isPausedByBridgVolume() public view returns(bool) {\n        return pauseBridgeByVolumeBool;\n    }\n}",
  "sourcePath": "/home/pickle/Documents/bch/eth-bridge-module/contracts/bridge/Status.sol",
  "compiler": {
    "name": "solc",
    "version": "0.5.12+commit.7709ece9.Emscripten.clang"
  },
  "schemaVersion": "3.0.16",
  "updatedAt": "2020-03-06T12:15:43.879Z",
  "devdoc": {
    "methods": {
      "initialize(address)": {
        "details": "Initializes the contract setting the deployer as the initial owner."
      },
      "isOwner()": {
        "details": "Returns true if the caller is the current owner."
      },
      "owner()": {
        "details": "Returns the address of the current owner."
      },
      "renounceOwnership()": {
        "details": "Leaves the contract without owner. It will not be possible to call `onlyOwner` functions anymore. Can only be called by the current owner.     * > Note: Renouncing ownership will leave the contract without an owner, thereby removing any functionality that is only available to the owner."
      },
      "transferOwnership(address)": {
        "details": "Transfers ownership of the contract to a new account (`newOwner`). Can only be called by the current owner."
      }
    }
  },
  "userdoc": {
    "methods": {}
  }
}