{
  "contractName": "Transfers",
  "abi": [
    {
      "anonymous": false,
      "inputs": [
        {
          "indexed": false,
          "internalType": "bytes32",
          "name": "messageID",
          "type": "bytes32"
        },
        {
          "indexed": false,
          "internalType": "address",
          "name": "sender",
          "type": "address"
        },
        {
          "indexed": false,
          "internalType": "bytes32",
          "name": "recipient",
          "type": "bytes32"
        },
        {
          "indexed": false,
          "internalType": "uint256",
          "name": "amount",
          "type": "uint256"
        },
        {
          "indexed": false,
          "internalType": "address",
          "name": "token",
          "type": "address"
        }
      ],
      "name": "ApprovedRelayMessage",
      "type": "event"
    },
    {
      "anonymous": false,
      "inputs": [
        {
          "indexed": false,
          "internalType": "bytes32",
          "name": "messageID",
          "type": "bytes32"
        },
        {
          "indexed": false,
          "internalType": "address",
          "name": "sender",
          "type": "address"
        },
        {
          "indexed": false,
          "internalType": "bytes32",
          "name": "recipient",
          "type": "bytes32"
        },
        {
          "indexed": false,
          "internalType": "uint256",
          "name": "amount",
          "type": "uint256"
        },
        {
          "indexed": false,
          "internalType": "address",
          "name": "token",
          "type": "address"
        }
      ],
      "name": "ConfirmCancelMessage",
      "type": "event"
    },
    {
      "anonymous": false,
      "inputs": [
        {
          "indexed": false,
          "internalType": "bytes32",
          "name": "messageID",
          "type": "bytes32"
        },
        {
          "indexed": false,
          "internalType": "address",
          "name": "sender",
          "type": "address"
        },
        {
          "indexed": false,
          "internalType": "bytes32",
          "name": "recipient",
          "type": "bytes32"
        },
        {
          "indexed": false,
          "internalType": "uint256",
          "name": "amount",
          "type": "uint256"
        },
        {
          "indexed": false,
          "internalType": "address",
          "name": "token",
          "type": "address"
        }
      ],
      "name": "ConfirmMessage",
      "type": "event"
    },
    {
      "anonymous": false,
      "inputs": [
        {
          "indexed": false,
          "internalType": "bytes32",
          "name": "messageID",
          "type": "bytes32"
        },
        {
          "indexed": false,
          "internalType": "address",
          "name": "sender",
          "type": "address"
        },
        {
          "indexed": false,
          "internalType": "bytes32",
          "name": "recipient",
          "type": "bytes32"
        },
        {
          "indexed": false,
          "internalType": "uint256",
          "name": "amount",
          "type": "uint256"
        },
        {
          "indexed": false,
          "internalType": "address",
          "name": "token",
          "type": "address"
        }
      ],
      "name": "ConfirmWithdrawMessage",
      "type": "event"
    },
    {
      "anonymous": false,
      "inputs": [
        {
          "indexed": true,
          "internalType": "address",
          "name": "previousOwner",
          "type": "address"
        },
        {
          "indexed": true,
          "internalType": "address",
          "name": "newOwner",
          "type": "address"
        }
      ],
      "name": "OwnershipTransferred",
      "type": "event"
    },
    {
      "anonymous": false,
      "inputs": [
        {
          "indexed": false,
          "internalType": "bytes32",
          "name": "messageID",
          "type": "bytes32"
        },
        {
          "indexed": false,
          "internalType": "address",
          "name": "sender",
          "type": "address"
        },
        {
          "indexed": false,
          "internalType": "bytes32",
          "name": "recipient",
          "type": "bytes32"
        },
        {
          "indexed": false,
          "internalType": "uint256",
          "name": "amount",
          "type": "uint256"
        },
        {
          "indexed": false,
          "internalType": "address",
          "name": "token",
          "type": "address"
        }
      ],
      "name": "RelayMessage",
      "type": "event"
    },
    {
      "anonymous": false,
      "inputs": [
        {
          "indexed": false,
          "internalType": "bytes32",
          "name": "messageID",
          "type": "bytes32"
        },
        {
          "indexed": false,
          "internalType": "address",
          "name": "sender",
          "type": "address"
        },
        {
          "indexed": false,
          "internalType": "uint256",
          "name": "amount",
          "type": "uint256"
        },
        {
          "indexed": false,
          "internalType": "address",
          "name": "token",
          "type": "address"
        }
      ],
      "name": "RevertMessage",
      "type": "event"
    },
    {
      "anonymous": false,
      "inputs": [
        {
          "indexed": false,
          "internalType": "bytes32",
          "name": "messageID",
          "type": "bytes32"
        },
        {
          "indexed": false,
          "internalType": "address",
          "name": "recepient",
          "type": "address"
        },
        {
          "indexed": false,
          "internalType": "bytes32",
          "name": "sender",
          "type": "bytes32"
        },
        {
          "indexed": false,
          "internalType": "uint256",
          "name": "amount",
          "type": "uint256"
        },
        {
          "indexed": false,
          "internalType": "address",
          "name": "token",
          "type": "address"
        }
      ],
      "name": "WithdrawMessage",
      "type": "event"
    },
    {
      "constant": false,
      "inputs": [
        {
          "internalType": "address",
          "name": "sender",
          "type": "address"
        }
      ],
      "name": "initialize",
      "outputs": [],
      "payable": false,
      "stateMutability": "nonpayable",
      "type": "function"
    },
    {
      "constant": true,
      "inputs": [],
      "name": "isOwner",
      "outputs": [
        {
          "internalType": "bool",
          "name": "",
          "type": "bool"
        }
      ],
      "payable": false,
      "stateMutability": "view",
      "type": "function"
    },
    {
      "constant": true,
      "inputs": [],
      "name": "owner",
      "outputs": [
        {
          "internalType": "address",
          "name": "",
          "type": "address"
        }
      ],
      "payable": false,
      "stateMutability": "view",
      "type": "function"
    },
    {
      "constant": false,
      "inputs": [],
      "name": "renounceOwnership",
      "outputs": [],
      "payable": false,
      "stateMutability": "nonpayable",
      "type": "function"
    },
    {
      "constant": false,
      "inputs": [
        {
          "internalType": "address",
          "name": "newOwner",
          "type": "address"
        }
      ],
      "name": "transferOwnership",
      "outputs": [],
      "payable": false,
      "stateMutability": "nonpayable",
      "type": "function"
    },
    {
      "constant": false,
      "inputs": [
        {
          "internalType": "uint256",
          "name": "amount",
          "type": "uint256"
        },
        {
          "internalType": "address",
          "name": "owner",
          "type": "address"
        },
        {
          "internalType": "bytes32",
          "name": "guestAddress",
          "type": "bytes32"
        }
      ],
      "name": "setTransfer",
      "outputs": [],
      "payable": false,
      "stateMutability": "nonpayable",
      "type": "function"
    },
    {
      "constant": false,
      "inputs": [
        {
          "internalType": "bytes32",
          "name": "messageID",
          "type": "bytes32"
        }
      ],
      "name": "revertTransfer",
      "outputs": [],
      "payable": false,
      "stateMutability": "nonpayable",
      "type": "function"
    },
    {
      "constant": false,
      "inputs": [
        {
          "internalType": "bytes32",
          "name": "messageID",
          "type": "bytes32"
        },
        {
          "internalType": "address",
          "name": "spender",
          "type": "address"
        },
        {
          "internalType": "bytes32",
          "name": "guestAddress",
          "type": "bytes32"
        },
        {
          "internalType": "uint256",
          "name": "availableAmount",
          "type": "uint256"
        }
      ],
      "name": "approveTransfer",
      "outputs": [],
      "payable": false,
      "stateMutability": "nonpayable",
      "type": "function"
    },
    {
      "constant": false,
      "inputs": [
        {
          "internalType": "bytes32",
          "name": "messageID",
          "type": "bytes32"
        }
      ],
      "name": "confirmTransfer",
      "outputs": [],
      "payable": false,
      "stateMutability": "nonpayable",
      "type": "function"
    },
    {
      "constant": false,
      "inputs": [
        {
          "internalType": "bytes32",
          "name": "messageID",
          "type": "bytes32"
        },
        {
          "internalType": "bytes32",
          "name": "sender",
          "type": "bytes32"
        },
        {
          "internalType": "address",
          "name": "recipient",
          "type": "address"
        },
        {
          "internalType": "uint256",
          "name": "availableAmount",
          "type": "uint256"
        }
      ],
      "name": "withdrawTransfer",
      "outputs": [],
      "payable": false,
      "stateMutability": "nonpayable",
      "type": "function"
    },
    {
      "constant": false,
      "inputs": [
        {
          "internalType": "bytes32",
          "name": "messageID",
          "type": "bytes32"
        }
      ],
      "name": "confirmWithdrawTransfer",
      "outputs": [],
      "payable": false,
      "stateMutability": "nonpayable",
      "type": "function"
    },
    {
      "constant": false,
      "inputs": [
        {
          "internalType": "bytes32",
          "name": "messageID",
          "type": "bytes32"
        }
      ],
      "name": "confirmCancelTransfer",
      "outputs": [],
      "payable": false,
      "stateMutability": "nonpayable",
      "type": "function"
    },
    {
      "constant": false,
      "inputs": [
        {
          "internalType": "contract IERC20",
          "name": "_token",
          "type": "address"
        },
        {
          "internalType": "contract IStatus",
          "name": "_status",
          "type": "address"
        },
        {
          "internalType": "contract ILimits",
          "name": "_limits",
          "type": "address"
        }
      ],
      "name": "init",
      "outputs": [],
      "payable": false,
      "stateMutability": "nonpayable",
      "type": "function"
    },
    {
      "constant": true,
      "inputs": [
        {
          "internalType": "bytes32",
          "name": "messageID",
          "type": "bytes32"
        }
      ],
      "name": "getMessageStatus",
      "outputs": [
        {
          "internalType": "uint256",
          "name": "",
          "type": "uint256"
        }
      ],
      "payable": false,
      "stateMutability": "view",
      "type": "function"
    },
    {
      "constant": true,
      "inputs": [
        {
          "internalType": "bytes32",
          "name": "messageID",
          "type": "bytes32"
        }
      ],
      "name": "isExistsMessage",
      "outputs": [
        {
          "internalType": "bool",
          "name": "",
          "type": "bool"
        }
      ],
      "payable": false,
      "stateMutability": "view",
      "type": "function"
    },
    {
      "constant": true,
      "inputs": [
        {
          "internalType": "bytes32",
          "name": "messageID",
          "type": "bytes32"
        }
      ],
      "name": "getHost",
      "outputs": [
        {
          "internalType": "address",
          "name": "",
          "type": "address"
        }
      ],
      "payable": false,
      "stateMutability": "view",
      "type": "function"
    },
    {
      "constant": true,
      "inputs": [
        {
          "internalType": "bytes32",
          "name": "messageID",
          "type": "bytes32"
        }
      ],
      "name": "getGuest",
      "outputs": [
        {
          "internalType": "bytes32",
          "name": "",
          "type": "bytes32"
        }
      ],
      "payable": false,
      "stateMutability": "view",
      "type": "function"
    },
    {
      "constant": true,
      "inputs": [
        {
          "internalType": "bytes32",
          "name": "messageID",
          "type": "bytes32"
        }
      ],
      "name": "getAvailableAmount",
      "outputs": [
        {
          "internalType": "uint256",
          "name": "",
          "type": "uint256"
        }
      ],
      "payable": false,
      "stateMutability": "view",
      "type": "function"
    },
    {
      "constant": true,
      "inputs": [
        {
          "internalType": "address",
          "name": "sender",
          "type": "address"
        }
      ],
      "name": "_getFirstMessageIDByAddress",
      "outputs": [
        {
          "internalType": "bytes32",
          "name": "",
          "type": "bytes32"
        }
      ],
      "payable": false,
      "stateMutability": "view",
      "type": "function"
    }
  ],
  "bytecode": "0x6080604052614864806100136000396000f3fe608060405234801561001057600080fd5b50600436106101215760003560e01c806386a1fd99116100ad578063c4d66de811610071578063c4d66de8146102fa578063c714aaa214610320578063f279db4a14610358578063f2fde38b14610375578063fff41e361461039b57610121565b806386a1fd991461027e5780638da5cb5b146102b05780638edf03d6146102b85780638f32d59b146102d5578063a63ddde5146102dd57610121565b80635075a9d4116100f45780635075a9d4146101cb5780636a2f732a146101fa5780636b00c8cf146102175780636b80f61114610250578063715018a61461027657610121565b80630121432614610126578063184b95591461015757806336a55b3814610191578063412a862a146101ae575b600080fd5b6101436004803603602081101561013c57600080fd5b50356103d3565b604080519115158252519081900360200190f35b61018f6004803603606081101561016d57600080fd5b506001600160a01b0381358116916020810135821691604090910135166103eb565b005b61018f600480360360208110156101a757600080fd5b50356104d6565b61018f600480360360208110156101c457600080fd5b5035610ed9565b6101e8600480360360208110156101e157600080fd5b5035611047565b60408051918252519081900360200190f35b6101e86004803603602081101561021057600080fd5b5035611072565b6102346004803603602081101561022d57600080fd5b5035611087565b604080516001600160a01b039092168252519081900360200190f35b6101e86004803603602081101561026657600080fd5b50356001600160a01b03166110a5565b61018f6110d9565b61018f6004803603606081101561029457600080fd5b508035906001600160a01b03602082013516906040013561116a565b610234613001565b61018f600480360360208110156102ce57600080fd5b5035613010565b610143613b44565b6101e8600480360360208110156102f357600080fd5b5035613b6a565b61018f6004803603602081101561031057600080fd5b50356001600160a01b0316613b7f565b61018f6004803603608081101561033657600080fd5b508035906020810135906001600160a01b036040820135169060600135613c70565b61018f6004803603602081101561036e57600080fd5b5035613f18565b61018f6004803603602081101561038b57600080fd5b50356001600160a01b03166140f6565b61018f600480360360808110156103b157600080fd5b508035906001600160a01b036020820135169060408101359060600135614146565b6000908152606c602052604090206004015460ff1690565b600054610100900460ff1680610404575061040461436b565b80610412575060005460ff16155b61044d5760405162461bcd60e51b815260040180806020018281038252602e8152602001806147da602e913960400191505060405180910390fd5b600054610100900460ff16158015610478576000805460ff1961ff0019909116610100171660011790555b61048133613b7f565b606680546001600160a01b038087166001600160a01b03199283161790925560688054868416908316179055606780549285169290911691909117905580156104d0576000805461ff00191690555b50505050565b6104de613b44565b61051d576040805162461bcd60e51b815260206004820181905260248201526000805160206147ba833981519152604482015290519081900360640190fd5b6000818152606c6020526040902060040154819060ff168015610564575060026000828152606c6020526040902060040154610100900460ff16600681111561056257fe5b145b6105af576040805162461bcd60e51b815260206004820152601760248201527613595cdcd859d9481a5cc81b9bdd08185c1c1c9bdd9959604a1b604482015290519081900360640190fd5b606760009054906101000a90046001600160a01b03166001600160a01b031663dd90c6906040518163ffffffff1660e01b815260040160206040518083038186803b1580156105fd57600080fd5b505afa158015610611573d6000803e3d6000fd5b505050506040513d602081101561062757600080fd5b50516069600061063642614371565b61063f4261438f565b610648426143aa565b604051602001808481526020018381526020018281526020019350505050604051602081830303815290604052805190602001208152602001908152602001600020541115610a8457606760009054906101000a90046001600160a01b03166001600160a01b031663af3f2ea96040518163ffffffff1660e01b815260040160206040518083038186803b1580156106df57600080fd5b505afa1580156106f3573d6000803e3d6000fd5b505050506040513d602081101561070957600080fd5b5051606b600061071842614371565b6107214261438f565b61072a426143aa565b6040516020018084815260200183815260200182815260200193505050506040516020818303038152906040528051906020012081526020019081526020016000206000336001600160a01b03166001600160a01b0316815260200190815260200160002054111561089a576000828152606c6020526040902060048101805461ff001916610400179055600181015460038201546107d69185916001600160a01b03909116906143c5565b600181015460028201546003830154606654604080518881526001600160a01b039586166020820152808201949094526060840192909252909216608082015290516000805160206147348339815191529181900360a00190a1506068546040805163a44faec560e01b815233600482015290516001600160a01b039092169163a44faec59160248082019260009290919082900301818387803b15801561087d57600080fd5b505af1158015610891573d6000803e3d6000fd5b50505050610a17565b6068546040805163180de44360e01b815233600482015290516001600160a01b039092169163180de44391602480820192602092909190829003018186803b1580156108e557600080fd5b505afa1580156108f9573d6000803e3d6000fd5b505050506040513d602081101561090f57600080fd5b50511561097b57606854604080516337ba3a4b60e21b815233600482015290516001600160a01b039092169163dee8e92c9160248082019260009290919082900301818387803b15801561096257600080fd5b505af1158015610976573d6000803e3d6000fd5b505050505b6000828152606c6020526040902060048101805461ff001916610400179055600181015460038201546109bb9185916001600160a01b03909116906143c5565b600181015460028201546003830154606654604080518881526001600160a01b039586166020820152808201949094526060840192909252909216608082015290516000805160206147348339815191529181900360a00190a1505b606860009054906101000a90046001600160a01b03166001600160a01b0316631fe6cb206040518163ffffffff1660e01b8152600401600060405180830381600087803b158015610a6757600080fd5b505af1158015610a7b573d6000803e3d6000fd5b50505050610ed5565b606860009054906101000a90046001600160a01b03166001600160a01b0316632f314abd6040518163ffffffff1660e01b815260040160206040518083038186803b158015610ad257600080fd5b505afa158015610ae6573d6000803e3d6000fd5b505050506040513d6020811015610afc57600080fd5b505115610b6c57606860009054906101000a90046001600160a01b03166001600160a01b0316631acb9f216040518163ffffffff1660e01b8152600401600060405180830381600087803b158015610b5357600080fd5b505af1158015610b67573d6000803e3d6000fd5b505050505b606760009054906101000a90046001600160a01b03166001600160a01b031663af3f2ea96040518163ffffffff1660e01b815260040160206040518083038186803b158015610bba57600080fd5b505afa158015610bce573d6000803e3d6000fd5b505050506040513d6020811015610be457600080fd5b5051606b6000610bf342614371565b610bfc4261438f565b610c05426143aa565b6040516020018084815260200183815260200182815260200193505050506040516020818303038152906040528051906020012081526020019081526020016000206000336001600160a01b03166001600160a01b03168152602001908152602001600020541115610d58576000828152606c6020526040902060048101805461ff00191661040017905560018101546003820154610cb19185916001600160a01b03909116906143c5565b600181015460028201546003830154606654604080518881526001600160a01b039586166020820152808201949094526060840192909252909216608082015290516000805160206147348339815191529181900360a00190a1506068546040805163a44faec560e01b815233600482015290516001600160a01b039092169163a44faec59160248082019260009290919082900301818387803b158015610a6757600080fd5b6068546040805163180de44360e01b815233600482015290516001600160a01b039092169163180de44391602480820192602092909190829003018186803b158015610da357600080fd5b505afa158015610db7573d6000803e3d6000fd5b505050506040513d6020811015610dcd57600080fd5b505115610e3957606854604080516337ba3a4b60e21b815233600482015290516001600160a01b039092169163dee8e92c9160248082019260009290919082900301818387803b158015610e2057600080fd5b505af1158015610e34573d6000803e3d6000fd5b505050505b6000828152606c6020526040902060048101805461ff00191661040017905560018101546003820154610e799185916001600160a01b03909116906143c5565b600181015460028201546003830154606654604080518881526001600160a01b039586166020820152808201949094526060840192909252909216608082015290516000805160206147348339815191529181900360a00190a1505b5050565b610ee1613b44565b610f20576040805162461bcd60e51b815260206004820181905260248201526000805160206147ba833981519152604482015290519081900360640190fd5b6000818152606c6020526040902060040154819060ff168015610f67575060036000828152606c6020526040902060040154610100900460ff166006811115610f6557fe5b145b610fb8576040805162461bcd60e51b815260206004820152601760248201527f4d657373616765206973206e6f742063616e63656c6564000000000000000000604482015290519081900360640190fd5b6000828152606c602090815260409182902060048101805461ff00191661060017905560018101546002820154600383015460665486518981526001600160a01b039485169681019690965285870192909252606085015216608083015291517fb084fd0545ed9adce1e5f9542c4ab975234a4824e21a215a242f1cede415bf349181900360a00190a1505050565b6000818152606c6020526040812060040154610100900460ff16600681111561106c57fe5b92915050565b6000908152606c602052604090206002015490565b6000908152606c60205260409020600101546001600160a01b031690565b6001600160a01b0381166000908152606d60205260408120805482906110c757fe5b90600052602060002001549050919050565b6110e1613b44565b611120576040805162461bcd60e51b815260206004820181905260248201526000805160206147ba833981519152604482015290519081900360640190fd5b6033546040516000916001600160a01b0316907f8be0079c531659141344cd1fd0a4f28419497f9722a3daafe3b4186f6b6457e0908390a3603380546001600160a01b0319169055565b611172613b44565b6111b1576040805162461bcd60e51b815260206004820181905260248201526000805160206147ba833981519152604482015290519081900360640190fd5b60675460408051633e5fc18b60e01b8152905185926001600160a01b031691633e5fc18b916004808301926020929190829003018186803b1580156111f557600080fd5b505afa158015611209573d6000803e3d6000fd5b505050506040513d602081101561121f57600080fd5b5051811080156112a75750606760009054906101000a90046001600160a01b03166001600160a01b0316638021fa726040518163ffffffff1660e01b815260040160206040518083038186803b15801561127857600080fd5b505afa15801561128c573d6000803e3d6000fd5b505050506040513d60208110156112a257600080fd5b505181105b6112e25760405162461bcd60e51b81526004018080602001828103825260288152602001806148086028913960400191505060405180910390fd5b606760009054906101000a90046001600160a01b03166001600160a01b031663f371da056040518163ffffffff1660e01b815260040160206040518083038186803b15801561133057600080fd5b505afa158015611344573d6000803e3d6000fd5b505050506040513d602081101561135a57600080fd5b5051606a600061136942614371565b6113724261438f565b61137b426143aa565b60405160200180848152602001838152602001828152602001935050505060405160208183030381529060405280519060200120815260200190815260200160002054111561257f57606760009054906101000a90046001600160a01b03166001600160a01b031663dd90c6906040518163ffffffff1660e01b815260040160206040518083038186803b15801561141257600080fd5b505afa158015611426573d6000803e3d6000fd5b505050506040513d602081101561143c57600080fd5b50516069600061144b42614371565b6114544261438f565b61145d426143aa565b604051602001808481526020018381526020018281526020019350505050604051602081830303815290604052805190602001208152602001908152602001600020541115611cad57606760009054906101000a90046001600160a01b03166001600160a01b031663af3f2ea96040518163ffffffff1660e01b815260040160206040518083038186803b1580156114f457600080fd5b505afa158015611508573d6000803e3d6000fd5b505050506040513d602081101561151e57600080fd5b5051606b600061152d42614371565b6115364261438f565b61153f426143aa565b6040516020018084815260200183815260200182815260200193505050506040516020818303038152906040528051906020012081526020019081526020016000206000336001600160a01b03166001600160a01b031681526020019081526020016000205411156118b95760665460408051636eb1769f60e11b81526001600160a01b038087166004830152306024830152915186938893849391169163dd62ed3e91604480820192602092909190829003018186803b15801561160357600080fd5b505afa158015611617573d6000803e3d6000fd5b505050506040513d602081101561162d57600080fd5b5051101561166c5760405162461bcd60e51b81526004018080602001828103825260268152602001806147746026913960400191505060405180910390fd5b606654604080516323b872dd60e01b81526001600160a01b038881166004830152306024830152604482018a9052915191909216916323b872dd9160648083019260209291908290030181600087803b1580156116c857600080fd5b505af11580156116dc573d6000803e3d6000fd5b505050506040513d60208110156116f257600080fd5b50506040805142602082810191909152825180830382018152918301909252805191012061171e6146da565b506040805160c0810182528281526001600160a01b0388811660208084019182528385018a8152606085018d8152600160808701818152600060a089018181528b8252606c9096529890982087518155945190850180546001600160a01b031916919096161790945551600283015591516003820155925160048401805460ff191691151591909117808255915192938493909290919061ff0019166101008360068111156117c957fe5b021790555050506001600160a01b0387166000908152606d6020908152604082208054600181018255908352912001829055611804886144b2565b606654604080518481526001600160a01b03808b1660208301528183018a9052606082018c90529092166080830152516000805160206147548339815191529181900360a00190a150506068546040805163a44faec560e01b815233600482015290516001600160a01b03909216935063a44faec5925060248082019260009290919082900301818387803b15801561189c57600080fd5b505af11580156118b0573d6000803e3d6000fd5b50505050611c40565b6068546040805163180de44360e01b815233600482015290516001600160a01b039092169163180de44391602480820192602092909190829003018186803b15801561190457600080fd5b505afa158015611918573d6000803e3d6000fd5b505050506040513d602081101561192e57600080fd5b50511561199a57606854604080516337ba3a4b60e21b815233600482015290516001600160a01b039092169163dee8e92c9160248082019260009290919082900301818387803b15801561198157600080fd5b505af1158015611995573d6000803e3d6000fd5b505050505b60665460408051636eb1769f60e11b81526001600160a01b038087166004830152306024830152915186938893849391169163dd62ed3e91604480820192602092909190829003018186803b1580156119f257600080fd5b505afa158015611a06573d6000803e3d6000fd5b505050506040513d6020811015611a1c57600080fd5b50511015611a5b5760405162461bcd60e51b81526004018080602001828103825260268152602001806147746026913960400191505060405180910390fd5b606654604080516323b872dd60e01b81526001600160a01b038881166004830152306024830152604482018a9052915191909216916323b872dd9160648083019260209291908290030181600087803b158015611ab757600080fd5b505af1158015611acb573d6000803e3d6000fd5b505050506040513d6020811015611ae157600080fd5b505060408051426020828101919091528251808303820181529183019092528051910120611b0d6146da565b506040805160c0810182528281526001600160a01b0388811660208084019182528385018a8152606085018d8152600160808701818152600060a089018181528b8252606c9096529890982087518155945190850180546001600160a01b031916919096161790945551600283015591516003820155925160048401805460ff191691151591909117808255915192938493909290919061ff001916610100836006811115611bb857fe5b021790555050506001600160a01b0387166000908152606d6020908152604082208054600181018255908352912001829055611bf3886144b2565b606654604080518481526001600160a01b03808b1660208301528183018a9052606082018c90529092166080830152516000805160206147548339815191529181900360a00190a1505050505b606860009054906101000a90046001600160a01b03166001600160a01b0316631fe6cb206040518163ffffffff1660e01b8152600401600060405180830381600087803b158015611c9057600080fd5b505af1158015611ca4573d6000803e3d6000fd5b50505050612512565b606860009054906101000a90046001600160a01b03166001600160a01b0316632f314abd6040518163ffffffff1660e01b815260040160206040518083038186803b158015611cfb57600080fd5b505afa158015611d0f573d6000803e3d6000fd5b505050506040513d6020811015611d2557600080fd5b505115611d9557606860009054906101000a90046001600160a01b03166001600160a01b0316631acb9f216040518163ffffffff1660e01b8152600401600060405180830381600087803b158015611d7c57600080fd5b505af1158015611d90573d6000803e3d6000fd5b505050505b606760009054906101000a90046001600160a01b03166001600160a01b031663af3f2ea96040518163ffffffff1660e01b815260040160206040518083038186803b158015611de357600080fd5b505afa158015611df7573d6000803e3d6000fd5b505050506040513d6020811015611e0d57600080fd5b5051606b6000611e1c42614371565b611e254261438f565b611e2e426143aa565b6040516020018084815260200183815260200182815260200193505050506040516020818303038152906040528051906020012081526020019081526020016000206000336001600160a01b03166001600160a01b0316815260200190815260200160002054111561218b5760665460408051636eb1769f60e11b81526001600160a01b038087166004830152306024830152915186938893849391169163dd62ed3e91604480820192602092909190829003018186803b158015611ef257600080fd5b505afa158015611f06573d6000803e3d6000fd5b505050506040513d6020811015611f1c57600080fd5b50511015611f5b5760405162461bcd60e51b81526004018080602001828103825260268152602001806147746026913960400191505060405180910390fd5b606654604080516323b872dd60e01b81526001600160a01b038881166004830152306024830152604482018a9052915191909216916323b872dd9160648083019260209291908290030181600087803b158015611fb757600080fd5b505af1158015611fcb573d6000803e3d6000fd5b505050506040513d6020811015611fe157600080fd5b50506040805142602082810191909152825180830382018152918301909252805191012061200d6146da565b506040805160c0810182528281526001600160a01b0388811660208084019182528385018a8152606085018d8152600160808701818152600060a089018181528b8252606c9096529890982087518155945190850180546001600160a01b031916919096161790945551600283015591516003820155925160048401805460ff191691151591909117808255915192938493909290919061ff0019166101008360068111156120b857fe5b021790555050506001600160a01b0387166000908152606d60209081526040822080546001810182559083529120018290556120f3886144b2565b606654604080518481526001600160a01b03808b1660208301528183018a9052606082018c90529092166080830152516000805160206147548339815191529181900360a00190a150506068546040805163a44faec560e01b815233600482015290516001600160a01b03909216935063a44faec5925060248082019260009290919082900301818387803b158015611c9057600080fd5b6068546040805163180de44360e01b815233600482015290516001600160a01b039092169163180de44391602480820192602092909190829003018186803b1580156121d657600080fd5b505afa1580156121ea573d6000803e3d6000fd5b505050506040513d602081101561220057600080fd5b50511561226c57606854604080516337ba3a4b60e21b815233600482015290516001600160a01b039092169163dee8e92c9160248082019260009290919082900301818387803b15801561225357600080fd5b505af1158015612267573d6000803e3d6000fd5b505050505b60665460408051636eb1769f60e11b81526001600160a01b038087166004830152306024830152915186938893849391169163dd62ed3e91604480820192602092909190829003018186803b1580156122c457600080fd5b505afa1580156122d8573d6000803e3d6000fd5b505050506040513d60208110156122ee57600080fd5b5051101561232d5760405162461bcd60e51b81526004018080602001828103825260268152602001806147746026913960400191505060405180910390fd5b606654604080516323b872dd60e01b81526001600160a01b038881166004830152306024830152604482018a9052915191909216916323b872dd9160648083019260209291908290030181600087803b15801561238957600080fd5b505af115801561239d573d6000803e3d6000fd5b505050506040513d60208110156123b357600080fd5b5050604080514260208281019190915282518083038201815291830190925280519101206123df6146da565b506040805160c0810182528281526001600160a01b0388811660208084019182528385018a8152606085018d8152600160808701818152600060a089018181528b8252606c9096529890982087518155945190850180546001600160a01b031916919096161790945551600283015591516003820155925160048401805460ff191691151591909117808255915192938493909290919061ff00191661010083600681111561248a57fe5b021790555050506001600160a01b0387166000908152606d60209081526040822080546001810182559083529120018290556124c5886144b2565b606654604080518481526001600160a01b03808b1660208301528183018a9052606082018c90529092166080830152516000805160206147548339815191529181900360a00190a1505050505b606860009054906101000a90046001600160a01b03166001600160a01b0316631fe6cb206040518163ffffffff1660e01b8152600401600060405180830381600087803b15801561256257600080fd5b505af1158015612576573d6000803e3d6000fd5b505050506104d0565b606860009054906101000a90046001600160a01b03166001600160a01b0316632f314abd6040518163ffffffff1660e01b815260040160206040518083038186803b1580156125cd57600080fd5b505afa1580156125e1573d6000803e3d6000fd5b505050506040513d60208110156125f757600080fd5b50511561266757606860009054906101000a90046001600160a01b03166001600160a01b0316631acb9f216040518163ffffffff1660e01b8152600401600060405180830381600087803b15801561264e57600080fd5b505af1158015612662573d6000803e3d6000fd5b505050505b606760009054906101000a90046001600160a01b03166001600160a01b031663dd90c6906040518163ffffffff1660e01b815260040160206040518083038186803b1580156126b557600080fd5b505afa1580156126c9573d6000803e3d6000fd5b505050506040513d60208110156126df57600080fd5b5051606960006126ee42614371565b6126f74261438f565b612700426143aa565b60405160200180848152602001838152602001828152602001935050505060405160208183030381529060405280519060200120815260200190815260200160002054111561279757606760009054906101000a90046001600160a01b03166001600160a01b031663af3f2ea96040518163ffffffff1660e01b815260040160206040518083038186803b158015611de357600080fd5b606860009054906101000a90046001600160a01b03166001600160a01b0316632f314abd6040518163ffffffff1660e01b815260040160206040518083038186803b1580156127e557600080fd5b505afa1580156127f9573d6000803e3d6000fd5b505050506040513d602081101561280f57600080fd5b50511561287f57606860009054906101000a90046001600160a01b03166001600160a01b0316631acb9f216040518163ffffffff1660e01b8152600401600060405180830381600087803b15801561286657600080fd5b505af115801561287a573d6000803e3d6000fd5b505050505b606760009054906101000a90046001600160a01b03166001600160a01b031663af3f2ea96040518163ffffffff1660e01b815260040160206040518083038186803b1580156128cd57600080fd5b505afa1580156128e1573d6000803e3d6000fd5b505050506040513d60208110156128f757600080fd5b5051606b600061290642614371565b61290f4261438f565b612918426143aa565b6040516020018084815260200183815260200182815260200193505050506040516020818303038152906040528051906020012081526020019081526020016000206000336001600160a01b03166001600160a01b03168152602001908152602001600020541115612c755760665460408051636eb1769f60e11b81526001600160a01b038087166004830152306024830152915186938893849391169163dd62ed3e91604480820192602092909190829003018186803b1580156129dc57600080fd5b505afa1580156129f0573d6000803e3d6000fd5b505050506040513d6020811015612a0657600080fd5b50511015612a455760405162461bcd60e51b81526004018080602001828103825260268152602001806147746026913960400191505060405180910390fd5b606654604080516323b872dd60e01b81526001600160a01b038881166004830152306024830152604482018a9052915191909216916323b872dd9160648083019260209291908290030181600087803b158015612aa157600080fd5b505af1158015612ab5573d6000803e3d6000fd5b505050506040513d6020811015612acb57600080fd5b505060408051426020828101919091528251808303820181529183019092528051910120612af76146da565b506040805160c0810182528281526001600160a01b0388811660208084019182528385018a8152606085018d8152600160808701818152600060a089018181528b8252606c9096529890982087518155945190850180546001600160a01b031916919096161790945551600283015591516003820155925160048401805460ff191691151591909117808255915192938493909290919061ff001916610100836006811115612ba257fe5b021790555050506001600160a01b0387166000908152606d6020908152604082208054600181018255908352912001829055612bdd886144b2565b606654604080518481526001600160a01b03808b1660208301528183018a9052606082018c90529092166080830152516000805160206147548339815191529181900360a00190a150506068546040805163a44faec560e01b815233600482015290516001600160a01b03909216935063a44faec5925060248082019260009290919082900301818387803b15801561256257600080fd5b6068546040805163180de44360e01b815233600482015290516001600160a01b039092169163180de44391602480820192602092909190829003018186803b158015612cc057600080fd5b505afa158015612cd4573d6000803e3d6000fd5b505050506040513d6020811015612cea57600080fd5b505115612d5657606854604080516337ba3a4b60e21b815233600482015290516001600160a01b039092169163dee8e92c9160248082019260009290919082900301818387803b158015612d3d57600080fd5b505af1158015612d51573d6000803e3d6000fd5b505050505b60665460408051636eb1769f60e11b81526001600160a01b038087166004830152306024830152915186938893849391169163dd62ed3e91604480820192602092909190829003018186803b158015612dae57600080fd5b505afa158015612dc2573d6000803e3d6000fd5b505050506040513d6020811015612dd857600080fd5b50511015612e175760405162461bcd60e51b81526004018080602001828103825260268152602001806147746026913960400191505060405180910390fd5b606654604080516323b872dd60e01b81526001600160a01b038881166004830152306024830152604482018a9052915191909216916323b872dd9160648083019260209291908290030181600087803b158015612e7357600080fd5b505af1158015612e87573d6000803e3d6000fd5b505050506040513d6020811015612e9d57600080fd5b505060408051426020828101919091528251808303820181529183019092528051910120612ec96146da565b506040805160c0810182528281526001600160a01b0388811660208084019182528385018a8152606085018d8152600160808701818152600060a089018181528b8252606c9096529890982087518155945190850180546001600160a01b031916919096161790945551600283015591516003820155925160048401805460ff191691151591909117808255915192938493909290919061ff001916610100836006811115612f7457fe5b021790555050506001600160a01b0387166000908152606d6020908152604082208054600181018255908352912001829055612faf886144b2565b606654604080518481526001600160a01b03808b1660208301528183018a9052606082018c90529092166080830152516000805160206147548339815191529181900360a00190a15050505050505050565b6033546001600160a01b031690565b613018613b44565b613057576040805162461bcd60e51b815260206004820181905260248201526000805160206147ba833981519152604482015290519081900360640190fd5b606760009054906101000a90046001600160a01b03166001600160a01b031663dd90c6906040518163ffffffff1660e01b815260040160206040518083038186803b1580156130a557600080fd5b505afa1580156130b9573d6000803e3d6000fd5b505050506040513d60208110156130cf57600080fd5b5051606960006130de42614371565b6130e74261438f565b6130f0426143aa565b60405160200180848152602001838152602001828152602001935050505060405160208183030381529060405280519060200120815260200190815260200160002054111561360e57606760009054906101000a90046001600160a01b03166001600160a01b031663af3f2ea96040518163ffffffff1660e01b815260040160206040518083038186803b15801561318757600080fd5b505afa15801561319b573d6000803e3d6000fd5b505050506040513d60208110156131b157600080fd5b5051606b60006131c042614371565b6131c94261438f565b6131d2426143aa565b6040516020018084815260200183815260200182815260200193505050506040516020818303038152906040528051906020012081526020019081526020016000206000336001600160a01b03166001600160a01b031681526020019081526020016000205411156133b3576000818152606c6020526040902060040154819060ff168015613285575060016000828152606c6020526040902060040154610100900460ff16600681111561328357fe5b145b6132d0576040805162461bcd60e51b815260206004820152601760248201527613595cdcd859d9481a5cc81b9bdd08185c1c1c9bdd9959604a1b604482015290519081900360640190fd5b6000828152606c602090815260409182902060048101805461ff00191661050017905560018101546002820154600383015460665486518981526001600160a01b0394851696810196909652858701929092526060850152166080830152915160008051602061479a8339815191529181900360a00190a150506068546040805163a44faec560e01b815233600482015290516001600160a01b039092169163a44faec59160248082019260009290919082900301818387803b15801561339657600080fd5b505af11580156133aa573d6000803e3d6000fd5b505050506135a1565b6068546040805163180de44360e01b815233600482015290516001600160a01b039092169163180de44391602480820192602092909190829003018186803b1580156133fe57600080fd5b505afa158015613412573d6000803e3d6000fd5b505050506040513d602081101561342857600080fd5b50511561349457606854604080516337ba3a4b60e21b815233600482015290516001600160a01b039092169163dee8e92c9160248082019260009290919082900301818387803b15801561347b57600080fd5b505af115801561348f573d6000803e3d6000fd5b505050505b6000818152606c6020526040902060040154819060ff1680156134db575060016000828152606c6020526040902060040154610100900460ff1660068111156134d957fe5b145b613526576040805162461bcd60e51b815260206004820152601760248201527613595cdcd859d9481a5cc81b9bdd08185c1c1c9bdd9959604a1b604482015290519081900360640190fd5b6000828152606c602090815260409182902060048101805461ff00191661050017905560018101546002820154600383015460665486518981526001600160a01b0394851696810196909652858701929092526060850152166080830152915160008051602061479a8339815191529181900360a00190a150505b606860009054906101000a90046001600160a01b03166001600160a01b0316631fe6cb206040518163ffffffff1660e01b8152600401600060405180830381600087803b1580156135f157600080fd5b505af1158015613605573d6000803e3d6000fd5b50505050613b41565b606860009054906101000a90046001600160a01b03166001600160a01b0316632f314abd6040518163ffffffff1660e01b815260040160206040518083038186803b15801561365c57600080fd5b505afa158015613670573d6000803e3d6000fd5b505050506040513d602081101561368657600080fd5b5051156136f657606860009054906101000a90046001600160a01b03166001600160a01b0316631acb9f216040518163ffffffff1660e01b8152600401600060405180830381600087803b1580156136dd57600080fd5b505af11580156136f1573d6000803e3d6000fd5b505050505b606760009054906101000a90046001600160a01b03166001600160a01b031663af3f2ea96040518163ffffffff1660e01b815260040160206040518083038186803b15801561374457600080fd5b505afa158015613758573d6000803e3d6000fd5b505050506040513d602081101561376e57600080fd5b5051606b600061377d42614371565b6137864261438f565b61378f426143aa565b6040516020018084815260200183815260200182815260200193505050506040516020818303038152906040528051906020012081526020019081526020016000206000336001600160a01b03166001600160a01b03168152602001908152602001600020541115613953576000818152606c6020526040902060040154819060ff168015613842575060016000828152606c6020526040902060040154610100900460ff16600681111561384057fe5b145b61388d576040805162461bcd60e51b815260206004820152601760248201527613595cdcd859d9481a5cc81b9bdd08185c1c1c9bdd9959604a1b604482015290519081900360640190fd5b6000828152606c602090815260409182902060048101805461ff00191661050017905560018101546002820154600383015460665486518981526001600160a01b0394851696810196909652858701929092526060850152166080830152915160008051602061479a8339815191529181900360a00190a150506068546040805163a44faec560e01b815233600482015290516001600160a01b039092169163a44faec59160248082019260009290919082900301818387803b1580156135f157600080fd5b6068546040805163180de44360e01b815233600482015290516001600160a01b039092169163180de44391602480820192602092909190829003018186803b15801561399e57600080fd5b505afa1580156139b2573d6000803e3d6000fd5b505050506040513d60208110156139c857600080fd5b505115613a3457606854604080516337ba3a4b60e21b815233600482015290516001600160a01b039092169163dee8e92c9160248082019260009290919082900301818387803b158015613a1b57600080fd5b505af1158015613a2f573d6000803e3d6000fd5b505050505b6000818152606c6020526040902060040154819060ff168015613a7b575060016000828152606c6020526040902060040154610100900460ff166006811115613a7957fe5b145b613ac6576040805162461bcd60e51b815260206004820152601760248201527613595cdcd859d9481a5cc81b9bdd08185c1c1c9bdd9959604a1b604482015290519081900360640190fd5b6000828152606c602090815260409182902060048101805461ff00191661050017905560018101546002820154600383015460665486518981526001600160a01b0394851696810196909652858701929092526060850152166080830152915160008051602061479a8339815191529181900360a00190a150505b50565b6033546000906001600160a01b0316613b5b61453e565b6001600160a01b031614905090565b6000908152606c602052604090206003015490565b600054610100900460ff1680613b985750613b9861436b565b80613ba6575060005460ff16155b613be15760405162461bcd60e51b815260040180806020018281038252602e8152602001806147da602e913960400191505060405180910390fd5b600054610100900460ff16158015613c0c576000805460ff1961ff0019909116610100171660011790555b603380546001600160a01b0319166001600160a01b0384811691909117918290556040519116906000907f8be0079c531659141344cd1fd0a4f28419497f9722a3daafe3b4186f6b6457e0908290a38015610ed5576000805461ff00191690555050565b613c78613b44565b613cb7576040805162461bcd60e51b815260206004820181905260248201526000805160206147ba833981519152604482015290519081900360640190fd5b606654604080516370a0823160e01b81523060048201529051839283926001600160a01b03909116916370a0823191602480820192602092909190829003018186803b158015613d0657600080fd5b505afa158015613d1a573d6000803e3d6000fd5b505050506040513d6020811015613d3057600080fd5b50511015613d7d576040805162461bcd60e51b8152602060048201526015602482015274084c2d8c2dcc6ca40d2e640dcdee840cadcdeeaced605b1b604482015290519081900360640190fd5b6066546040805163a9059cbb60e01b81526001600160a01b038681166004830152602482018690529151919092169163a9059cbb9160448083019260209291908290030181600087803b158015613dd357600080fd5b505af1158015613de7573d6000803e3d6000fd5b505050506040513d6020811015613dfd57600080fd5b50613e0890506146da565b506040805160c0810182528681523360208083019182528284018881526060840187815260016080860181815260a0870182815260008e8152606c9096529790942086518155945190850180546001600160a01b0319166001600160a01b03909216919091179055905160028401555160038301555160048201805460ff191691151591909117808255935192938493919061ff001916610100836006811115613eae57fe5b021790555050606654604080518981526001600160a01b0380891660208301528183018a9052606082018890529092166080830152517fe6e6ce0f3726c81ea0d1f6580279eee70ac95a1ece998bb4eed9adb2e3b1523e92509081900360a00190a1505050505050565b613f20613b44565b613f5f576040805162461bcd60e51b815260206004820181905260248201526000805160206147ba833981519152604482015290519081900360640190fd5b6000818152606c6020526040902060040154819060ff168015613fa55750600080828152606c6020526040902060040154610100900460ff166006811115613fa357fe5b145b613fef576040805162461bcd60e51b81526020600482015260166024820152754d657373616765206973206e6f742070656e64696e6760501b604482015290519081900360640190fd5b6000828152606c602052604090206004810180546003919061ff00191661010083021790555060665460038201546040805163a9059cbb60e01b81523360048201526024810192909252516001600160a01b039092169163a9059cbb916044808201926020929091908290030181600087803b15801561406e57600080fd5b505af1158015614082573d6000803e3d6000fd5b505050506040513d602081101561409857600080fd5b5050600381015460665460408051868152336020820152808201939093526001600160a01b039091166060830152517fc3472d79fd8d269ff34f2caa162cb7d2b88daacd367755234ed2ba79bca3c5739181900360800190a1505050565b6140fe613b44565b61413d576040805162461bcd60e51b815260206004820181905260248201526000805160206147ba833981519152604482015290519081900360640190fd5b613b4181614542565b61414e613b44565b61418d576040805162461bcd60e51b815260206004820181905260248201526000805160206147ba833981519152604482015290519081900360640190fd5b6000848152606c6020526040902060040154849084908490849060ff1680156141d257506000848152606c60205260409020600101546001600160a01b038481169116145b80156141ee57506000848152606c602052604090206002015482145b801561420a57506000848152606c602052604090206003015481145b61424f576040805162461bcd60e51b815260206004820152601160248201527011185d18481a5cc81b9bdd081d985b1a59607a1b604482015290519081900360640190fd5b6000888152606c6020526040902060040154889060ff1680156142955750600080828152606c6020526040902060040154610100900460ff16600681111561429357fe5b145b6142df576040805162461bcd60e51b81526020600482015260166024820152754d657373616765206973206e6f742070656e64696e6760501b604482015290519081900360640190fd5b6000898152606c602052604090206004810180546002919061ff001916610100830217905550606654604080518c81526001600160a01b03808d1660208301528183018c9052606082018b90529092166080830152517fe6f181d14d0f39116f9998ad0a75fb629d966b333aedf7253270475cc0e0ba319181900360a00190a150505050505050505050565b303b1590565b6000808061438462015180855b046145e3565b509095945050505050565b600080806143a0620151808561437e565b5095945050505050565b600080806143bb620151808561437e565b9695505050505050565b60006143d042614371565b6143d94261438f565b6143e2426143aa565b60405160200180848152602001838152602001828152602001935050505060405160208183030381529060405280519060200120905061443e82606960008481526020019081526020016000205461467990919063ffffffff16565b600082815260696020908152604080832093909355606b81528282206001600160a01b03871683529052205461447a908363ffffffff61467916565b6000828152606b602052604081209061449287611087565b6001600160a01b0316815260208101919091526040016000205550505050565b60006144bd42614371565b6144c64261438f565b6144cf426143aa565b60405160200180848152602001838152602001828152602001935050505060405160208183030381529060405280519060200120905061452b82606960008481526020019081526020016000205461467990919063ffffffff16565b6000918252606960205260409091205550565b3390565b6001600160a01b0381166145875760405162461bcd60e51b815260040180806020018281038252602681526020018061470e6026913960400191505060405180910390fd5b6033546040516001600160a01b038084169216907f8be0079c531659141344cd1fd0a4f28419497f9722a3daafe3b4186f6b6457e090600090a3603380546001600160a01b0319166001600160a01b0392909216919091179055565b60008080836226496581018262023ab1600483020590506004600362023ab18302010590910390600062164b09610fa0600185010205905060046105b58202058303601f019250600061098f846050028161463a57fe5b0590506000605061098f83020585039050600b820560301994909401606402929092018301996002600c90940290910392909201975095509350505050565b6000828201838110156146d3576040805162461bcd60e51b815260206004820152601b60248201527f536166654d6174683a206164646974696f6e206f766572666c6f770000000000604482015290519081900360640190fd5b9392505050565b6040805160c08101825260008082526020820181905291810182905260608101829052608081018290529060a08201529056fe4f776e61626c653a206e6577206f776e657220697320746865207a65726f2061646472657373fc3c4f687ac50e4dac6d174d1e2ee4568935ddf263911ca5bd9cdb84093c13f57ce3c3485ef348f1d05f6d46134f50eeeebfe5fe4d1d13d5f64092b9e389f873636f6e7472616374206973206e6f7420616c6c6f77656420746f207468697320616d6f756e747a5b2424df0ca94f8aad26f5f083b32382af48b30e19f13dedeb4b9011f7090c4f776e61626c653a2063616c6c6572206973206e6f7420746865206f776e6572436f6e747261637420696e7374616e63652068617320616c7265616479206265656e20696e697469616c697a65645472616e73616374696f6e2076616c756520697320746f6f2020736d616c6c206f72206c61726765a265627a7a7231582028632ff14e1e1dff07fbb09ba365942e4c2c365ceb8aba9ed2be493ab532b40664736f6c634300050c0032",
  "source": "pragma solidity ^0.5.12;\n\nimport \"@openzeppelin/contracts-ethereum-package/contracts/token/ERC20/SafeERC20.sol\";\nimport \"@openzeppelin/upgrades/contracts/Initializable.sol\";\nimport \"../third-party/BokkyPooBahsDateTimeLibrary.sol\";\nimport \"../interfaces/ITransfers.sol\";\nimport \"@openzeppelin/contracts-ethereum-package/contracts/token/ERC20/SafeERC20.sol\";\nimport \"@openzeppelin/contracts-ethereum-package/contracts/ownership/Ownable.sol\";\nimport \"../interfaces/IStatus.sol\";\nimport \"../interfaces/ILimits.sol\";\n\n\ncontract Transfers is ITransfers, Ownable {\n\n    enum TransferStatus {PENDING, WITHDRAW, APPROVED, CANCELED, CONFIRMED, CONFIRMED_WITHDRAW, CANCELED_CONFIRMED}\n    \n    IERC20 token;\n\n    using BokkyPooBahsDateTimeLibrary for uint;\n    using SafeMath for uint;\n\n    ILimits limitsContract;\n    IStatus statusContract;\n\n    /*\n        Struct\n    */\n    struct Message {\n        bytes32 messageID;\n        address spender;\n        bytes32 guestAddress;\n        uint availableAmount;\n        bool isExists; //check message is exists\n        TransferStatus status;\n    }\n\n    mapping(bytes32 => uint) currentVolumeByDate;\n\n    /* pending volume */\n    mapping(bytes32 => uint) currentVPendingVolumeByDate;\n\n    mapping(bytes32 => mapping (address => uint)) currentDayVolumeForAddress;\n\n    /*\n    *    Events\n    */\n    event RelayMessage(bytes32 messageID, address sender, bytes32 recipient, uint amount, address token);\n    event ConfirmMessage(bytes32 messageID, address sender, bytes32 recipient, uint amount, address token);\n    event RevertMessage(bytes32 messageID, address sender, uint amount, address token);\n    event WithdrawMessage(bytes32 messageID, address recepient, bytes32 sender, uint amount, address token);\n    event ApprovedRelayMessage(bytes32 messageID, address  sender, bytes32 recipient, uint amount, address token);\n    event ConfirmWithdrawMessage(bytes32 messageID, address sender, bytes32 recipient, uint amount, address token);\n    event ConfirmCancelMessage(bytes32 messageID, address sender, bytes32 recipient, uint amount, address token);\n\n    /*\n       * Messages\n    */\n    mapping(bytes32 => Message) messages;\n    mapping(address => bytes32[]) messagesBySender;\n\n    modifier checkMinMaxTransactionValue(uint value) {\n        require(value < limitsContract.getMinHostTransactionValue() && value < limitsContract.getMaxHostTransactionValue(), \"Transaction value is too  small or large\");\n        _;\n    }\n\n    modifier checkDayVolumeTransaction() {\n        if (currentVolumeByDate[keccak256(abi.encodePacked(now.getYear(), now.getMonth(), now.getDay()))] > limitsContract.getDayHostMaxLimit()) {\n            _;\n            statusContract.pauseBridgeByVolume();\n        } else {\n            if (statusContract.isPausedByBridgVolume()) {\n                statusContract.resumeBridgeByVolume();\n            }\n            _;\n        }\n    }\n\n    modifier checkPendingDayVolumeTransaction() {\n        if (currentVPendingVolumeByDate[keccak256(abi.encodePacked(now.getYear(), now.getMonth(), now.getDay()))] > limitsContract.getMaxHostPendingTransactionLimit()) {\n            _;\n            statusContract.pauseBridgeByVolume();\n        } else {\n            if (statusContract.isPausedByBridgVolume()) {\n                statusContract.resumeBridgeByVolume();\n            }\n            _;\n        }\n    }\n\n    modifier checkDayVolumeTransactionForAddress() {\n        if (currentDayVolumeForAddress[keccak256(abi.encodePacked(now.getYear(), now.getMonth(), now.getDay()))][msg.sender] > limitsContract.getDayHostMaxLimitForOneAddress()) {\n             _;\n             statusContract.pausedByBridgeVolumeForAddress(msg.sender);\n        } else {\n            if (statusContract.getStatusForAccount(msg.sender)) {\n                statusContract.resumedByBridgeVolumeForAddress(msg.sender);\n            }\n            _;\n        }\n    }\n\n    /*\n        check available amount\n    */\n    modifier messageHasAmount(bytes32 messageID) {\n         require((messages[messageID].isExists && messages[messageID].availableAmount > 0), \"Amount withdraw\");\n        _;\n    }\n\n    /*\n        check that message is valid\n    */\n    modifier validMessage(bytes32 messageID, address spender, bytes32 guestAddress, uint availableAmount) {\n         require((messages[messageID].isExists && messages[messageID].spender == spender)\n                && (messages[messageID].guestAddress == guestAddress)\n                && (messages[messageID].availableAmount == availableAmount), \"Data is not valid\");\n         _;\n    }\n\n    modifier pendingMessage(bytes32 messageID) {\n        require(messages[messageID].isExists && messages[messageID].status == TransferStatus.PENDING, \"Message is not pending\");\n        _;\n    }\n\n    modifier approvedMessage(bytes32 messageID) {\n        require(messages[messageID].isExists && messages[messageID].status == TransferStatus.APPROVED, \"Message is not approved\");\n         _;\n    }\n\n    modifier withdrawMessage(bytes32 messageID) {\n        require(messages[messageID].isExists && messages[messageID].status == TransferStatus.WITHDRAW, \"Message is not approved\");\n         _;\n    }\n\n    modifier cancelMessage(bytes32 messageID) {\n         require(messages[messageID].isExists && messages[messageID].status == TransferStatus.CANCELED, \"Message is not canceled\");\n        _;\n    }\n\n    modifier allowTransfer(address owner, uint256 amount) {\n        require(token.allowance(owner, address(this)) >= amount, \"contract is not allowed to this amount\");\n        _;\n    }\n\n    modifier checkBalance(uint256 availableAmount) {\n        require(token.balanceOf(address(this)) >= availableAmount, \"Balance is not enough\");\n        _;\n    }\n\n    function setTransfer(uint amount, address owner, bytes32 guestAddress) external \n    onlyOwner\n    checkMinMaxTransactionValue(amount)\n    checkPendingDayVolumeTransaction()\n    checkDayVolumeTransaction()\n    checkDayVolumeTransactionForAddress()\n    allowTransfer(owner, amount) {\n         /** to modifier **/\n        \n        token.transferFrom(owner, address(this), amount);\n        bytes32 messageID = keccak256(abi.encodePacked(now));\n        Message  memory message = Message(messageID, owner, guestAddress, amount, true, TransferStatus.PENDING);\n        messages[messageID] = message;\n\n        messagesBySender[owner].push(messageID);\n        \n        _addPendingVolumeByDate(amount);\n        emit RelayMessage(messageID, owner, guestAddress, amount, address(token));\n    }\n\n    function revertTransfer(bytes32 messageID) external \n    onlyOwner\n    pendingMessage(messageID) {\n        Message storage message = messages[messageID];\n        message.status = TransferStatus.CANCELED;\n        token.transfer(msg.sender, message.availableAmount);\n        emit RevertMessage(messageID, msg.sender, message.availableAmount, address(token));\n    }\n\n    function approveTransfer(bytes32 messageID, address spender, bytes32 guestAddress, uint availableAmount) \n    onlyOwner\n    validMessage(messageID, spender, guestAddress, availableAmount) \n    pendingMessage(messageID)external {\n        Message storage message = messages[messageID];\n        message.status = TransferStatus.APPROVED;\n\n        emit ApprovedRelayMessage(messageID, spender, guestAddress, availableAmount, address(token));\n    }\n\n    function confirmTransfer(bytes32 messageID) external\n    onlyOwner\n    approvedMessage(messageID)\n    checkDayVolumeTransaction()\n    checkDayVolumeTransactionForAddress()  {\n        Message storage message = messages[messageID];\n        message.status = TransferStatus.CONFIRMED;\n        _addVolumeByMessageID(messageID, message.spender, message.availableAmount);\n        emit ConfirmMessage(messageID, message.spender, message.guestAddress, message.availableAmount, address(token));\n    }\n\n    function withdrawTransfer(bytes32 messageID, bytes32  sender, address recipient, uint availableAmount) \n    onlyOwner\n    checkBalance(availableAmount)\n    external {\n        token.transfer(recipient, availableAmount);\n        Message  memory message = Message(messageID, msg.sender, sender, availableAmount, true, TransferStatus.WITHDRAW);\n        messages[messageID] = message;\n        emit WithdrawMessage(messageID, recipient, sender, availableAmount, address(token));\n    }\n\n    function confirmWithdrawTransfer(bytes32 messageID) external \n    onlyOwner\n    checkDayVolumeTransaction()\n    checkDayVolumeTransactionForAddress()\n    withdrawMessage(messageID)  {\n        Message storage message = messages[messageID];\n        message.status = TransferStatus.CONFIRMED_WITHDRAW;\n        emit ConfirmWithdrawMessage(messageID, message.spender, message.guestAddress, message.availableAmount, address(token));\n    }\n\n    function confirmCancelTransfer(bytes32 messageID) external \n    onlyOwner\n    cancelMessage(messageID) {\n        Message storage message = messages[messageID];\n        message.status = TransferStatus.CANCELED_CONFIRMED;\n\n        emit ConfirmCancelMessage(messageID, message.spender, message.guestAddress, message.availableAmount, address(token));\n    }\n\n    function init(IERC20 _token, IStatus _status, ILimits _limits) initializer public {\n        Ownable.initialize(msg.sender);\n        token = _token;\n        statusContract = _status;\n        limitsContract = _limits;\n    }\n\n    function getMessageStatus(bytes32 messageID) public view returns (uint) {\n        return uint(messages[messageID].status);\n    }\n    \n    function isExistsMessage(bytes32 messageID) public view returns (bool) {\n        return messages[messageID].isExists;\n    }\n\n    function getHost(bytes32 messageID) public view returns (address) {\n        return messages[messageID].spender;\n    }\n\n     function getGuest(bytes32 messageID) public view returns (bytes32) {\n        return messages[messageID].guestAddress;\n    }\n\n    function getAvailableAmount(bytes32 messageID) public view returns (uint) {\n        return messages[messageID].availableAmount;\n    }\n\n    function _getFirstMessageIDByAddress(address sender) public view returns (bytes32) {\n        return messagesBySender[sender][0];\n    }\n\n    function _addVolumeByMessageID(bytes32 messageID, address host, uint availableAmount) internal {\n\n        bytes32 dateID = keccak256(abi.encodePacked(now.getYear(), now.getMonth(), now.getDay()));\n        currentVolumeByDate[dateID] = currentVolumeByDate[dateID].add(availableAmount);\n        currentDayVolumeForAddress[dateID][getHost(messageID)] = currentDayVolumeForAddress[dateID][host].add(availableAmount);\n    }  \n\n    function _addPendingVolumeByDate(uint256 availableAmount) internal {\n        bytes32 dateID = keccak256(abi.encodePacked(now.getYear(), now.getMonth(), now.getDay()));\n        currentVolumeByDate[dateID] = currentVolumeByDate[dateID].add(availableAmount);\n    }\n\n}\n",
  "sourcePath": "/home/pickle/Documents/bch/eth-bridge-module/contracts/bridge/Transfers.sol",
  "compiler": {
    "name": "solc",
    "version": "0.5.12+commit.7709ece9.Emscripten.clang"
  },
  "schemaVersion": "3.0.16",
  "updatedAt": "2020-04-20T15:06:11.708Z",
  "devdoc": {
    "methods": {
      "initialize(address)": {
        "details": "Initializes the contract setting the deployer as the initial owner."
      },
      "isOwner()": {
        "details": "Returns true if the caller is the current owner."
      },
      "owner()": {
        "details": "Returns the address of the current owner."
      },
      "renounceOwnership()": {
        "details": "Leaves the contract without owner. It will not be possible to call `onlyOwner` functions anymore. Can only be called by the current owner.     * > Note: Renouncing ownership will leave the contract without an owner, thereby removing any functionality that is only available to the owner."
      },
      "transferOwnership(address)": {
        "details": "Transfers ownership of the contract to a new account (`newOwner`). Can only be called by the current owner."
      }
    }
  },
  "userdoc": {
    "methods": {}
  }
}