{
  "contractName": "ValidatorsOperations",
  "abi": [
    {
      "anonymous": false,
      "inputs": [
        {
          "indexed": false,
          "internalType": "bytes32",
          "name": "messageID",
          "type": "bytes32"
        },
        {
          "indexed": false,
          "internalType": "address[]",
          "name": "previousValidators",
          "type": "address[]"
        },
        {
          "indexed": false,
          "internalType": "uint256",
          "name": "howManyValidatorsDecide",
          "type": "uint256"
        },
        {
          "indexed": false,
          "internalType": "address[]",
          "name": "newvalidators",
          "type": "address[]"
        },
        {
          "indexed": false,
          "internalType": "uint256",
          "name": "newHowManyValidatorsDecide",
          "type": "uint256"
        }
      ],
      "name": "ChangeValidatorsList",
      "type": "event"
    },
    {
      "anonymous": false,
      "inputs": [
        {
          "indexed": false,
          "internalType": "bytes32",
          "name": "operation",
          "type": "bytes32"
        },
        {
          "indexed": false,
          "internalType": "address",
          "name": "lastCanceller",
          "type": "address"
        }
      ],
      "name": "OperationCancelled",
      "type": "event"
    },
    {
      "anonymous": false,
      "inputs": [
        {
          "indexed": false,
          "internalType": "bytes32",
          "name": "operation",
          "type": "bytes32"
        },
        {
          "indexed": false,
          "internalType": "uint256",
          "name": "howMany",
          "type": "uint256"
        },
        {
          "indexed": false,
          "internalType": "uint256",
          "name": "validatorsCount",
          "type": "uint256"
        },
        {
          "indexed": false,
          "internalType": "address",
          "name": "proposer",
          "type": "address"
        }
      ],
      "name": "OperationCreated",
      "type": "event"
    },
    {
      "anonymous": false,
      "inputs": [
        {
          "indexed": false,
          "internalType": "bytes32",
          "name": "operation",
          "type": "bytes32"
        },
        {
          "indexed": false,
          "internalType": "uint256",
          "name": "votes",
          "type": "uint256"
        },
        {
          "indexed": false,
          "internalType": "uint256",
          "name": "validatorsCount",
          "type": "uint256"
        },
        {
          "indexed": false,
          "internalType": "address",
          "name": "downvoter",
          "type": "address"
        }
      ],
      "name": "OperationDownvoted",
      "type": "event"
    },
    {
      "anonymous": false,
      "inputs": [
        {
          "indexed": false,
          "internalType": "bytes32",
          "name": "operation",
          "type": "bytes32"
        },
        {
          "indexed": false,
          "internalType": "uint256",
          "name": "howMany",
          "type": "uint256"
        },
        {
          "indexed": false,
          "internalType": "uint256",
          "name": "validatorsCount",
          "type": "uint256"
        },
        {
          "indexed": false,
          "internalType": "address",
          "name": "performer",
          "type": "address"
        }
      ],
      "name": "OperationPerformed",
      "type": "event"
    },
    {
      "anonymous": false,
      "inputs": [
        {
          "indexed": false,
          "internalType": "bytes32",
          "name": "operation",
          "type": "bytes32"
        },
        {
          "indexed": false,
          "internalType": "uint256",
          "name": "votes",
          "type": "uint256"
        },
        {
          "indexed": false,
          "internalType": "uint256",
          "name": "howMany",
          "type": "uint256"
        },
        {
          "indexed": false,
          "internalType": "uint256",
          "name": "validatorsCount",
          "type": "uint256"
        },
        {
          "indexed": false,
          "internalType": "address",
          "name": "upvoter",
          "type": "address"
        }
      ],
      "name": "OperationUpvoted",
      "type": "event"
    },
    {
      "constant": true,
      "inputs": [
        {
          "internalType": "uint256",
          "name": "",
          "type": "uint256"
        }
      ],
      "name": "allOperations",
      "outputs": [
        {
          "internalType": "bytes32",
          "name": "",
          "type": "bytes32"
        }
      ],
      "payable": false,
      "stateMutability": "view",
      "type": "function"
    },
    {
      "constant": true,
      "inputs": [
        {
          "internalType": "bytes32",
          "name": "",
          "type": "bytes32"
        }
      ],
      "name": "allOperationsIndicies",
      "outputs": [
        {
          "internalType": "uint256",
          "name": "",
          "type": "uint256"
        }
      ],
      "payable": false,
      "stateMutability": "view",
      "type": "function"
    },
    {
      "constant": true,
      "inputs": [],
      "name": "howManyValidatorsDecide",
      "outputs": [
        {
          "internalType": "uint256",
          "name": "",
          "type": "uint256"
        }
      ],
      "payable": false,
      "stateMutability": "view",
      "type": "function"
    },
    {
      "constant": true,
      "inputs": [
        {
          "internalType": "uint256",
          "name": "",
          "type": "uint256"
        }
      ],
      "name": "validators",
      "outputs": [
        {
          "internalType": "address",
          "name": "",
          "type": "address"
        }
      ],
      "payable": false,
      "stateMutability": "view",
      "type": "function"
    },
    {
      "constant": true,
      "inputs": [],
      "name": "validatorsGeneration",
      "outputs": [
        {
          "internalType": "uint256",
          "name": "",
          "type": "uint256"
        }
      ],
      "payable": false,
      "stateMutability": "view",
      "type": "function"
    },
    {
      "constant": true,
      "inputs": [
        {
          "internalType": "address",
          "name": "",
          "type": "address"
        }
      ],
      "name": "validatorsIndices",
      "outputs": [
        {
          "internalType": "uint8",
          "name": "",
          "type": "uint8"
        }
      ],
      "payable": false,
      "stateMutability": "view",
      "type": "function"
    },
    {
      "constant": true,
      "inputs": [
        {
          "internalType": "bytes32",
          "name": "",
          "type": "bytes32"
        }
      ],
      "name": "votesCountByOperation",
      "outputs": [
        {
          "internalType": "uint256",
          "name": "",
          "type": "uint256"
        }
      ],
      "payable": false,
      "stateMutability": "view",
      "type": "function"
    },
    {
      "constant": true,
      "inputs": [
        {
          "internalType": "bytes32",
          "name": "",
          "type": "bytes32"
        }
      ],
      "name": "votesMaskByOperation",
      "outputs": [
        {
          "internalType": "uint256",
          "name": "",
          "type": "uint256"
        }
      ],
      "payable": false,
      "stateMutability": "view",
      "type": "function"
    },
    {
      "constant": false,
      "inputs": [],
      "name": "init",
      "outputs": [],
      "payable": false,
      "stateMutability": "nonpayable",
      "type": "function"
    },
    {
      "constant": false,
      "inputs": [
        {
          "internalType": "bytes32",
          "name": "operation",
          "type": "bytes32"
        }
      ],
      "name": "cancelPending",
      "outputs": [],
      "payable": false,
      "stateMutability": "nonpayable",
      "type": "function"
    },
    {
      "constant": false,
      "inputs": [
        {
          "internalType": "address[]",
          "name": "newValidators",
          "type": "address[]"
        }
      ],
      "name": "changeValidators",
      "outputs": [],
      "payable": false,
      "stateMutability": "nonpayable",
      "type": "function"
    },
    {
      "constant": false,
      "inputs": [
        {
          "internalType": "address[]",
          "name": "newValidators",
          "type": "address[]"
        },
        {
          "internalType": "uint256",
          "name": "newHowManyValidatorsDecide",
          "type": "uint256"
        }
      ],
      "name": "changeValidatorsWithHowMany",
      "outputs": [],
      "payable": false,
      "stateMutability": "nonpayable",
      "type": "function"
    },
    {
      "constant": false,
      "inputs": [],
      "name": "cancelAllPending",
      "outputs": [],
      "payable": false,
      "stateMutability": "nonpayable",
      "type": "function"
    },
    {
      "constant": true,
      "inputs": [
        {
          "internalType": "address",
          "name": "wallet",
          "type": "address"
        }
      ],
      "name": "isExistValidator",
      "outputs": [
        {
          "internalType": "bool",
          "name": "",
          "type": "bool"
        }
      ],
      "payable": false,
      "stateMutability": "view",
      "type": "function"
    },
    {
      "constant": true,
      "inputs": [],
      "name": "validatorsCount",
      "outputs": [
        {
          "internalType": "uint256",
          "name": "",
          "type": "uint256"
        }
      ],
      "payable": false,
      "stateMutability": "view",
      "type": "function"
    },
    {
      "constant": true,
      "inputs": [],
      "name": "allOperationsCount",
      "outputs": [
        {
          "internalType": "uint256",
          "name": "",
          "type": "uint256"
        }
      ],
      "payable": false,
      "stateMutability": "view",
      "type": "function"
    }
  ],
  "bytecode": "0x608060405234801561001057600080fd5b50611725806100206000396000f3fe608060405234801561001057600080fd5b50600436106101005760003560e01c806373f3d5eb1161009757806390f682881161006657806390f6828814610368578063e1c7392a146103a4578063ea1a2644146103ac578063ed612f8c146103c957610100565b806373f3d5eb146101e65780637d21bc521461028b578063893372ca1461032e57806390a530851461034b57610100565b80633e8b4887116100d35780633e8b48871461019c578063431ab233146101a4578063568b5915146101c157806362f5f244146101de57610100565b80630269a5731461010557806322f2f89a1461013f57806329866a671461015957806335aa2e4414610163575b600080fd5b61012b6004803603602081101561011b57600080fd5b50356001600160a01b03166103d1565b604080519115158252519081900360200190f35b6101476103f5565b60408051918252519081900360200190f35b6101616103fc565b005b6101806004803603602081101561017957600080fd5b5035610460565b604080516001600160a01b039092168252519081900360200190f35b610147610487565b610147600480360360208110156101ba57600080fd5b503561048d565b610147600480360360208110156101d757600080fd5b50356104ab565b6101476104bd565b610161600480360360408110156101fc57600080fd5b81019060208101813564010000000081111561021757600080fd5b82018360208201111561022957600080fd5b8035906020019184602083028401116401000000008311171561024b57600080fd5b91908080602002602001604051908101604052809392919081815260200183836020028082843760009201919091525092955050913592506104c3915050565b610161600480360360208110156102a157600080fd5b8101906020810181356401000000008111156102bc57600080fd5b8201836020820111156102ce57600080fd5b803590602001918460208302840111640100000000831117156102f057600080fd5b919080806020026020016040519081016040528093929190818152602001838360200280828437600092019190915250929550610889945050505050565b6101616004803603602081101561034457600080fd5b50356108f0565b6101476004803603602081101561036157600080fd5b5035610b01565b61038e6004803603602081101561037e57600080fd5b50356001600160a01b0316610b13565b6040805160ff9092168252519081900360200190f35b610161610b28565b610147600480360360208110156103c257600080fd5b5035610c25565b610147610c37565b6001600160a01b03811660009081526039602052604090205460ff1615155b919050565b6036545b90565b610407603454610c3d565b1561045e576037546001600160a01b031615801561043857603780546001600160a01b031916331790556034546038555b610440610ff7565b801561045c57603780546001600160a01b031916905560006038555b505b565b6035818154811061046d57fe5b6000918252602090912001546001600160a01b0316905081565b60345481565b6036818154811061049a57fe5b600091825260209091200154905081565b603b6020526000908152604090205481565b60335481565b60008251116105035760405162461bcd60e51b81526004018080602001828103825260368152602001806115296036913960400191505060405180910390fd5b6101008251106105445760405162461bcd60e51b81526004018080602001828103825260418152602001806114b86041913960600191505060405180910390fd5b600081116105835760405162461bcd60e51b81526004018080602001828103825260428152602001806114766042913960600191505060405180910390fd5b81518111156105c35760405162461bcd60e51b81526004018080602001828103825260588152602001806116546058913960600191505060405180910390fd5b60005b6035548110156106155760396000603583815481106105e157fe5b60009182526020808320909101546001600160a01b031683528201929092526040019020805460ff191690556001016105c6565b5060005b82518110156107585760006001600160a01b031683828151811061063957fe5b60200260200101516001600160a01b031614156106875760405162461bcd60e51b815260040180806020018281038252603b81526020018061143b603b913960400191505060405180910390fd5b6039600084838151811061069757fe5b6020908102919091018101516001600160a01b031682528101919091526040016000205460ff16156106fa5760405162461bcd60e51b81526004018080602001828103825260418152602001806115dd6041913960600191505060405180910390fd5b61070b81600163ffffffff61110b16565b6039600085848151811061071b57fe5b6020908102919091018101516001600160a01b03168252810191909152604001600020805460ff191660ff92909216919091179055600101610619565b507f0c02e33d16ecdb8f457bfbec0f0a13b36f5e2d93c8ce062d965e85f8adb50c0f42604051602001808281526020019150506040516020818303038152906040528051906020012060356034548585604051808681526020018060200185815260200180602001848152602001838103835287818154815260200191508054801561080d57602002820191906000526020600020905b81546001600160a01b031681526001909101906020018083116107ef575b50508381038252855181528551602091820191808801910280838360005b8381101561084357818101518382015260200161082b565b5050505090500197505050505050505060405180910390a1815161086e90603590602085019061132d565b50603481905561087c610ff7565b5050603380546001019055565b610894603454610c3d565b1561045c576037546001600160a01b03161580156108c557603780546001600160a01b031916331790556034546038555b6108d08283516104c3565b80156108ec57603780546001600160a01b031916905560006038555b5050565b6108fa6001610c3d565b1561045c576037546001600160a01b031615801561092a57603780546001600160a01b0319163317905560016038555b610933336103d1565b801561095357506035543360009081526039602052604090205460ff1611155b61098e5760405162461bcd60e51b815260040180806020018281038252603681526020018061161e6036913960400191505060405180910390fd5b336000908152603960205260408120546109b29060ff16600163ffffffff61116c16565b6000848152603b6020526040902054909150600282900a16610a055760405162461bcd60e51b81526004018080602001828103825260308152602001806114f96030913960400191505060405180910390fd5b6000838152603b602090815260408083208054600286900a19169055603c909152812054610a3a90600163ffffffff61116c16565b6000858152603c602090815260409182902083905560355482518881529182018490528183015233606082015290519192507f3e0a7036018b5a2a3c5d0afa14e51998ef3cf98c38e4289a8897222b3acf75a7919081900360800190a180610ae057610aa5846111c9565b6040805185815233602082015281517f55e0dd61c29aac6fc36807628300ad3e3ec68655ae76ae4002f7fb101496fa9f929181900390910190a15b505080156108ec57603780546001600160a01b031916905560006038555050565b603c6020526000908152604090205481565b60396020526000908152604090205460ff1681565b600054610100900460ff1680610b415750610b4161130a565b80610b4f575060005460ff16155b610b8a5760405162461bcd60e51b815260040180806020018281038252602e81526020018061155f602e913960400191505060405180910390fd5b600054610100900460ff16158015610bb5576000805460ff1961ff0019909116610100171660011790555b6035805460018181019092557fcfa4bec1d3298408bb5afcfcd9c430549c5b31f8aa5c5848151c0a55f473c34d0180546001600160a01b031916339081179091556000908152603960205260409020805460ff191682179055603455801561045c576000805461ff001916905550565b603a6020526000908152604090205481565b60355490565b6037546000906001600160a01b0316331415610c9c57603854821115610c945760405162461bcd60e51b815260040180806020018281038252605081526020018061158d6050913960600191505060405180910390fd5b5060016103f0565b610ca5336103d1565b8015610cc557506035543360009081526039602052604090205460ff1611155b610d005760405162461bcd60e51b815260040180806020018281038252603681526020018061161e6036913960400191505060405180910390fd5b33600090815260396020526040812054610d249060ff16600163ffffffff61116c16565b90506000803660335460405160200180848480828437919091019283525050604080518083038152602092830182528051908301206000818152603b909352912054909350600285900a16159150610daf90505760405162461bcd60e51b81526004018080602001828103825260418152602001806113fa6041913960600191505060405180910390fd5b610db882611310565b610df35760405162461bcd60e51b81526004018080602001828103825260458152602001806116ac6045913960600191505060405180910390fd5b6000818152603b602090815260408083208054600287900a179055603c909152812054610e2790600163ffffffff61110b16565b6000838152603c6020526040902081905590506001811415610f28576036546000838152603a6020908152604080832093909355603d8152828220805460ff191660ff8881169182179092558352603e90915291902054610e8a9116600161110b565b60ff8481166000908152603e60209081526040808320805460ff191695909416949094179092556036805460018101825591527f4a11f94e20a93c79f6ec743a1954ec4fc2c08429ae2122118bf234b2185c81b80184905560355482518581529182018890528183015233606082015290517f6bab0114f9524353d2d33e64edd3ebbd16e21edd57de2226ba76c310a7ce2265916080908290030190a15b60355460408051848152602081018490528082018890526060810192909252336080830152517f8dd9582c6577aea81973b5adeb6c135f6e18565d99578b7ba0c9377437ec02219181900360a00190a16000828152603c6020526040902054851415610fec57610f97826111c9565b603554604080518481526020810188905280820192909252336060830152517f8a11c8ca99994c292318ce367f65bf6ff61d390bc814b3588496f6fbcc32807a9181900360800190a1600193505050506103f0565b506000949350505050565b60005b6036548110156110ca57603a60006036838154811061101557fe5b9060005260206000200154815260200190815260200160002060009055603b60006036838154811061104357fe5b9060005260206000200154815260200190815260200160002060009055603c60006036838154811061107157fe5b9060005260206000200154815260200190815260200160002060009055603d60006036838154811061109f57fe5b600091825260208083209091015483528201929092526040019020805460ff19169055600101610ffa565b5060006110d8603682611392565b5060005b60355460ff8216101561045c5760ff81166000908152603e60205260409020805460ff191690556001016110dc565b600082820183811015611165576040805162461bcd60e51b815260206004820152601b60248201527f536166654d6174683a206164646974696f6e206f766572666c6f770000000000604482015290519081900360640190fd5b9392505050565b6000828211156111c3576040805162461bcd60e51b815260206004820152601e60248201527f536166654d6174683a207375627472616374696f6e206f766572666c6f770000604482015290519081900360640190fd5b50900390565b6000818152603a60205260409020546036546000190181101561125b57603680546111fb90600163ffffffff61116c16565b8154811061120557fe5b90600052602060002001546036828154811061121d57fe5b906000526020600020018190555080603a60006036848154811061123d57fe5b90600052602060002001548152602001908152602001600020819055505b60365461126f90600163ffffffff61116c16565b61127a603682611392565b506000828152603d602090815260408083205460ff908116808552603e90935292205490916112b19116600163ffffffff61116c16565b60ff9182166000908152603e6020908152604080832080549490951660ff1994851617909455948152603b8552828120819055603c8552828120819055603a8552828120819055603d9094529220805490921690915550565b303b1590565b60ff9081166000908152603e602052604090205460039116111590565b828054828255906000526020600020908101928215611382579160200282015b8281111561138257825182546001600160a01b0319166001600160a01b0390911617825560209092019160019091019061134d565b5061138e9291506113bb565b5090565b8154818355818111156113b6576000838152602090206113b69181019083016113df565b505050565b6103f991905b8082111561138e5780546001600160a01b03191681556001016113c1565b6103f991905b8082111561138e57600081556001016113e556fe636865636b486f774d616e7976616c696461746f72733a2056616c696461746f7220616c726561647920766f74656420666f7220746865206f7065726174696f6e6368616e676556616c696461746f727357697468486f774d616e793a2076616c696461746f727320617272617920636f6e7461696e73207a65726f6368616e676556616c696461746f727357697468486f774d616e793a206e6577486f774d616e7956616c696461746f727344656369646520657175616c20746f20306368616e676556616c696461746f727357697468486f774d616e793a2076616c696461746f727320636f756e742069732067726561746572207468656e2032353563616e63656c50656e64696e673a206f7065726174696f6e206e6f7420666f756e6420666f72207468697320757365726368616e676556616c696461746f727357697468486f774d616e793a2076616c696461746f727320617272617920697320656d707479436f6e747261637420696e7374616e63652068617320616c7265616479206265656e20696e697469616c697a6564636865636b486f774d616e7976616c696461746f72733a206e65737465642076616c696461746f7273206d6f64696669657220636865636b2072657175697265206d6f72652056616c696461746f72736368616e676556616c696461746f727357697468486f774d616e793a2076616c696461746f727320617272617920636f6e7461696e73206475706c696361746573636865636b486f774d616e7976616c696461746f72733a206d73672e73656e646572206973206e6f7420616e2056616c696461746f726368616e676556616c696461746f727357697468486f774d616e793a206e6577486f774d616e7956616c696461746f7273446563696465206578636565647320746865206e756d626572206f662056616c696461746f7273636865636b486f774d616e7976616c696461746f72733a206f7065726174696f6e206c696d6974206973207265616368656420666f7220746869732056616c696461746f72a265627a7a7231582067cebf682834899579de0aa66170ca5117ba0429ac6cf53cad7e56d51ad2fedd64736f6c634300050c0032",
  "source": "/*\n  License: MIT\n  Copyright Bitclave, 2018\n  It's modified contract ValidatorOperations from https://github.com/bitclave/ValidatorOperations\n*/\n\npragma solidity ^0.5.12;\n\nimport \"@openzeppelin/contracts-ethereum-package/contracts/math/SafeMath.sol\";\nimport \"@openzeppelin/upgrades/contracts/Initializable.sol\";\ncontract ValidatorsOperations is Initializable {\n\n    using SafeMath for uint256;\n\n    using SafeMath for uint8;\n    // VARIABLES\n\n    uint256 public validatorsGeneration;\n    uint256 public howManyValidatorsDecide;\n    address[] public validators;\n    bytes32[] public allOperations;\n    address internal insideCallSender;\n    uint256 internal insideCallCount;\n    \n\n    // Reverse lookup tables for validators and allOperations\n    mapping(address => uint8) public validatorsIndices; // Starts from 1, size 255\n    mapping(bytes32 => uint) public allOperationsIndicies;\n    \n\n    // validators voting mask per operations\n    mapping(bytes32 => uint256) public votesMaskByOperation;\n    mapping(bytes32 => uint256) public votesCountByOperation;\n\n    //operation -> ValidatorIndex\n    mapping(bytes32 => uint8) internal  operationsByValidatorIndex;\n    mapping(uint8 => uint8) internal operationsCountByValidatorIndex;\n    // EVENTS\n\n    event ChangeValidatorsList(bytes32 messageID, address[] previousValidators, uint howManyValidatorsDecide, address[] newvalidators, uint newHowManyValidatorsDecide);\n    event OperationCreated(bytes32 operation, uint howMany, uint validatorsCount, address proposer);\n    event OperationUpvoted(bytes32 operation, uint votes, uint howMany, uint validatorsCount, address upvoter);\n    event OperationPerformed(bytes32 operation, uint howMany, uint validatorsCount, address performer);\n    event OperationDownvoted(bytes32 operation, uint votes, uint validatorsCount, address downvoter);\n    event OperationCancelled(bytes32 operation, address lastCanceller);\n    \n    // CONSTRUCTOR\n    function init() public initializer {\n        validators.push(msg.sender);\n        validatorsIndices[msg.sender] = 1;\n        howManyValidatorsDecide = 1;\n    }\n\n    // PUBLIC METHODS\n    modifier existValidator(address wallet) {\n        require(isExistValidator(wallet), \"Address is not Validator\");\n        _;\n    }\n\n    // PUBLIC METHODS\n    /**\n    * @dev Allows validators to change their mind by cancelling votesMaskByOperation operations\n    * @param operation defines which operation to delete\n    */\n    function cancelPending(bytes32 operation) public onlyAnyValidator {\n        require((isExistValidator(msg.sender) && (validatorsIndices[msg.sender] <= validators.length)), \n        \"checkHowManyvalidators: msg.sender is not an Validator\");\n        uint ValidatorIndex = validatorsIndices[msg.sender].sub(1);\n        require((votesMaskByOperation[operation] & (2 ** ValidatorIndex)) != 0, \"cancelPending: operation not found for this user\");\n        votesMaskByOperation[operation] &= ~(2 ** ValidatorIndex);\n        uint operationVotesCount = votesCountByOperation[operation].sub(1);\n        votesCountByOperation[operation] = operationVotesCount;\n        emit OperationDownvoted(operation, operationVotesCount, validators.length, msg.sender);\n        if (operationVotesCount == 0) {\n            deleteOperation(operation);\n            emit OperationCancelled(operation, msg.sender);\n        }\n    }\n\n    /**\n    * @dev Allows validators to change validatorsship\n    * @param newValidators defines array of addresses of new validators\n    */\n    function changeValidators(address[] memory newValidators) public onlyManyValidators {\n        changeValidatorsWithHowMany(newValidators, newValidators.length);\n    }\n\n    /**\n    * @dev Allows validators to change ValidatorShip\n    * @param newValidators defines array of addresses of new validators\n    * @param newHowManyValidatorsDecide defines how many validators can decide\n    */\n    function changeValidatorsWithHowMany(address[] memory newValidators, uint256 newHowManyValidatorsDecide) public {\n        require(newValidators.length > 0, \"changeValidatorsWithHowMany: validators array is empty\");\n        require(newValidators.length < 256, \"changeValidatorsWithHowMany: validators count is greater then 255\");\n        require(newHowManyValidatorsDecide > 0, \"changeValidatorsWithHowMany: newHowManyValidatorsDecide equal to 0\");\n        require(newHowManyValidatorsDecide <= newValidators.length, \n        \"changeValidatorsWithHowMany: newHowManyValidatorsDecide exceeds the number of Validators\");\n\n        // Reset validators reverse lookup table\n        for (uint j = 0; j < validators.length; j++) {\n            delete validatorsIndices[validators[j]];\n        }\n        for (uint i = 0; i < newValidators.length; i++) {\n            require(newValidators[i] != address(0), \"changeValidatorsWithHowMany: validators array contains zero\");\n            require(validatorsIndices[newValidators[i]] == 0, \"changeValidatorsWithHowMany: validators array contains duplicates\");\n            validatorsIndices[newValidators[i]] = uint8(i.add(1));\n        }\n        \n        emit ChangeValidatorsList(keccak256(abi.encodePacked(now)), validators, howManyValidatorsDecide, newValidators, newHowManyValidatorsDecide);\n        validators = newValidators;\n        howManyValidatorsDecide = newHowManyValidatorsDecide;\n\n        _cancelAllPending();\n       \n        validatorsGeneration++;\n    }\n\n    /**\n    * @dev Allows validators to change their mind by cancelling all operations\n    */\n    function cancelAllPending() public onlyManyValidators {\n       _cancelAllPending();\n    }\n\n    // ACCESSORS\n    function isExistValidator(address wallet) public view returns(bool) {\n        return validatorsIndices[wallet] > 0;\n    }\n\n    function validatorsCount() public view returns(uint) {\n        return validators.length;\n    }\n\n    function allOperationsCount() public view returns(uint) {\n        return allOperations.length;\n    }\n\n    /*\n      Internal functions\n    */\n    function _operationLimitByValidatorIndex(uint8 ValidatorIndex) internal view returns(bool) {\n        return (operationsCountByValidatorIndex[ValidatorIndex] <= 3);\n    }\n    \n    function _cancelAllPending() internal {\n        for (uint i = 0; i < allOperations.length; i++) {\n            delete (allOperationsIndicies[allOperations[i]]); \n\n            delete (votesMaskByOperation[allOperations[i]]);\n            \n            delete (votesCountByOperation[allOperations[i]]);\n            //delete operation->ValidatorIndex\n            delete (operationsByValidatorIndex[allOperations[i]]);\n        }\n\n        allOperations.length = 0;\n        //delete operations count for Validator\n        for (uint8 j = 0; j < validators.length; j++) {\n            operationsCountByValidatorIndex[j] = 0;\n        }\n    }\n\n    // MODIFIERS\n    /**\n    * @dev Allows to perform method by any of the validators\n    */\n    modifier onlyAnyValidator {\n        if (checkHowManyValidators(1)) {\n            bool update = (insideCallSender == address(0));\n            if (update) {\n                insideCallSender = msg.sender;\n                insideCallCount = 1;\n            }\n            _;\n            if (update) {\n                insideCallSender = address(0);\n                insideCallCount = 0;\n            }\n        }\n    }\n\n    /**\n    * @dev Allows to perform method only after many validators call it with the same arguments\n    */\n    modifier onlyManyValidators {\n        if (checkHowManyValidators(howManyValidatorsDecide)) {\n            bool update = (insideCallSender == address(0));\n            if (update) {\n                insideCallSender = msg.sender;\n                insideCallCount = howManyValidatorsDecide;\n            }\n            _;\n            if (update) {\n                insideCallSender = address(0);\n                insideCallCount = 0;\n            }\n        }\n    }\n\n    /**\n    * @dev Allows to perform method only after all validators call it with the same arguments\n    */\n    modifier onlyAllValidators {\n        if (checkHowManyValidators(validators.length)) {\n            bool update = (insideCallSender == address(0));\n            if (update) {\n                insideCallSender = msg.sender;\n                insideCallCount = validators.length;\n            }\n            _;\n            if (update) {\n                insideCallSender = address(0);\n                insideCallCount = 0;\n            }\n        }\n    }\n\n    /**\n    * @dev Allows to perform method only after some validators call it with the same arguments\n    */\n    modifier onlySomeValidators(uint howMany) {\n        require(howMany > 0, \"onlySomevalidators: howMany argument is zero\");\n        require(howMany <= validators.length, \"onlySomevalidators: howMany argument exceeds the number of validators\");\n        \n        if (checkHowManyValidators(howMany)) {\n            bool update = (insideCallSender == address(0));\n            if (update) {\n                insideCallSender = msg.sender;\n                insideCallCount = howMany;\n            }\n            _;\n            if (update) {\n                insideCallSender = address(0);\n                insideCallCount = 0;\n            }\n        }\n    }\n\n    // INTERNAL METHODS\n    /**\n     * @dev onlyManyvalidators modifier helper\n     */\n    function checkHowManyValidators(uint howMany) internal returns(bool) {\n        if (insideCallSender == msg.sender) {\n            require(howMany <= insideCallCount, \"checkHowManyvalidators: nested validators modifier check require more Validators\");\n            return true;\n        }\n         \n        require((isExistValidator(msg.sender) && (validatorsIndices[msg.sender] <= validators.length)), \n        \"checkHowManyvalidators: msg.sender is not an Validator\");\n        uint ValidatorIndex = validatorsIndices[msg.sender].sub(1);\n        \n        bytes32 operation = keccak256(abi.encodePacked(msg.data, validatorsGeneration));\n\n        require((votesMaskByOperation[operation] & (2 ** ValidatorIndex)) == 0, \"checkHowManyvalidators: Validator already voted for the operation\");\n        //check limit for operation\n        require(_operationLimitByValidatorIndex(uint8(ValidatorIndex)), \"checkHowManyvalidators: operation limit is reached for this Validator\");\n\n        votesMaskByOperation[operation] |= (2 ** ValidatorIndex);\n        uint operationVotesCount = votesCountByOperation[operation].add(1);\n        votesCountByOperation[operation] = operationVotesCount;\n\n        if (operationVotesCount == 1) {\n            allOperationsIndicies[operation] = allOperations.length;\n            operationsByValidatorIndex[operation] = uint8(ValidatorIndex);\n            operationsCountByValidatorIndex[uint8(ValidatorIndex)] = uint8(operationsCountByValidatorIndex[uint8(ValidatorIndex)].add(1));\n            allOperations.push(operation);\n            emit OperationCreated(operation, howMany, validators.length, msg.sender);\n        }\n        emit OperationUpvoted(operation, operationVotesCount, howMany, validators.length, msg.sender);\n\n        // If enough validators confirmed the same operation\n        if (votesCountByOperation[operation] == howMany) {\n            deleteOperation(operation);\n            emit OperationPerformed(operation, howMany, validators.length, msg.sender);\n            return true;\n        }\n\n        return false;\n    }\n\n    /**\n    * @dev Used to delete cancelled or performed operation\n    * @param operation defines which operation to delete\n    */\n    function deleteOperation(bytes32 operation) internal {\n        uint index = allOperationsIndicies[operation];\n        if (index < allOperations.length - 1) { // Not last\n            allOperations[index] = allOperations[allOperations.length.sub(1)];\n            allOperationsIndicies[allOperations[index]] = index;\n        }\n        allOperations.length = allOperations.length.sub(1);\n\n        uint8 ValidatorIndex = uint8(operationsByValidatorIndex[operation]);\n        operationsCountByValidatorIndex[ValidatorIndex] = uint8(operationsCountByValidatorIndex[ValidatorIndex].sub(1));\n\n        delete votesMaskByOperation[operation];\n        delete votesCountByOperation[operation];\n        delete allOperationsIndicies[operation];\n        delete operationsByValidatorIndex[operation];\n    }\n\n   \n}",
  "sourcePath": "/home/pickle/Documents/bch/eth-bridge-module/contracts/helpers/ValidatorsOperations.sol",
  "compiler": {
    "name": "solc",
    "version": "0.5.12+commit.7709ece9.Emscripten.clang"
  },
  "schemaVersion": "3.0.16",
  "updatedAt": "2020-04-20T15:06:11.719Z",
  "devdoc": {
    "methods": {
      "cancelAllPending()": {
        "details": "Allows validators to change their mind by cancelling all operations"
      },
      "cancelPending(bytes32)": {
        "details": "Allows validators to change their mind by cancelling votesMaskByOperation operations",
        "params": {
          "operation": "defines which operation to delete"
        }
      },
      "changeValidators(address[])": {
        "details": "Allows validators to change validatorsship",
        "params": {
          "newValidators": "defines array of addresses of new validators"
        }
      },
      "changeValidatorsWithHowMany(address[],uint256)": {
        "details": "Allows validators to change ValidatorShip",
        "params": {
          "newHowManyValidatorsDecide": "defines how many validators can decide",
          "newValidators": "defines array of addresses of new validators"
        }
      }
    }
  },
  "userdoc": {
    "methods": {}
  }
}