{
  "contractName": "Bridge",
  "abi": [
    {
      "anonymous": false,
      "inputs": [
        {
          "indexed": false,
          "internalType": "bytes32",
          "name": "messageID",
          "type": "bytes32"
        },
        {
          "indexed": false,
          "internalType": "address[]",
          "name": "previousValidators",
          "type": "address[]"
        },
        {
          "indexed": false,
          "internalType": "uint256",
          "name": "howManyValidatorsDecide",
          "type": "uint256"
        },
        {
          "indexed": false,
          "internalType": "address[]",
          "name": "newvalidators",
          "type": "address[]"
        },
        {
          "indexed": false,
          "internalType": "uint256",
          "name": "newHowManyValidatorsDecide",
          "type": "uint256"
        }
      ],
      "name": "ChangeValidatorsList",
      "type": "event"
    },
    {
      "anonymous": false,
      "inputs": [
        {
          "indexed": false,
          "internalType": "bytes32",
          "name": "operation",
          "type": "bytes32"
        },
        {
          "indexed": false,
          "internalType": "address",
          "name": "lastCanceller",
          "type": "address"
        }
      ],
      "name": "OperationCancelled",
      "type": "event"
    },
    {
      "anonymous": false,
      "inputs": [
        {
          "indexed": false,
          "internalType": "bytes32",
          "name": "operation",
          "type": "bytes32"
        },
        {
          "indexed": false,
          "internalType": "uint256",
          "name": "howMany",
          "type": "uint256"
        },
        {
          "indexed": false,
          "internalType": "uint256",
          "name": "validatorsCount",
          "type": "uint256"
        },
        {
          "indexed": false,
          "internalType": "address",
          "name": "proposer",
          "type": "address"
        }
      ],
      "name": "OperationCreated",
      "type": "event"
    },
    {
      "anonymous": false,
      "inputs": [
        {
          "indexed": false,
          "internalType": "bytes32",
          "name": "operation",
          "type": "bytes32"
        },
        {
          "indexed": false,
          "internalType": "uint256",
          "name": "votes",
          "type": "uint256"
        },
        {
          "indexed": false,
          "internalType": "uint256",
          "name": "validatorsCount",
          "type": "uint256"
        },
        {
          "indexed": false,
          "internalType": "address",
          "name": "downvoter",
          "type": "address"
        }
      ],
      "name": "OperationDownvoted",
      "type": "event"
    },
    {
      "anonymous": false,
      "inputs": [
        {
          "indexed": false,
          "internalType": "bytes32",
          "name": "operation",
          "type": "bytes32"
        },
        {
          "indexed": false,
          "internalType": "uint256",
          "name": "howMany",
          "type": "uint256"
        },
        {
          "indexed": false,
          "internalType": "uint256",
          "name": "validatorsCount",
          "type": "uint256"
        },
        {
          "indexed": false,
          "internalType": "address",
          "name": "performer",
          "type": "address"
        }
      ],
      "name": "OperationPerformed",
      "type": "event"
    },
    {
      "anonymous": false,
      "inputs": [
        {
          "indexed": false,
          "internalType": "bytes32",
          "name": "operation",
          "type": "bytes32"
        },
        {
          "indexed": false,
          "internalType": "uint256",
          "name": "votes",
          "type": "uint256"
        },
        {
          "indexed": false,
          "internalType": "uint256",
          "name": "howMany",
          "type": "uint256"
        },
        {
          "indexed": false,
          "internalType": "uint256",
          "name": "validatorsCount",
          "type": "uint256"
        },
        {
          "indexed": false,
          "internalType": "address",
          "name": "upvoter",
          "type": "address"
        }
      ],
      "name": "OperationUpvoted",
      "type": "event"
    },
    {
      "constant": true,
      "inputs": [
        {
          "internalType": "uint256",
          "name": "",
          "type": "uint256"
        }
      ],
      "name": "allOperations",
      "outputs": [
        {
          "internalType": "bytes32",
          "name": "",
          "type": "bytes32"
        }
      ],
      "payable": false,
      "stateMutability": "view",
      "type": "function"
    },
    {
      "constant": true,
      "inputs": [],
      "name": "allOperationsCount",
      "outputs": [
        {
          "internalType": "uint256",
          "name": "",
          "type": "uint256"
        }
      ],
      "payable": false,
      "stateMutability": "view",
      "type": "function"
    },
    {
      "constant": true,
      "inputs": [
        {
          "internalType": "bytes32",
          "name": "",
          "type": "bytes32"
        }
      ],
      "name": "allOperationsIndicies",
      "outputs": [
        {
          "internalType": "uint256",
          "name": "",
          "type": "uint256"
        }
      ],
      "payable": false,
      "stateMutability": "view",
      "type": "function"
    },
    {
      "constant": false,
      "inputs": [],
      "name": "cancelAllPending",
      "outputs": [],
      "payable": false,
      "stateMutability": "nonpayable",
      "type": "function"
    },
    {
      "constant": false,
      "inputs": [
        {
          "internalType": "bytes32",
          "name": "operation",
          "type": "bytes32"
        }
      ],
      "name": "cancelPending",
      "outputs": [],
      "payable": false,
      "stateMutability": "nonpayable",
      "type": "function"
    },
    {
      "constant": false,
      "inputs": [
        {
          "internalType": "address[]",
          "name": "newValidators",
          "type": "address[]"
        }
      ],
      "name": "changeValidators",
      "outputs": [],
      "payable": false,
      "stateMutability": "nonpayable",
      "type": "function"
    },
    {
      "constant": false,
      "inputs": [
        {
          "internalType": "address[]",
          "name": "newValidators",
          "type": "address[]"
        },
        {
          "internalType": "uint256",
          "name": "newHowManyValidatorsDecide",
          "type": "uint256"
        }
      ],
      "name": "changeValidatorsWithHowMany",
      "outputs": [],
      "payable": false,
      "stateMutability": "nonpayable",
      "type": "function"
    },
    {
      "constant": true,
      "inputs": [],
      "name": "howManyValidatorsDecide",
      "outputs": [
        {
          "internalType": "uint256",
          "name": "",
          "type": "uint256"
        }
      ],
      "payable": false,
      "stateMutability": "view",
      "type": "function"
    },
    {
      "constant": false,
      "inputs": [],
      "name": "init",
      "outputs": [],
      "payable": false,
      "stateMutability": "nonpayable",
      "type": "function"
    },
    {
      "constant": true,
      "inputs": [
        {
          "internalType": "address",
          "name": "wallet",
          "type": "address"
        }
      ],
      "name": "isExistValidator",
      "outputs": [
        {
          "internalType": "bool",
          "name": "",
          "type": "bool"
        }
      ],
      "payable": false,
      "stateMutability": "view",
      "type": "function"
    },
    {
      "constant": true,
      "inputs": [
        {
          "internalType": "uint256",
          "name": "",
          "type": "uint256"
        }
      ],
      "name": "validators",
      "outputs": [
        {
          "internalType": "address",
          "name": "",
          "type": "address"
        }
      ],
      "payable": false,
      "stateMutability": "view",
      "type": "function"
    },
    {
      "constant": true,
      "inputs": [],
      "name": "validatorsCount",
      "outputs": [
        {
          "internalType": "uint256",
          "name": "",
          "type": "uint256"
        }
      ],
      "payable": false,
      "stateMutability": "view",
      "type": "function"
    },
    {
      "constant": true,
      "inputs": [],
      "name": "validatorsGeneration",
      "outputs": [
        {
          "internalType": "uint256",
          "name": "",
          "type": "uint256"
        }
      ],
      "payable": false,
      "stateMutability": "view",
      "type": "function"
    },
    {
      "constant": true,
      "inputs": [
        {
          "internalType": "address",
          "name": "",
          "type": "address"
        }
      ],
      "name": "validatorsIndices",
      "outputs": [
        {
          "internalType": "uint8",
          "name": "",
          "type": "uint8"
        }
      ],
      "payable": false,
      "stateMutability": "view",
      "type": "function"
    },
    {
      "constant": true,
      "inputs": [
        {
          "internalType": "bytes32",
          "name": "",
          "type": "bytes32"
        }
      ],
      "name": "votesCountByOperation",
      "outputs": [
        {
          "internalType": "uint256",
          "name": "",
          "type": "uint256"
        }
      ],
      "payable": false,
      "stateMutability": "view",
      "type": "function"
    },
    {
      "constant": true,
      "inputs": [
        {
          "internalType": "bytes32",
          "name": "",
          "type": "bytes32"
        }
      ],
      "name": "votesMaskByOperation",
      "outputs": [
        {
          "internalType": "uint256",
          "name": "",
          "type": "uint256"
        }
      ],
      "payable": false,
      "stateMutability": "view",
      "type": "function"
    },
    {
      "constant": false,
      "inputs": [
        {
          "internalType": "contract IStatus",
          "name": "_status",
          "type": "address"
        },
        {
          "internalType": "contract ITransfers",
          "name": "_transfer",
          "type": "address"
        },
        {
          "internalType": "contract IDao",
          "name": "_dao",
          "type": "address"
        },
        {
          "internalType": "contract ICandidate",
          "name": "_candidate",
          "type": "address"
        }
      ],
      "name": "initialize",
      "outputs": [],
      "payable": false,
      "stateMutability": "nonpayable",
      "type": "function"
    },
    {
      "constant": false,
      "inputs": [
        {
          "internalType": "uint256",
          "name": "amount",
          "type": "uint256"
        },
        {
          "internalType": "bytes32",
          "name": "guestAddress",
          "type": "bytes32"
        }
      ],
      "name": "setTransfer",
      "outputs": [],
      "payable": false,
      "stateMutability": "nonpayable",
      "type": "function"
    },
    {
      "constant": false,
      "inputs": [
        {
          "internalType": "bytes32",
          "name": "messageID",
          "type": "bytes32"
        }
      ],
      "name": "revertTransfer",
      "outputs": [],
      "payable": false,
      "stateMutability": "nonpayable",
      "type": "function"
    },
    {
      "constant": false,
      "inputs": [
        {
          "internalType": "bytes32",
          "name": "messageID",
          "type": "bytes32"
        },
        {
          "internalType": "address",
          "name": "spender",
          "type": "address"
        },
        {
          "internalType": "bytes32",
          "name": "guestAddress",
          "type": "bytes32"
        },
        {
          "internalType": "uint256",
          "name": "availableAmount",
          "type": "uint256"
        }
      ],
      "name": "approveTransfer",
      "outputs": [],
      "payable": false,
      "stateMutability": "nonpayable",
      "type": "function"
    },
    {
      "constant": false,
      "inputs": [
        {
          "internalType": "bytes32",
          "name": "messageID",
          "type": "bytes32"
        }
      ],
      "name": "confirmTransfer",
      "outputs": [],
      "payable": false,
      "stateMutability": "nonpayable",
      "type": "function"
    },
    {
      "constant": false,
      "inputs": [
        {
          "internalType": "bytes32",
          "name": "messageID",
          "type": "bytes32"
        },
        {
          "internalType": "bytes32",
          "name": "sender",
          "type": "bytes32"
        },
        {
          "internalType": "address",
          "name": "recipient",
          "type": "address"
        },
        {
          "internalType": "uint256",
          "name": "availableAmount",
          "type": "uint256"
        }
      ],
      "name": "withdrawTransfer",
      "outputs": [],
      "payable": false,
      "stateMutability": "nonpayable",
      "type": "function"
    },
    {
      "constant": false,
      "inputs": [
        {
          "internalType": "bytes32",
          "name": "messageID",
          "type": "bytes32"
        }
      ],
      "name": "confirmWithdrawTransfer",
      "outputs": [],
      "payable": false,
      "stateMutability": "nonpayable",
      "type": "function"
    },
    {
      "constant": false,
      "inputs": [
        {
          "internalType": "bytes32",
          "name": "messageID",
          "type": "bytes32"
        }
      ],
      "name": "confirmCancelTransfer",
      "outputs": [],
      "payable": false,
      "stateMutability": "nonpayable",
      "type": "function"
    },
    {
      "constant": false,
      "inputs": [],
      "name": "startBridge",
      "outputs": [],
      "payable": false,
      "stateMutability": "nonpayable",
      "type": "function"
    },
    {
      "constant": false,
      "inputs": [],
      "name": "resumeBridge",
      "outputs": [],
      "payable": false,
      "stateMutability": "nonpayable",
      "type": "function"
    },
    {
      "constant": false,
      "inputs": [],
      "name": "stopBridge",
      "outputs": [],
      "payable": false,
      "stateMutability": "nonpayable",
      "type": "function"
    },
    {
      "constant": false,
      "inputs": [],
      "name": "pauseBridge",
      "outputs": [],
      "payable": false,
      "stateMutability": "nonpayable",
      "type": "function"
    },
    {
      "constant": false,
      "inputs": [
        {
          "internalType": "bytes32",
          "name": "sender",
          "type": "bytes32"
        }
      ],
      "name": "setPausedStatusForGuestAddress",
      "outputs": [],
      "payable": false,
      "stateMutability": "nonpayable",
      "type": "function"
    },
    {
      "constant": false,
      "inputs": [
        {
          "internalType": "bytes32",
          "name": "sender",
          "type": "bytes32"
        }
      ],
      "name": "setResumedStatusForGuestAddress",
      "outputs": [],
      "payable": false,
      "stateMutability": "nonpayable",
      "type": "function"
    },
    {
      "constant": false,
      "inputs": [
        {
          "internalType": "uint256[10]",
          "name": "parameters",
          "type": "uint256[10]"
        }
      ],
      "name": "createProposal",
      "outputs": [],
      "payable": false,
      "stateMutability": "nonpayable",
      "type": "function"
    },
    {
      "constant": false,
      "inputs": [
        {
          "internalType": "bytes32",
          "name": "proposalID",
          "type": "bytes32"
        }
      ],
      "name": "approvedNewProposal",
      "outputs": [],
      "payable": false,
      "stateMutability": "nonpayable",
      "type": "function"
    },
    {
      "constant": false,
      "inputs": [
        {
          "internalType": "address[]",
          "name": "hosts",
          "type": "address[]"
        }
      ],
      "name": "createCandidatesValidatorsProposal",
      "outputs": [],
      "payable": false,
      "stateMutability": "nonpayable",
      "type": "function"
    },
    {
      "constant": false,
      "inputs": [
        {
          "internalType": "bytes32",
          "name": "proposalID",
          "type": "bytes32"
        }
      ],
      "name": "approveNewValidatorsList",
      "outputs": [],
      "payable": false,
      "stateMutability": "nonpayable",
      "type": "function"
    },
    {
      "constant": false,
      "inputs": [
        {
          "internalType": "address",
          "name": "host",
          "type": "address"
        },
        {
          "internalType": "bytes32",
          "name": "guest",
          "type": "bytes32"
        }
      ],
      "name": "addCandidate",
      "outputs": [],
      "payable": false,
      "stateMutability": "nonpayable",
      "type": "function"
    },
    {
      "constant": false,
      "inputs": [
        {
          "internalType": "address",
          "name": "host",
          "type": "address"
        }
      ],
      "name": "removeCandidate",
      "outputs": [],
      "payable": false,
      "stateMutability": "nonpayable",
      "type": "function"
    }
  ],
  "bytecode": "0x608060405234801561001057600080fd5b50612e6a806100206000396000f3fe608060405234801561001057600080fd5b506004361061021c5760003560e01c80637d21bc5211610125578063c714aaa2116100ad578063ed612f8c1161007c578063ed612f8c14610766578063f279db4a1461076e578063f4bd48291461078b578063f8c8765e14610793578063fff41e36146107d15761021c565b8063c714aaa214610701578063e04ceea414610739578063e1c7392a14610741578063ea1a2644146107495761021c565b806390a53085116100f457806390a530851461061457806390f6828814610631578063ae6f0d351461066d578063b84523a1146106c1578063c0314226146106de5761021c565b80637d21bc52146105315780637dd0480f146105d2578063893372ca146105da5780638edf03d6146105f75761021c565b806336a55b38116101a8578063568b591511610177578063568b591514610417578063571ebd3c1461043457806362f5f244146104605780636dd091f91461046857806373f3d5eb1461048e5761021c565b806336a55b38146103b85780633e8b4887146103d5578063412a862a146103dd578063431ab233146103fa5761021c565b8063133a01c4116101ef578063133a01c4146102b457806320ac1b30146102bc57806322f2f89a1461035d57806329866a671461037757806335aa2e441461037f5761021c565b80630149509e146102215780630269a573146102405780630b4149351461027a5780630e68bc2e14610297575b600080fd5b61023e6004803603602081101561023757600080fd5b5035610809565b005b6102666004803603602081101561025657600080fd5b50356001600160a01b03166108ca565b604080519115158252519081900360200190f35b61023e6004803603602081101561029057600080fd5b50356108ee565b61023e600480360360208110156102ad57600080fd5b5035610975565b61023e6109fe565b61023e600480360360208110156102d257600080fd5b810190602081018135600160201b8111156102ec57600080fd5b8201836020820111156102fe57600080fd5b803590602001918460208302840111600160201b8311171561031f57600080fd5b919080806020026020016040519081016040528093929190818152602001838360200280828437600092019190915250929550610ac1945050505050565b610365610ba8565b60408051918252519081900360200190f35b61023e610baf565b61039c6004803603602081101561039557600080fd5b5035610c11565b604080516001600160a01b039092168252519081900360200190f35b61023e600480360360208110156103ce57600080fd5b5035610c38565b610365610d7b565b61023e600480360360208110156103f357600080fd5b5035610d81565b6103656004803603602081101561041057600080fd5b5035610ec4565b6103656004803603602081101561042d57600080fd5b5035610ee2565b61023e6004803603604081101561044a57600080fd5b506001600160a01b038135169060200135610ef4565b610365610fbc565b61023e6004803603602081101561047e57600080fd5b50356001600160a01b0316610fc2565b61023e600480360360408110156104a457600080fd5b810190602081018135600160201b8111156104be57600080fd5b8201836020820111156104d057600080fd5b803590602001918460208302840111600160201b831117156104f157600080fd5b9190808060200260200160405190810160405280939291908181526020018383602002808284376000920191909152509295505091359250611066915050565b61023e6004803603602081101561054757600080fd5b810190602081018135600160201b81111561056157600080fd5b82018360208201111561057357600080fd5b803590602001918460208302840111600160201b8311171561059457600080fd5b91908080602002602001604051908101604052809392919081815260200183836020028082843760009201919091525092955061142c945050505050565b61023e611492565b61023e600480360360208110156105f057600080fd5b503561151e565b61023e6004803603602081101561060d57600080fd5b503561172f565b6103656004803603602081101561062a57600080fd5b5035611872565b6106576004803603602081101561064757600080fd5b50356001600160a01b0316611884565b6040805160ff9092168252519081900360200190f35b61023e600480360361014081101561068457600080fd5b81019080806101400190600a806020026040519081016040528092919082600a602002808284376000920191909152509194506118999350505050565b61023e600480360360208110156106d757600080fd5b503561194c565b61023e600480360360408110156106f457600080fd5b5080359060200135611ad5565b61023e6004803603608081101561071757600080fd5b508035906020810135906001600160a01b036040820135169060600135611be9565b61023e611d7e565b61023e611e0a565b6103656004803603602081101561075f57600080fd5b5035611f07565b610365611f19565b61023e6004803603602081101561078457600080fd5b5035611f1f565b61023e612062565b61023e600480360360808110156107a957600080fd5b506001600160a01b0381358116916020810135821691604082013581169160600135166120ee565b61023e600480360360808110156107e757600080fd5b508035906001600160a01b0360208201351690604081013590606001356121e5565b610814603454612341565b156108c7576037546001600160a01b031615801561084557603780546001600160a01b031916331790556034546038555b6042546040805162a4a84f60e11b81526004810185905290516001600160a01b0390921691630149509e9160248082019260009290919082900301818387803b15801561089157600080fd5b505af11580156108a5573d6000803e3d6000fd5b5050505080156108c557603780546001600160a01b031916905560006038555b505b50565b6001600160a01b03811660009081526039602052604090205460ff1615155b919050565b6108f9603454612341565b156108c7576037546001600160a01b031615801561092a57603780546001600160a01b031916331790556034546038555b604080548151630b41493560e01b81526004810185905291516001600160a01b0390911691630b41493591602480830192600092919082900301818387803b15801561089157600080fd5b610980603454612341565b156108c7576037546001600160a01b03161580156109b157603780546001600160a01b031916331790556034546038555b604254604080516307345e1760e11b81526004810185905290516001600160a01b0390921691630e68bc2e9160248082019260009290919082900301818387803b15801561089157600080fd5b610a09603454612341565b15610abf576037546001600160a01b0316158015610a3a57603780546001600160a01b031916331790556034546038555b604260009054906101000a90046001600160a01b03166001600160a01b031663133a01c46040518163ffffffff1660e01b8152600401600060405180830381600087803b158015610a8a57600080fd5b505af1158015610a9e573d6000803e3d6000fd5b5050505080156108c757603780546001600160a01b03191690556000603855505b565b33610acb816108ca565b610b065760405162461bcd60e51b8152600401808060200182810382526021815260200180612d016021913960400191505060405180910390fd5b60415460405163020ac1b360e41b81526020600482018181528551602484015285516001600160a01b03909416936320ac1b309387938392604490920191818601910280838360005b83811015610b67578181015183820152602001610b4f565b5050505090500192505050600060405180830381600087803b158015610b8c57600080fd5b505af1158015610ba0573d6000803e3d6000fd5b505050505050565b6036545b90565b610bba603454612341565b15610abf576037546001600160a01b0316158015610beb57603780546001600160a01b031916331790556034546038555b610bf36126fb565b80156108c757603780546001600160a01b0319169055600060385550565b60358181548110610c1e57fe5b6000918252602090912001546001600160a01b0316905081565b604260009054906101000a90046001600160a01b03166001600160a01b0316634e10a86b6040518163ffffffff1660e01b815260040160206040518083038186803b158015610c8657600080fd5b505afa158015610c9a573d6000803e3d6000fd5b505050506040513d6020811015610cb057600080fd5b505115610cf2576040805162461bcd60e51b815260206004820152601b6024820152600080516020612bbc833981519152604482015290519081900360640190fd5b610cfd603454612341565b156108c7576037546001600160a01b0316158015610d2e57603780546001600160a01b031916331790556034546038555b603f54604080516306d4ab6760e31b81526004810185905290516001600160a01b03909216916336a55b389160248082019260009290919082900301818387803b15801561089157600080fd5b60345481565b604260009054906101000a90046001600160a01b03166001600160a01b0316634e10a86b6040518163ffffffff1660e01b815260040160206040518083038186803b158015610dcf57600080fd5b505afa158015610de3573d6000803e3d6000fd5b505050506040513d6020811015610df957600080fd5b505115610e3b576040805162461bcd60e51b815260206004820152601b6024820152600080516020612bbc833981519152604482015290519081900360640190fd5b610e46603454612341565b156108c7576037546001600160a01b0316158015610e7757603780546001600160a01b031916331790556034546038555b603f5460408051632095431560e11b81526004810185905290516001600160a01b039092169163412a862a9160248082019260009290919082900301818387803b15801561089157600080fd5b60368181548110610ed157fe5b600091825260209091200154905081565b603b6020526000908152604090205481565b33610efe816108ca565b610f4a576040805162461bcd60e51b815260206004820152601860248201527720b2323932b9b99034b9903737ba102b30b634b230ba37b960411b604482015290519081900360640190fd5b604154604080516315c7af4f60e21b81526001600160a01b038681166004830152602482018690529151919092169163571ebd3c91604480830192600092919082900301818387803b158015610f9f57600080fd5b505af1158015610fb3573d6000803e3d6000fd5b50505050505050565b60335481565b33610fcc816108ca565b611018576040805162461bcd60e51b815260206004820152601860248201527720b2323932b9b99034b9903737ba102b30b634b230ba37b960411b604482015290519081900360640190fd5b60415460408051636dd091f960e01b81526001600160a01b03858116600483015291519190921691636dd091f991602480830192600092919082900301818387803b158015610b8c57600080fd5b60008251116110a65760405162461bcd60e51b8152600401808060200182810382526036815260200180612c4d6036913960400191505060405180910390fd5b6101008251106110e75760405162461bcd60e51b8152600401808060200182810382526041815260200180612bdc6041913960600191505060405180910390fd5b600081116111265760405162461bcd60e51b8152600401808060200182810382526042815260200180612b7a6042913960600191505060405180910390fd5b81518111156111665760405162461bcd60e51b8152600401808060200182810382526058815260200180612d996058913960600191505060405180910390fd5b60005b6035548110156111b857603960006035838154811061118457fe5b60009182526020808320909101546001600160a01b031683528201929092526040019020805460ff19169055600101611169565b5060005b82518110156112fb5760006001600160a01b03168382815181106111dc57fe5b60200260200101516001600160a01b0316141561122a5760405162461bcd60e51b815260040180806020018281038252603b815260200180612b3f603b913960400191505060405180910390fd5b6039600084838151811061123a57fe5b6020908102919091018101516001600160a01b031682528101919091526040016000205460ff161561129d5760405162461bcd60e51b8152600401808060200182810382526041815260200180612d226041913960600191505060405180910390fd5b6112ae81600163ffffffff61280f16565b603960008584815181106112be57fe5b6020908102919091018101516001600160a01b03168252810191909152604001600020805460ff191660ff929092169190911790556001016111bc565b507f0c02e33d16ecdb8f457bfbec0f0a13b36f5e2d93c8ce062d965e85f8adb50c0f4260405160200180828152602001915050604051602081830303815290604052805190602001206035603454858560405180868152602001806020018581526020018060200184815260200183810383528781815481526020019150805480156113b057602002820191906000526020600020905b81546001600160a01b03168152600190910190602001808311611392575b50508381038252855181528551602091820191808801910280838360005b838110156113e65781810151838201526020016113ce565b5050505090500197505050505050505060405180910390a18151611411906035906020850190612a31565b50603481905561141f6126fb565b5050603380546001019055565b611437603454612341565b156108c7576037546001600160a01b031615801561146857603780546001600160a01b031916331790556034546038555b611473828351611066565b80156108c557603780546001600160a01b031916905560006038555050565b61149d603454612341565b15610abf576037546001600160a01b03161580156114ce57603780546001600160a01b031916331790556034546038555b604260009054906101000a90046001600160a01b03166001600160a01b0316637dd0480f6040518163ffffffff1660e01b8152600401600060405180830381600087803b158015610a8a57600080fd5b6115286001612341565b156108c7576037546001600160a01b031615801561155857603780546001600160a01b0319163317905560016038555b611561336108ca565b801561158157506035543360009081526039602052604090205460ff1611155b6115bc5760405162461bcd60e51b8152600401808060200182810382526036815260200180612d636036913960400191505060405180910390fd5b336000908152603960205260408120546115e09060ff16600163ffffffff61287016565b6000848152603b6020526040902054909150600282900a166116335760405162461bcd60e51b8152600401808060200182810382526030815260200180612c1d6030913960400191505060405180910390fd5b6000838152603b602090815260408083208054600286900a19169055603c90915281205461166890600163ffffffff61287016565b6000858152603c602090815260409182902083905560355482518881529182018490528183015233606082015290519192507f3e0a7036018b5a2a3c5d0afa14e51998ef3cf98c38e4289a8897222b3acf75a7919081900360800190a18061170e576116d3846128cd565b6040805185815233602082015281517f55e0dd61c29aac6fc36807628300ad3e3ec68655ae76ae4002f7fb101496fa9f929181900390910190a15b505080156108c557603780546001600160a01b031916905560006038555050565b604260009054906101000a90046001600160a01b03166001600160a01b0316634e10a86b6040518163ffffffff1660e01b815260040160206040518083038186803b15801561177d57600080fd5b505afa158015611791573d6000803e3d6000fd5b505050506040513d60208110156117a757600080fd5b5051156117e9576040805162461bcd60e51b815260206004820152601b6024820152600080516020612bbc833981519152604482015290519081900360640190fd5b6117f4603454612341565b156108c7576037546001600160a01b031615801561182557603780546001600160a01b031916331790556034546038555b603f546040805163476f81eb60e11b81526004810185905290516001600160a01b0390921691638edf03d69160248082019260009290919082900301818387803b15801561089157600080fd5b603c6020526000908152604090205481565b60396020526000908152604090205460ff1681565b336118a3816108ca565b6118de5760405162461bcd60e51b8152600401808060200182810382526021815260200180612d016021913960400191505060405180910390fd5b60408054905163ae6f0d3560e01b81526001600160a01b039091169063ae6f0d35908490600401808261014080838360005b83811015611928578181015183820152602001611910565b50505050905001915050600060405180830381600087803b158015610b8c57600080fd5b611957603454612341565b156108c7576037546001600160a01b031615801561198857603780546001600160a01b031916331790556034546038555b60415460408051631bd8252960e21b81526004810185905290516060926001600160a01b031691636f6094a4916024808301926000929190829003018186803b1580156119d457600080fd5b505afa1580156119e8573d6000803e3d6000fd5b505050506040513d6000823e601f3d908101601f191682016040526020811015611a1157600080fd5b8101908080516040519392919084600160201b821115611a3057600080fd5b908301906020820185811115611a4557600080fd5b82518660208202830111600160201b82111715611a6157600080fd5b82525081516020918201928201910280838360005b83811015611a8e578181015183820152602001611a76565b505050509050016040525050509050611ab581600a835160060281611aaf57fe5b04611066565b5080156108c557603780546001600160a01b031916905560006038555050565b604260009054906101000a90046001600160a01b03166001600160a01b0316634e10a86b6040518163ffffffff1660e01b815260040160206040518083038186803b158015611b2357600080fd5b505afa158015611b37573d6000803e3d6000fd5b505050506040513d6020811015611b4d57600080fd5b505115611b8f576040805162461bcd60e51b815260206004820152601b6024820152600080516020612bbc833981519152604482015290519081900360640190fd5b603f54604080516386a1fd9960e01b8152600481018590523360248201526044810184905290516001600160a01b03909216916386a1fd999160648082019260009290919082900301818387803b158015610b8c57600080fd5b604260009054906101000a90046001600160a01b03166001600160a01b0316634e10a86b6040518163ffffffff1660e01b815260040160206040518083038186803b158015611c3757600080fd5b505afa158015611c4b573d6000803e3d6000fd5b505050506040513d6020811015611c6157600080fd5b505115611ca3576040805162461bcd60e51b815260206004820152601b6024820152600080516020612bbc833981519152604482015290519081900360640190fd5b611cae603454612341565b15611d78576037546001600160a01b0316158015611cdf57603780546001600160a01b031916331790556034546038555b603f546040805163638a555160e11b815260048101889052602481018790526001600160a01b038681166044830152606482018690529151919092169163c714aaa291608480830192600092919082900301818387803b158015611d4257600080fd5b505af1158015611d56573d6000803e3d6000fd5b505050508015611d7657603780546001600160a01b031916905560006038555b505b50505050565b611d89603454612341565b15610abf576037546001600160a01b0316158015611dba57603780546001600160a01b031916331790556034546038555b604260009054906101000a90046001600160a01b03166001600160a01b031663e04ceea46040518163ffffffff1660e01b8152600401600060405180830381600087803b158015610a8a57600080fd5b600054610100900460ff1680611e235750611e23612a0e565b80611e31575060005460ff16155b611e6c5760405162461bcd60e51b815260040180806020018281038252602e815260200180612c83602e913960400191505060405180910390fd5b600054610100900460ff16158015611e97576000805460ff1961ff0019909116610100171660011790555b6035805460018181019092557fcfa4bec1d3298408bb5afcfcd9c430549c5b31f8aa5c5848151c0a55f473c34d0180546001600160a01b031916339081179091556000908152603960205260409020805460ff19168217905560345580156108c7576000805461ff001916905550565b603a6020526000908152604090205481565b60355490565b604260009054906101000a90046001600160a01b03166001600160a01b0316634e10a86b6040518163ffffffff1660e01b815260040160206040518083038186803b158015611f6d57600080fd5b505afa158015611f81573d6000803e3d6000fd5b505050506040513d6020811015611f9757600080fd5b505115611fd9576040805162461bcd60e51b815260206004820152601b6024820152600080516020612bbc833981519152604482015290519081900360640190fd5b611fe4603454612341565b156108c7576037546001600160a01b031615801561201557603780546001600160a01b031916331790556034546038555b603f546040805163793ceda560e11b81526004810185905290516001600160a01b039092169163f279db4a9160248082019260009290919082900301818387803b15801561089157600080fd5b61206d603454612341565b15610abf576037546001600160a01b031615801561209e57603780546001600160a01b031916331790556034546038555b604260009054906101000a90046001600160a01b03166001600160a01b031663f4bd48296040518163ffffffff1660e01b8152600401600060405180830381600087803b158015610a8a57600080fd5b600054610100900460ff16806121075750612107612a0e565b80612115575060005460ff16155b6121505760405162461bcd60e51b815260040180806020018281038252602e815260200180612c83602e913960400191505060405180910390fd5b600054610100900460ff1615801561217b576000805460ff1961ff0019909116610100171660011790555b612183611e0a565b604280546001600160a01b038088166001600160a01b03199283161790925560408054868416908316179055603f805487841690831617905560418054928516929091169190911790558015611d76576000805461ff00191690555050505050565b604260009054906101000a90046001600160a01b03166001600160a01b0316634e10a86b6040518163ffffffff1660e01b815260040160206040518083038186803b15801561223357600080fd5b505afa158015612247573d6000803e3d6000fd5b505050506040513d602081101561225d57600080fd5b50511561229f576040805162461bcd60e51b815260206004820152601b6024820152600080516020612bbc833981519152604482015290519081900360640190fd5b6122aa603454612341565b15611d78576037546001600160a01b03161580156122db57603780546001600160a01b031916331790556034546038555b603f546040805160016205f0e560e11b03198152600481018890526001600160a01b03878116602483015260448201879052606482018690529151919092169163fff41e3691608480830192600092919082900301818387803b158015611d4257600080fd5b6037546000906001600160a01b03163314156123a0576038548211156123985760405162461bcd60e51b8152600401808060200182810382526050815260200180612cb16050913960600191505060405180910390fd5b5060016108e9565b6123a9336108ca565b80156123c957506035543360009081526039602052604090205460ff1611155b6124045760405162461bcd60e51b8152600401808060200182810382526036815260200180612d636036913960400191505060405180910390fd5b336000908152603960205260408120546124289060ff16600163ffffffff61287016565b90506000803660335460405160200180848480828437919091019283525050604080518083038152602092830182528051908301206000818152603b909352912054909350600285900a161591506124b390505760405162461bcd60e51b8152600401808060200182810382526041815260200180612afe6041913960600191505060405180910390fd5b6124bc82612a14565b6124f75760405162461bcd60e51b8152600401808060200182810382526045815260200180612df16045913960600191505060405180910390fd5b6000818152603b602090815260408083208054600287900a179055603c90915281205461252b90600163ffffffff61280f16565b6000838152603c602052604090208190559050600181141561262c576036546000838152603a6020908152604080832093909355603d8152828220805460ff191660ff8881169182179092558352603e9091529190205461258e9116600161280f565b60ff8481166000908152603e60209081526040808320805460ff191695909416949094179092556036805460018101825591527f4a11f94e20a93c79f6ec743a1954ec4fc2c08429ae2122118bf234b2185c81b80184905560355482518581529182018890528183015233606082015290517f6bab0114f9524353d2d33e64edd3ebbd16e21edd57de2226ba76c310a7ce2265916080908290030190a15b60355460408051848152602081018490528082018890526060810192909252336080830152517f8dd9582c6577aea81973b5adeb6c135f6e18565d99578b7ba0c9377437ec02219181900360a00190a16000828152603c60205260409020548514156126f05761269b826128cd565b603554604080518481526020810188905280820192909252336060830152517f8a11c8ca99994c292318ce367f65bf6ff61d390bc814b3588496f6fbcc32807a9181900360800190a1600193505050506108e9565b506000949350505050565b60005b6036548110156127ce57603a60006036838154811061271957fe5b9060005260206000200154815260200190815260200160002060009055603b60006036838154811061274757fe5b9060005260206000200154815260200190815260200160002060009055603c60006036838154811061277557fe5b9060005260206000200154815260200190815260200160002060009055603d6000603683815481106127a357fe5b600091825260208083209091015483528201929092526040019020805460ff191690556001016126fe565b5060006127dc603682612a96565b5060005b60355460ff821610156108c75760ff81166000908152603e60205260409020805460ff191690556001016127e0565b600082820183811015612869576040805162461bcd60e51b815260206004820152601b60248201527f536166654d6174683a206164646974696f6e206f766572666c6f770000000000604482015290519081900360640190fd5b9392505050565b6000828211156128c7576040805162461bcd60e51b815260206004820152601e60248201527f536166654d6174683a207375627472616374696f6e206f766572666c6f770000604482015290519081900360640190fd5b50900390565b6000818152603a60205260409020546036546000190181101561295f57603680546128ff90600163ffffffff61287016565b8154811061290957fe5b90600052602060002001546036828154811061292157fe5b906000526020600020018190555080603a60006036848154811061294157fe5b90600052602060002001548152602001908152602001600020819055505b60365461297390600163ffffffff61287016565b61297e603682612a96565b506000828152603d602090815260408083205460ff908116808552603e90935292205490916129b59116600163ffffffff61287016565b60ff9182166000908152603e6020908152604080832080549490951660ff1994851617909455948152603b8552828120819055603c8552828120819055603a8552828120819055603d9094529220805490921690915550565b303b1590565b60ff9081166000908152603e602052604090205460039116111590565b828054828255906000526020600020908101928215612a86579160200282015b82811115612a8657825182546001600160a01b0319166001600160a01b03909116178255602090920191600190910190612a51565b50612a92929150612abf565b5090565b815481835581811115612aba57600083815260209020612aba918101908301612ae3565b505050565b610bac91905b80821115612a925780546001600160a01b0319168155600101612ac5565b610bac91905b80821115612a925760008155600101612ae956fe636865636b486f774d616e7976616c696461746f72733a2056616c696461746f7220616c726561647920766f74656420666f7220746865206f7065726174696f6e6368616e676556616c696461746f727357697468486f774d616e793a2076616c696461746f727320617272617920636f6e7461696e73207a65726f6368616e676556616c696461746f727357697468486f774d616e793a206e6577486f774d616e7956616c696461746f727344656369646520657175616c20746f20304272696467652069732073746f70706564206f722070617573656400000000006368616e676556616c696461746f727357697468486f774d616e793a2076616c696461746f727320636f756e742069732067726561746572207468656e2032353563616e63656c50656e64696e673a206f7065726174696f6e206e6f7420666f756e6420666f72207468697320757365726368616e676556616c696461746f727357697468486f774d616e793a2076616c696461746f727320617272617920697320656d707479436f6e747261637420696e7374616e63652068617320616c7265616479206265656e20696e697469616c697a6564636865636b486f774d616e7976616c696461746f72733a206e65737465642076616c696461746f7273206d6f64696669657220636865636b2072657175697265206d6f72652056616c696461746f727361646472657373206973206e6f7420696e2056616c696461746f722061727261796368616e676556616c696461746f727357697468486f774d616e793a2076616c696461746f727320617272617920636f6e7461696e73206475706c696361746573636865636b486f774d616e7976616c696461746f72733a206d73672e73656e646572206973206e6f7420616e2056616c696461746f726368616e676556616c696461746f727357697468486f774d616e793a206e6577486f774d616e7956616c696461746f7273446563696465206578636565647320746865206e756d626572206f662056616c696461746f7273636865636b486f774d616e7976616c696461746f72733a206f7065726174696f6e206c696d6974206973207265616368656420666f7220746869732056616c696461746f72a265627a7a723158200b59cd4151070c7b304060c588fb7ecb94963926d5ea7c910c7780f8e2f309c164736f6c634300050c0032",
  "source": "pragma solidity ^0.5.12;\n\nimport \"@openzeppelin/contracts-ethereum-package/contracts/token/ERC20/SafeERC20.sol\";\nimport \"@openzeppelin/upgrades/contracts/Initializable.sol\";\nimport \"../helpers/ValidatorsOperations.sol\";\n\n//Beneficieries (validators) template\nimport \"../interfaces/IStatus.sol\";\nimport \"../interfaces/ITransfers.sol\";\nimport \"../interfaces/IDao.sol\";\nimport \"../interfaces/ICandidate.sol\";\nimport \"../interfaces/ILimits.sol\";\n\n\ncontract Bridge is ValidatorsOperations  {\n\n    /* volume transactions */\n    ITransfers transferContract;\n    IDao daoContract; \n    ICandidate candidateContract;\n    IStatus statusContract;\n    \n    /**\n    * @notice Constructor\n    */\n    function initialize(IStatus _status, ITransfers _transfer, IDao _dao, ICandidate _candidate) public initializer\n    {\n        ValidatorsOperations.init();\n        statusContract = _status;\n        daoContract = _dao;\n        transferContract = _transfer;\n        candidateContract = _candidate;\n    } \n\n    // MODIFIERS\n    /**\n     * @dev Allows to perform method by existing Validator\n    */\n    modifier onlyExistingValidator(address _Validator) {\n        require(isExistValidator(_Validator), \"address is not in Validator array\");\n         _;\n    }\n\n    modifier activeBridgeStatus() {\n        require(statusContract.getStatusBridge() == 0, \"Bridge is stopped or paused\");\n        _;\n    }\n\n    function setTransfer(uint amount, bytes32 guestAddress) public \n    activeBridgeStatus\n    {\n       //_addPendingVolumeByDate(amount);\n       transferContract.setTransfer(amount, msg.sender, guestAddress);\n    }\n\n    function revertTransfer(bytes32 messageID) public \n    activeBridgeStatus\n    onlyManyValidators {\n        transferContract.revertTransfer(messageID);\n    }\n\n    function approveTransfer(bytes32 messageID, address spender, bytes32 guestAddress, uint availableAmount) public \n    activeBridgeStatus \n    onlyManyValidators {\n       transferContract.approveTransfer(messageID, spender, guestAddress, availableAmount);\n    }\n    \n    function confirmTransfer(bytes32 messageID) public \n    activeBridgeStatus\n    onlyManyValidators {\n        transferContract.confirmTransfer(messageID);\n    }\n    \n    function withdrawTransfer(bytes32 messageID, bytes32  sender, address recipient, uint availableAmount)  public \n    activeBridgeStatus\n    onlyManyValidators {\n        transferContract.withdrawTransfer(messageID, sender, recipient, availableAmount);\n    }\n    \n    function confirmWithdrawTransfer(bytes32 messageID)  public\n    activeBridgeStatus \n    onlyManyValidators {\n        transferContract.confirmWithdrawTransfer(messageID);\n    }\n\n    function confirmCancelTransfer(bytes32 messageID)  public \n    activeBridgeStatus  \n    onlyManyValidators {\n       transferContract.confirmCancelTransfer(messageID);\n    }\n\n    function startBridge() public \n    onlyManyValidators {\n        statusContract.startBridge();\n    }\n    \n    function resumeBridge() public \n    onlyManyValidators {\n        statusContract.resumeBridge();\n    }\n    \n    function stopBridge() public \n    onlyManyValidators {\n        statusContract.stopBridge();\n    }\n    \n    function pauseBridge() public \n    onlyManyValidators {\n        statusContract.pauseBridge();\n    }\n\n    function setPausedStatusForGuestAddress(bytes32 sender) \n    onlyManyValidators\n    public {\n       statusContract.setPausedStatusForGuestAddress(sender);\n    }\n\n    function setResumedStatusForGuestAddress(bytes32 sender) \n    onlyManyValidators\n    public {\n       statusContract.setResumedStatusForGuestAddress(sender);\n    }\n\n    function createProposal(uint[10] memory parameters) \n    onlyExistingValidator(msg.sender)\n    public  {\n        daoContract.createProposal(parameters);  \n    }\n\n    function approvedNewProposal(bytes32 proposalID)\n    onlyManyValidators\n    public\n    {\n        daoContract.approvedNewProposal(proposalID);\n    }\n\n    function createCandidatesValidatorsProposal(address[] memory hosts)\n    onlyExistingValidator(msg.sender)\n    public {\n        candidateContract.createCandidatesValidatorsProposal(hosts);\n    }\n\n    function approveNewValidatorsList(bytes32 proposalID)\n    onlyManyValidators\n    public {\n        address[] memory hosts = candidateContract.getValidatorsListByProposalID(proposalID);\n        changeValidatorsWithHowMany(hosts, hosts.length*6/10);        \n    }\n\n    function addCandidate(address host, bytes32 guest) public  existValidator(msg.sender)\n    {\n        candidateContract.addCandidate(host, guest);\n    }\n\n    function removeCandidate(address host) public existValidator(msg.sender) {\n        candidateContract.removeCandidate(host);\n    }\n}\n",
  "sourcePath": "/home/pickle/Documents/bch/eth-bridge-module/contracts/main/Bridge.sol",
  "compiler": {
    "name": "solc",
    "version": "0.5.12+commit.7709ece9.Emscripten.clang"
  },
  "schemaVersion": "3.0.16",
  "updatedAt": "2020-04-20T15:06:11.730Z",
  "devdoc": {
    "methods": {
      "cancelAllPending()": {
        "details": "Allows validators to change their mind by cancelling all operations"
      },
      "cancelPending(bytes32)": {
        "details": "Allows validators to change their mind by cancelling votesMaskByOperation operations",
        "params": {
          "operation": "defines which operation to delete"
        }
      },
      "changeValidators(address[])": {
        "details": "Allows validators to change validatorsship",
        "params": {
          "newValidators": "defines array of addresses of new validators"
        }
      },
      "changeValidatorsWithHowMany(address[],uint256)": {
        "details": "Allows validators to change ValidatorShip",
        "params": {
          "newHowManyValidatorsDecide": "defines how many validators can decide",
          "newValidators": "defines array of addresses of new validators"
        }
      }
    }
  },
  "userdoc": {
    "methods": {
      "initialize(address,address,address,address)": {
        "notice": "Constructor"
      }
    }
  }
}